{
  "_format": "hh-sol-artifact-1",
  "contractName": "NFTFraction",
  "sourceName": "contracts/NFTFraction.sol",
  "abi": [
    {
      "inputs": [
        {
          "internalType": "uint256",
          "name": "",
          "type": "uint256"
        }
      ],
      "name": "_tokensintialized",
      "outputs": [
        {
          "internalType": "contract TokensforNFT",
          "name": "",
          "type": "address"
        }
      ],
      "stateMutability": "view",
      "type": "function"
    },
    {
      "inputs": [
        {
          "internalType": "string",
          "name": "_name",
          "type": "string"
        },
        {
          "internalType": "string",
          "name": "_symbol",
          "type": "string"
        },
        {
          "internalType": "address",
          "name": "_collectionAddress",
          "type": "address"
        },
        {
          "internalType": "uint256",
          "name": "_tokenId",
          "type": "uint256"
        },
        {
          "internalType": "uint256",
          "name": "_amount",
          "type": "uint256"
        }
      ],
      "name": "createToken",
      "outputs": [
        {
          "internalType": "address",
          "name": "",
          "type": "address"
        }
      ],
      "stateMutability": "nonpayable",
      "type": "function"
    },
    {
      "inputs": [
        {
          "internalType": "address",
          "name": "",
          "type": "address"
        },
        {
          "internalType": "uint256",
          "name": "",
          "type": "uint256"
        }
      ],
      "name": "fractionalizedTokens",
      "outputs": [
        {
          "internalType": "contract TokensforNFT",
          "name": "",
          "type": "address"
        }
      ],
      "stateMutability": "view",
      "type": "function"
    },
    {
      "inputs": [
        {
          "internalType": "address",
          "name": "_collectionAddress",
          "type": "address"
        },
        {
          "internalType": "uint256",
          "name": "_tokenId",
          "type": "uint256"
        }
      ],
      "name": "getAddress",
      "outputs": [
        {
          "internalType": "address",
          "name": "",
          "type": "address"
        }
      ],
      "stateMutability": "view",
      "type": "function"
    },
    {
      "inputs": [],
      "name": "getTokens",
      "outputs": [
        {
          "internalType": "contract TokensforNFT[]",
          "name": "",
          "type": "address[]"
        }
      ],
      "stateMutability": "view",
      "type": "function"
    }
  ],
  "bytecode": "0x608060405234801561001057600080fd5b50611f0a806100206000396000f3fe608060405234801561001057600080fd5b50600436106100575760003560e01c806324d624771461005c5780632bbb70a61461008c5780638cb84e181461009f578063aa6ca808146100d3578063de200c79146100e8575b600080fd5b61006f61006a366004610325565b610119565b6040516001600160a01b0390911681526020015b60405180910390f35b61006f61009a3660046103ab565b6101cd565b61006f6100ad3660046103c4565b6001600160a01b0391821660009081526020818152604080832093835292905220541690565b6100db6101f7565b60405161008391906103ee565b61006f6100f63660046103c4565b60006020818152928152604080822090935290815220546001600160a01b031681565b600080868660405161012a90610259565b610135929190610488565b604051809103906000f080158015610151573d6000803e3d6000fd5b506001600160a01b03808716600090815260208181526040808320898452909152812080549284166001600160a01b0319938416811790915560018054808201825592527fb10e2d527612073b26eecdfd717e6a320cf44b4afac2b0732d9fcbe2b7fa0cf6909101805490921617905591505095945050505050565b600181815481106101dd57600080fd5b6000918252602090912001546001600160a01b0316905081565b6060600180548060200260200160405190810160405280929190818152602001828054801561024f57602002820191906000526020600020905b81546001600160a01b03168152600190910190602001808311610231575b5050505050905090565b611a1e806104b783390190565b634e487b7160e01b600052604160045260246000fd5b600082601f83011261028d57600080fd5b813567ffffffffffffffff808211156102a8576102a8610266565b604051601f8301601f19908116603f011681019082821181831017156102d0576102d0610266565b816040528381528660208588010111156102e957600080fd5b836020870160208301376000602085830101528094505050505092915050565b80356001600160a01b038116811461032057600080fd5b919050565b600080600080600060a0868803121561033d57600080fd5b853567ffffffffffffffff8082111561035557600080fd5b61036189838a0161027c565b9650602088013591508082111561037757600080fd5b506103848882890161027c565b94505061039360408701610309565b94979396509394606081013594506080013592915050565b6000602082840312156103bd57600080fd5b5035919050565b600080604083850312156103d757600080fd5b6103e083610309565b946020939093013593505050565b6020808252825182820181905260009190848201906040850190845b8181101561042f5783516001600160a01b03168352928401929184019160010161040a565b50909695505050505050565b6000815180845260005b8181101561046157602081850181015186830182015201610445565b81811115610473576000602083870101525b50601f01601f19169290920160200192915050565b60408152600061049b604083018561043b565b82810360208401526104ad818561043b565b9594505050505056fe60806040526007805463ffffffff191690553480156200001e57600080fd5b5060405162001a1e38038062001a1e8339810160408190526200004191620001ee565b8151829082906200005a9060039060208501906200007b565b508051620000709060049060208401906200007b565b505050505062000295565b828054620000899062000258565b90600052602060002090601f016020900481019282620000ad5760008555620000f8565b82601f10620000c857805160ff1916838001178555620000f8565b82800160010185558215620000f8579182015b82811115620000f8578251825591602001919060010190620000db565b50620001069291506200010a565b5090565b5b808211156200010657600081556001016200010b565b634e487b7160e01b600052604160045260246000fd5b600082601f8301126200014957600080fd5b81516001600160401b038082111562000166576200016662000121565b604051601f8301601f19908116603f0116810190828211818310171562000191576200019162000121565b81604052838152602092508683858801011115620001ae57600080fd5b600091505b83821015620001d25785820183015181830184015290820190620001b3565b83821115620001e45760008385830101525b9695505050505050565b600080604083850312156200020257600080fd5b82516001600160401b03808211156200021a57600080fd5b620002288683870162000137565b935060208501519150808211156200023f57600080fd5b506200024e8582860162000137565b9150509250929050565b600181811c908216806200026d57607f821691505b602082108114156200028f57634e487b7160e01b600052602260045260246000fd5b50919050565b61177980620002a56000396000f3fe6080604052600436106101c45760003560e01c806340c10f19116100f65780637ff9b5961161008f578063db006a7511610061578063db006a7514610520578063dd62ed3e14610540578063f51f96dd14610560578063f97ed5091461057657005b80637ff9b596146104b557806395d89b41146104cb578063a457c2d7146104e0578063a9059cbb1461050057005b8063613b4d32116100c8578063613b4d321461041f5780636aa003711461042757806370a082311461045f5780637a1ac61e1461049557005b806340c10f19146103ab5780635347238a146103cb578063593b76c7146103eb5780635c474f9e1461040057005b80631f078ced11610168578063313ce5671161013a578063313ce5671461033a57806333a543ce1461035657806339509351146103765780633ccfd60b1461039657005b80631f078ced146102d157806323b872dd146102f15780632d296bf1146103115780632ddbd13a1461032457005b8063150b7a02116101a1578063150b7a0214610248578063158ef93e1461028c57806317d70f7c146102a657806318160ddd146102bc57005b806302c7e7af146101cd57806306fdde03146101f6578063095ea7b31461021857005b366101cb57005b005b3480156101d957600080fd5b506101e360085481565b6040519081526020015b60405180910390f35b34801561020257600080fd5b5061020b610597565b6040516101ed9190611418565b34801561022457600080fd5b50610238610233366004611489565b610629565b60405190151581526020016101ed565b34801561025457600080fd5b506102736102633660046114c9565b630a85bd0160e11b949350505050565b6040516001600160e01b031990911681526020016101ed565b34801561029857600080fd5b506007546102389060ff1681565b3480156102b257600080fd5b506101e360065481565b3480156102c857600080fd5b506002546101e3565b3480156102dd57600080fd5b506101cb6102ec3660046115a5565b610641565b3480156102fd57600080fd5b5061023861030c3660046115be565b6106ef565b6101cb61031f3660046115a5565b610713565b34801561033057600080fd5b506101e360095481565b34801561034657600080fd5b50604051601281526020016101ed565b34801561036257600080fd5b506007546102389062010000900460ff1681565b34801561038257600080fd5b50610238610391366004611489565b61084e565b3480156103a257600080fd5b506101cb610870565b3480156103b757600080fd5b506101cb6103c6366004611489565b610967565b3480156103d757600080fd5b506101cb6103e63660046115a5565b610975565b3480156103f757600080fd5b506101cb610a0f565b34801561040c57600080fd5b5060075461023890610100900460ff1681565b6101cb610a9e565b34801561043357600080fd5b50600554610447906001600160a01b031681565b6040516001600160a01b0390911681526020016101ed565b34801561046b57600080fd5b506101e361047a3660046115fa565b6001600160a01b031660009081526020819052604090205490565b3480156104a157600080fd5b506101cb6104b036600461161c565b610beb565b3480156104c157600080fd5b506101e3600b5481565b3480156104d757600080fd5b5061020b610d16565b3480156104ec57600080fd5b506102386104fb366004611489565b610d25565b34801561050c57600080fd5b5061023861051b366004611489565b610da0565b34801561052c57600080fd5b506101cb61053b3660046115a5565b610dae565b34801561054c57600080fd5b506101e361055b36600461164f565b610e5a565b34801561056c57600080fd5b506101e3600a5481565b34801561058257600080fd5b50600754610238906301000000900460ff1681565b6060600380546105a690611682565b80601f01602080910402602001604051908101604052809291908181526020018280546105d290611682565b801561061f5780601f106105f45761010080835404028352916020019161061f565b820191906000526020600020905b81548152906001019060200180831161060257829003601f168201915b5050505050905090565b600033610637818585610e85565b5060019392505050565b60075462010000900460ff1661069e5760405162461bcd60e51b815260206004820152601c60248201527f546f6b656e2073616c65206e6f7420636f6d706c65746564207965740000000060448201526064015b60405180910390fd5b600a8190556007805461ff0019166101001790556040517f94f8c8908c1dbd658ce08b602b9a461c5c57666f9f66e5b5abc8f7821e04cc60906106e49083815260200190565b60405180910390a150565b6000336106fd858285610fa9565b61070885858561101d565b506001949350505050565b60075462010000900460ff1661075b5760405162461bcd60e51b815260206004820152600d60248201526c4e6f7420666f722073616c652160981b6044820152606401610695565b6009548111156107a65760405162461bcd60e51b8152602060048201526016602482015275151bdad95b88185b5bdd5b9d081a5b98dbdc9c9958dd60521b6044820152606401610695565b80600b546107b491906116d3565b3410156107fc5760405162461bcd60e51b8152602060048201526016602482015275139bdd08195b9bdd59da08185b5bdd5b9d081cd95b9d60521b6044820152606401610695565b806008600082825461080e91906116f2565b9091555061081e905033826111eb565b6040518181527ffd5e60d339fe12c15225961ffc5e18b853411f5ca458c38acf2946ac25779caf906020016106e4565b6000336106378185856108618383610e5a565b61086b91906116f2565b610e85565b600254156108cf5760405162461bcd60e51b815260206004820152602660248201527f416c6c20746f6b656e20686f6c646572732068617665206e6f7420636c61696d6044820152651959081e595d60d21b6064820152608401610695565b60405133904790600090839083908381818185875af1925050503d8060008114610915576040519150601f19603f3d011682016040523d82523d6000602084013e61091a565b606091505b50509050806109625760405162461bcd60e51b81526020600482015260146024820152732330b4b632b2103a379039b2b7321022ba3432b960611b6044820152606401610695565b505050565b61097182826111eb565b5050565b60075460ff166109c75760405162461bcd60e51b815260206004820152601960248201527f546f6b656e206e6f7420696e697469616c697a656420796574000000000000006044820152606401610695565b6007805462ff0000191662010000179055600b8190556040517f433f912ff14339886272d9fd787778e49026c79098ac8eb954bf1034b69ad2f7906106e49083815260200190565b60075462010000900460ff16610a675760405162461bcd60e51b815260206004820152601960248201527f546f6b656e2073616c6520616c726561647920636c6f736564000000000000006044820152606401610695565b6007805462ff0000191690556040517f8a540784cf148f0feb41e2fdf0ae2d9e6b6e714c4b62c2295d74671f9c6b3d5f90600090a1565b600754610100900460ff16610ae55760405162461bcd60e51b815260206004820152600d60248201526c4e6f7420666f722073616c652160981b6044820152606401610695565b600a54341015610b305760405162461bcd60e51b8152602060048201526016602482015275139bdd08195b9bdd59da08185b5bdd5b9d081cd95b9d60521b6044820152606401610695565b6005546006546040516323b872dd60e01b815230600482015233602482015260448101919091526001600160a01b03909116906323b872dd90606401600060405180830381600087803b158015610b8657600080fd5b505af1158015610b9a573d6000803e3d6000fd5b50506007805463ff00ff00191663010000001790555050604080513481523360208201527f9cf94036b63590f8bb7ba01debc7a1bb8f67ea2b6b26fcb1dcd21e5b5f09c62c910160405180910390a1565b60075460ff1615610c335760405162461bcd60e51b8152602060048201526012602482015271105b1c9958591e481a5b9a5d185b1a5e995960721b6044820152606401610695565b600580546001600160a01b0319166001600160a01b038516908117909155604051632142170760e11b8152336004820152306024820152604481018490526342842e0e90606401600060405180830381600087803b158015610c9457600080fd5b505af1158015610ca8573d6000803e3d6000fd5b5050506006839055506007805462ff00ff1916620100011790556009819055604080516001600160a01b0385168152602081018490529081018290527f6622d3e86784ccb284b99d669fc14f025ba31aaa7933e11fae4191ed86634aa99060600160405180910390a1505050565b6060600480546105a690611682565b60003381610d338286610e5a565b905083811015610d935760405162461bcd60e51b815260206004820152602560248201527f45524332303a2064656372656173656420616c6c6f77616e63652062656c6f77604482015264207a65726f60d81b6064820152608401610695565b6107088286868403610e85565b60003361063781858561101d565b6007546301000000900460ff16610dfb5760405162461bcd60e51b8152602060048201526011602482015270596f752063616e6e6f742072656465656d60781b6044820152606401610695565b476000610e0760025490565b610e1183856116d3565b610e1b919061170a565b9050610e2733846112ca565b604051339082156108fc029083906000818181858888f19350505050158015610e54573d6000803e3d6000fd5b50505050565b6001600160a01b03918216600090815260016020908152604080832093909416825291909152205490565b6001600160a01b038316610ee75760405162461bcd60e51b8152602060048201526024808201527f45524332303a20617070726f76652066726f6d20746865207a65726f206164646044820152637265737360e01b6064820152608401610695565b6001600160a01b038216610f485760405162461bcd60e51b815260206004820152602260248201527f45524332303a20617070726f766520746f20746865207a65726f206164647265604482015261737360f01b6064820152608401610695565b6001600160a01b0383811660008181526001602090815260408083209487168084529482529182902085905590518481527f8c5be1e5ebec7d5bd14f71427d1e84f3dd0314c0f7b2291e5b200ac8c7c3b925910160405180910390a3505050565b6000610fb58484610e5a565b90506000198114610e5457818110156110105760405162461bcd60e51b815260206004820152601d60248201527f45524332303a20696e73756666696369656e7420616c6c6f77616e63650000006044820152606401610695565b610e548484848403610e85565b6001600160a01b0383166110815760405162461bcd60e51b815260206004820152602560248201527f45524332303a207472616e736665722066726f6d20746865207a65726f206164604482015264647265737360d81b6064820152608401610695565b6001600160a01b0382166110e35760405162461bcd60e51b815260206004820152602360248201527f45524332303a207472616e7366657220746f20746865207a65726f206164647260448201526265737360e81b6064820152608401610695565b6001600160a01b0383166000908152602081905260409020548181101561115b5760405162461bcd60e51b815260206004820152602660248201527f45524332303a207472616e7366657220616d6f756e7420657863656564732062604482015265616c616e636560d01b6064820152608401610695565b6001600160a01b038085166000908152602081905260408082208585039055918516815290812080548492906111929084906116f2565b92505081905550826001600160a01b0316846001600160a01b03167fddf252ad1be2c89b69c2b068fc378daa952ba7f163c4a11628f55a4df523b3ef846040516111de91815260200190565b60405180910390a3610e54565b6001600160a01b0382166112415760405162461bcd60e51b815260206004820152601f60248201527f45524332303a206d696e7420746f20746865207a65726f2061646472657373006044820152606401610695565b806002600082825461125391906116f2565b90915550506001600160a01b038216600090815260208190526040812080548392906112809084906116f2565b90915550506040518181526001600160a01b038316906000907fddf252ad1be2c89b69c2b068fc378daa952ba7f163c4a11628f55a4df523b3ef9060200160405180910390a35050565b6001600160a01b03821661132a5760405162461bcd60e51b815260206004820152602160248201527f45524332303a206275726e2066726f6d20746865207a65726f206164647265736044820152607360f81b6064820152608401610695565b6001600160a01b0382166000908152602081905260409020548181101561139e5760405162461bcd60e51b815260206004820152602260248201527f45524332303a206275726e20616d6f756e7420657863656564732062616c616e604482015261636560f01b6064820152608401610695565b6001600160a01b03831660009081526020819052604081208383039055600280548492906113cd90849061172c565b90915550506040518281526000906001600160a01b038516907fddf252ad1be2c89b69c2b068fc378daa952ba7f163c4a11628f55a4df523b3ef9060200160405180910390a3505050565b600060208083528351808285015260005b8181101561144557858101830151858201604001528201611429565b81811115611457576000604083870101525b50601f01601f1916929092016040019392505050565b80356001600160a01b038116811461148457600080fd5b919050565b6000806040838503121561149c57600080fd5b6114a58361146d565b946020939093013593505050565b634e487b7160e01b600052604160045260246000fd5b600080600080608085870312156114df57600080fd5b6114e88561146d565b93506114f66020860161146d565b925060408501359150606085013567ffffffffffffffff8082111561151a57600080fd5b818701915087601f83011261152e57600080fd5b813581811115611540576115406114b3565b604051601f8201601f19908116603f01168101908382118183101715611568576115686114b3565b816040528281528a602084870101111561158157600080fd5b82602086016020830137600060208483010152809550505050505092959194509250565b6000602082840312156115b757600080fd5b5035919050565b6000806000606084860312156115d357600080fd5b6115dc8461146d565b92506115ea6020850161146d565b9150604084013590509250925092565b60006020828403121561160c57600080fd5b6116158261146d565b9392505050565b60008060006060848603121561163157600080fd5b61163a8461146d565b95602085013595506040909401359392505050565b6000806040838503121561166257600080fd5b61166b8361146d565b91506116796020840161146d565b90509250929050565b600181811c9082168061169657607f821691505b602082108114156116b757634e487b7160e01b600052602260045260246000fd5b50919050565b634e487b7160e01b600052601160045260246000fd5b60008160001904831182151516156116ed576116ed6116bd565b500290565b60008219821115611705576117056116bd565b500190565b60008261172757634e487b7160e01b600052601260045260246000fd5b500490565b60008282101561173e5761173e6116bd565b50039056fea264697066735822122072267f4c294317d92f5ced27f5dee512f2e6dbb069e8089d0bf61d389af97e0864736f6c63430008090033a26469706673582212206b75285b5792e3a554e6c6adab46da209e9be99de7d520072e8dcbd9b45357d764736f6c63430008090033",
  "linkReferences": {},
  "deployedLinkReferences": {}
}