{
  "_format": "hh-sol-artifact-1",
  "contractName": "NFTFraction",
  "sourceName": "contracts/NFTFraction.sol",
  "abi": [
    {
      "inputs": [
        {
          "internalType": "uint256",
          "name": "",
          "type": "uint256"
        }
      ],
      "name": "_tokensintialized",
      "outputs": [
        {
          "internalType": "contract TokensforNFT",
          "name": "",
          "type": "address"
        }
      ],
      "stateMutability": "view",
      "type": "function"
    },
    {
      "inputs": [
        {
          "internalType": "string",
          "name": "_name",
          "type": "string"
        },
        {
          "internalType": "string",
          "name": "_symbol",
          "type": "string"
        },
        {
          "internalType": "address",
          "name": "_collectionAddress",
          "type": "address"
        },
        {
          "internalType": "uint256",
          "name": "_tokenId",
          "type": "uint256"
        },
        {
          "internalType": "uint256",
          "name": "_amount",
          "type": "uint256"
        }
      ],
      "name": "createToken",
      "outputs": [
        {
          "internalType": "address",
          "name": "",
          "type": "address"
        }
      ],
      "stateMutability": "nonpayable",
      "type": "function"
    },
    {
      "inputs": [
        {
          "internalType": "address",
          "name": "",
          "type": "address"
        },
        {
          "internalType": "uint256",
          "name": "",
          "type": "uint256"
        }
      ],
      "name": "fractionalizedTokens",
      "outputs": [
        {
          "internalType": "contract TokensforNFT",
          "name": "",
          "type": "address"
        }
      ],
      "stateMutability": "view",
      "type": "function"
    },
    {
      "inputs": [
        {
          "internalType": "address",
          "name": "_collectionAddress",
          "type": "address"
        },
        {
          "internalType": "uint256",
          "name": "_tokenId",
          "type": "uint256"
        }
      ],
      "name": "getAddress",
      "outputs": [
        {
          "internalType": "address",
          "name": "",
          "type": "address"
        }
      ],
      "stateMutability": "view",
      "type": "function"
    },
    {
      "inputs": [],
      "name": "getTokens",
      "outputs": [
        {
          "internalType": "contract TokensforNFT[]",
          "name": "",
          "type": "address[]"
        }
      ],
      "stateMutability": "view",
      "type": "function"
    }
  ],
  "bytecode": "0x608060405234801561001057600080fd5b50612135806100206000396000f3fe608060405234801561001057600080fd5b50600436106100575760003560e01c806324d624771461005c5780632bbb70a61461008c5780638cb84e181461009f578063aa6ca808146100d3578063de200c79146100e8575b600080fd5b61006f61006a366004610325565b610119565b6040516001600160a01b0390911681526020015b60405180910390f35b61006f61009a3660046103ab565b6101cd565b61006f6100ad3660046103c4565b6001600160a01b0391821660009081526020818152604080832093835292905220541690565b6100db6101f7565b60405161008391906103ee565b61006f6100f63660046103c4565b60006020818152928152604080822090935290815220546001600160a01b031681565b600080868660405161012a90610259565b610135929190610488565b604051809103906000f080158015610151573d6000803e3d6000fd5b506001600160a01b03808716600090815260208181526040808320898452909152812080549284166001600160a01b0319938416811790915560018054808201825592527fb10e2d527612073b26eecdfd717e6a320cf44b4afac2b0732d9fcbe2b7fa0cf6909101805490921617905591505095945050505050565b600181815481106101dd57600080fd5b6000918252602090912001546001600160a01b0316905081565b6060600180548060200260200160405190810160405280929190818152602001828054801561024f57602002820191906000526020600020905b81546001600160a01b03168152600190910190602001808311610231575b5050505050905090565b611c49806104b783390190565b634e487b7160e01b600052604160045260246000fd5b600082601f83011261028d57600080fd5b813567ffffffffffffffff808211156102a8576102a8610266565b604051601f8301601f19908116603f011681019082821181831017156102d0576102d0610266565b816040528381528660208588010111156102e957600080fd5b836020870160208301376000602085830101528094505050505092915050565b80356001600160a01b038116811461032057600080fd5b919050565b600080600080600060a0868803121561033d57600080fd5b853567ffffffffffffffff8082111561035557600080fd5b61036189838a0161027c565b9650602088013591508082111561037757600080fd5b506103848882890161027c565b94505061039360408701610309565b94979396509394606081013594506080013592915050565b6000602082840312156103bd57600080fd5b5035919050565b600080604083850312156103d757600080fd5b6103e083610309565b946020939093013593505050565b6020808252825182820181905260009190848201906040850190845b8181101561042f5783516001600160a01b03168352928401929184019160010161040a565b50909695505050505050565b6000815180845260005b8181101561046157602081850181015186830182015201610445565b81811115610473576000602083870101525b50601f01601f19169290920160200192915050565b60408152600061049b604083018561043b565b82810360208401526104ad818561043b565b9594505050505056fe60806040526008805463ffffffff191690553480156200001e57600080fd5b5060405162001c4938038062001c498339810160408190526200004191620001ee565b8151829082906200005a9060039060208501906200007b565b508051620000709060049060208401906200007b565b505050505062000295565b828054620000899062000258565b90600052602060002090601f016020900481019282620000ad5760008555620000f8565b82601f10620000c857805160ff1916838001178555620000f8565b82800160010185558215620000f8579182015b82811115620000f8578251825591602001919060010190620000db565b50620001069291506200010a565b5090565b5b808211156200010657600081556001016200010b565b634e487b7160e01b600052604160045260246000fd5b600082601f8301126200014957600080fd5b81516001600160401b038082111562000166576200016662000121565b604051601f8301601f19908116603f0116810190828211818310171562000191576200019162000121565b81604052838152602092508683858801011115620001ae57600080fd5b600091505b83821015620001d25785820183015181830184015290820190620001b3565b83821115620001e45760008385830101525b9695505050505050565b600080604083850312156200020257600080fd5b82516001600160401b03808211156200021a57600080fd5b620002288683870162000137565b935060208501519150808211156200023f57600080fd5b506200024e8582860162000137565b9150509250929050565b600181811c908216806200026d57607f821691505b602082108114156200028f57634e487b7160e01b600052602260045260246000fd5b50919050565b6119a480620002a56000396000f3fe6080604052600436106101da5760003560e01c806340c10f19116101015780637ff9b5961161009a578063a9059cbb1161006c578063a9059cbb14610554578063db006a7514610574578063dd62ed3e14610594578063f51f96dd146105b4578063f97ed509146105ca57005b80637ff9b596146104eb5780638da5cb5b1461050157806395d89b411461051f578063a457c2d71461053457005b8063613b4d32116100d3578063613b4d32146104555780636aa003711461045d57806370a08231146104955780637a1ac61e146104cb57005b806340c10f19146103e15780635347238a14610401578063593b76c7146104215780635c474f9e1461043657005b80631f078ced11610173578063313ce56711610145578063313ce5671461037057806333a543ce1461038c57806339509351146103ac5780633ccfd60b146103cc57005b80631f078ced1461030757806323b872dd146103275780632d296bf1146103475780632ddbd13a1461035a57005b8063150b7a02116101ac578063150b7a021461027e578063158ef93e146102c257806317d70f7c146102dc57806318160ddd146102f257005b806302c7e7af146101e357806306fdde031461020c578063095ea7b31461022e57806313af40351461025e57005b366101e157005b005b3480156101ef57600080fd5b506101f960095481565b6040519081526020015b60405180910390f35b34801561021857600080fd5b506102216105eb565b604051610203919061161b565b34801561023a57600080fd5b5061024e61024936600461168c565b61067d565b6040519015158152602001610203565b34801561026a57600080fd5b506101e16102793660046116b6565b610695565b34801561028a57600080fd5b506102a96102993660046116ee565b630a85bd0160e11b949350505050565b6040516001600160e01b03199091168152602001610203565b3480156102ce57600080fd5b5060085461024e9060ff1681565b3480156102e857600080fd5b506101f960075481565b3480156102fe57600080fd5b506002546101f9565b34801561031357600080fd5b506101e16103223660046117ca565b6106ce565b34801561033357600080fd5b5061024e6103423660046117e3565b6107a1565b6101e16103553660046117ca565b6107c5565b34801561036657600080fd5b506101f9600a5481565b34801561037c57600080fd5b5060405160128152602001610203565b34801561039857600080fd5b5060085461024e9062010000900460ff1681565b3480156103b857600080fd5b5061024e6103c736600461168c565b610900565b3480156103d857600080fd5b506101e1610922565b3480156103ed57600080fd5b506101e16103fc36600461168c565b610a43565b34801561040d57600080fd5b506101e161041c3660046117ca565b610a7b565b34801561042d57600080fd5b506101e1610b3f565b34801561044257600080fd5b5060085461024e90610100900460ff1681565b6101e1610bf8565b34801561046957600080fd5b5060065461047d906001600160a01b031681565b6040516001600160a01b039091168152602001610203565b3480156104a157600080fd5b506101f96104b03660046116b6565b6001600160a01b031660009081526020819052604090205490565b3480156104d757600080fd5b506101e16104e636600461181f565b610d45565b3480156104f757600080fd5b506101f9600c5481565b34801561050d57600080fd5b506005546001600160a01b031661047d565b34801561052b57600080fd5b50610221610e9a565b34801561054057600080fd5b5061024e61054f36600461168c565b610ea9565b34801561056057600080fd5b5061024e61056f36600461168c565b610f24565b34801561058057600080fd5b506101e161058f3660046117ca565b610f32565b3480156105a057600080fd5b506101f96105af366004611852565b610fde565b3480156105c057600080fd5b506101f9600b5481565b3480156105d657600080fd5b5060085461024e906301000000900460ff1681565b6060600380546105fa90611885565b80601f016020809104026020016040519081016040528092919081815260200182805461062690611885565b80156106735780601f1061064857610100808354040283529160200191610673565b820191906000526020600020905b81548152906001019060200180831161065657829003601f168201915b5050505050905090565b60003361068b818585611009565b5060019392505050565b61069d61112d565b6106c25760405162461bcd60e51b81526004016106b9906118c0565b60405180910390fd5b6106cb8161115a565b50565b6005546001600160a01b031633146106f85760405162461bcd60e51b81526004016106b9906118c0565b60085462010000900460ff166107505760405162461bcd60e51b815260206004820152601c60248201527f546f6b656e2073616c65206e6f7420636f6d706c65746564207965740000000060448201526064016106b9565b600b8190556008805461ff0019166101001790556040517f94f8c8908c1dbd658ce08b602b9a461c5c57666f9f66e5b5abc8f7821e04cc60906107969083815260200190565b60405180910390a150565b6000336107af8582856111ac565b6107ba858585611220565b506001949350505050565b60085462010000900460ff1661080d5760405162461bcd60e51b815260206004820152600d60248201526c4e6f7420666f722073616c652160981b60448201526064016106b9565b600a548111156108585760405162461bcd60e51b8152602060048201526016602482015275151bdad95b88185b5bdd5b9d081a5b98dbdc9c9958dd60521b60448201526064016106b9565b80600c5461086691906118fe565b3410156108ae5760405162461bcd60e51b8152602060048201526016602482015275139bdd08195b9bdd59da08185b5bdd5b9d081cd95b9d60521b60448201526064016106b9565b80600960008282546108c0919061191d565b909155506108d0905033826113ee565b6040518181527ffd5e60d339fe12c15225961ffc5e18b853411f5ca458c38acf2946ac25779caf90602001610796565b60003361068b8185856109138383610fde565b61091d919061191d565b611009565b6005546001600160a01b0316331461094c5760405162461bcd60e51b81526004016106b9906118c0565b600254156109ab5760405162461bcd60e51b815260206004820152602660248201527f416c6c20746f6b656e20686f6c646572732068617665206e6f7420636c61696d6044820152651959081e595d60d21b60648201526084016106b9565b60405133904790600090839083908381818185875af1925050503d80600081146109f1576040519150601f19603f3d011682016040523d82523d6000602084013e6109f6565b606091505b5050905080610a3e5760405162461bcd60e51b81526020600482015260146024820152732330b4b632b2103a379039b2b7321022ba3432b960611b60448201526064016106b9565b505050565b6005546001600160a01b03163314610a6d5760405162461bcd60e51b81526004016106b9906118c0565b610a7782826113ee565b5050565b6005546001600160a01b03163314610aa55760405162461bcd60e51b81526004016106b9906118c0565b60085460ff16610af75760405162461bcd60e51b815260206004820152601960248201527f546f6b656e206e6f7420696e697469616c697a6564207965740000000000000060448201526064016106b9565b6008805462ff0000191662010000179055600c8190556040517f433f912ff14339886272d9fd787778e49026c79098ac8eb954bf1034b69ad2f7906107969083815260200190565b6005546001600160a01b03163314610b695760405162461bcd60e51b81526004016106b9906118c0565b60085462010000900460ff16610bc15760405162461bcd60e51b815260206004820152601960248201527f546f6b656e2073616c6520616c726561647920636c6f7365640000000000000060448201526064016106b9565b6008805462ff0000191690556040517f8a540784cf148f0feb41e2fdf0ae2d9e6b6e714c4b62c2295d74671f9c6b3d5f90600090a1565b600854610100900460ff16610c3f5760405162461bcd60e51b815260206004820152600d60248201526c4e6f7420666f722073616c652160981b60448201526064016106b9565b600b54341015610c8a5760405162461bcd60e51b8152602060048201526016602482015275139bdd08195b9bdd59da08185b5bdd5b9d081cd95b9d60521b60448201526064016106b9565b6006546007546040516323b872dd60e01b815230600482015233602482015260448101919091526001600160a01b03909116906323b872dd90606401600060405180830381600087803b158015610ce057600080fd5b505af1158015610cf4573d6000803e3d6000fd5b50506008805463ff00ff00191663010000001790555050604080513481523360208201527f9cf94036b63590f8bb7ba01debc7a1bb8f67ea2b6b26fcb1dcd21e5b5f09c62c910160405180910390a1565b6005546001600160a01b03163314610d6f5760405162461bcd60e51b81526004016106b9906118c0565b60085460ff1615610db75760405162461bcd60e51b8152602060048201526012602482015271105b1c9958591e481a5b9a5d185b1a5e995960721b60448201526064016106b9565b600680546001600160a01b0319166001600160a01b038516908117909155604051632142170760e11b8152336004820152306024820152604481018490526342842e0e90606401600060405180830381600087803b158015610e1857600080fd5b505af1158015610e2c573d6000803e3d6000fd5b5050506007839055506008805462ff00ff191662010001179055600a819055604080516001600160a01b0385168152602081018490529081018290527f6622d3e86784ccb284b99d669fc14f025ba31aaa7933e11fae4191ed86634aa99060600160405180910390a1505050565b6060600480546105fa90611885565b60003381610eb78286610fde565b905083811015610f175760405162461bcd60e51b815260206004820152602560248201527f45524332303a2064656372656173656420616c6c6f77616e63652062656c6f77604482015264207a65726f60d81b60648201526084016106b9565b6107ba8286868403611009565b60003361068b818585611220565b6008546301000000900460ff16610f7f5760405162461bcd60e51b8152602060048201526011602482015270596f752063616e6e6f742072656465656d60781b60448201526064016106b9565b476000610f8b60025490565b610f9583856118fe565b610f9f9190611935565b9050610fab33846114cd565b604051339082156108fc029083906000818181858888f19350505050158015610fd8573d6000803e3d6000fd5b50505050565b6001600160a01b03918216600090815260016020908152604080832093909416825291909152205490565b6001600160a01b03831661106b5760405162461bcd60e51b8152602060048201526024808201527f45524332303a20617070726f76652066726f6d20746865207a65726f206164646044820152637265737360e01b60648201526084016106b9565b6001600160a01b0382166110cc5760405162461bcd60e51b815260206004820152602260248201527f45524332303a20617070726f766520746f20746865207a65726f206164647265604482015261737360f01b60648201526084016106b9565b6001600160a01b0383811660008181526001602090815260408083209487168084529482529182902085905590518481527f8c5be1e5ebec7d5bd14f71427d1e84f3dd0314c0f7b2291e5b200ac8c7c3b925910160405180910390a3505050565b60006111416005546001600160a01b031690565b6001600160a01b0316336001600160a01b031614905090565b600580546001600160a01b038381166001600160a01b0319831681179093556040519116919082907f8292fce18fa69edf4db7b94ea2e58241df0ae57f97e0a6c9b29067028bf92d7690600090a35050565b60006111b88484610fde565b90506000198114610fd857818110156112135760405162461bcd60e51b815260206004820152601d60248201527f45524332303a20696e73756666696369656e7420616c6c6f77616e636500000060448201526064016106b9565b610fd88484848403611009565b6001600160a01b0383166112845760405162461bcd60e51b815260206004820152602560248201527f45524332303a207472616e736665722066726f6d20746865207a65726f206164604482015264647265737360d81b60648201526084016106b9565b6001600160a01b0382166112e65760405162461bcd60e51b815260206004820152602360248201527f45524332303a207472616e7366657220746f20746865207a65726f206164647260448201526265737360e81b60648201526084016106b9565b6001600160a01b0383166000908152602081905260409020548181101561135e5760405162461bcd60e51b815260206004820152602660248201527f45524332303a207472616e7366657220616d6f756e7420657863656564732062604482015265616c616e636560d01b60648201526084016106b9565b6001600160a01b0380851660009081526020819052604080822085850390559185168152908120805484929061139590849061191d565b92505081905550826001600160a01b0316846001600160a01b03167fddf252ad1be2c89b69c2b068fc378daa952ba7f163c4a11628f55a4df523b3ef846040516113e191815260200190565b60405180910390a3610fd8565b6001600160a01b0382166114445760405162461bcd60e51b815260206004820152601f60248201527f45524332303a206d696e7420746f20746865207a65726f20616464726573730060448201526064016106b9565b8060026000828254611456919061191d565b90915550506001600160a01b0382166000908152602081905260408120805483929061148390849061191d565b90915550506040518181526001600160a01b038316906000907fddf252ad1be2c89b69c2b068fc378daa952ba7f163c4a11628f55a4df523b3ef9060200160405180910390a35050565b6001600160a01b03821661152d5760405162461bcd60e51b815260206004820152602160248201527f45524332303a206275726e2066726f6d20746865207a65726f206164647265736044820152607360f81b60648201526084016106b9565b6001600160a01b038216600090815260208190526040902054818110156115a15760405162461bcd60e51b815260206004820152602260248201527f45524332303a206275726e20616d6f756e7420657863656564732062616c616e604482015261636560f01b60648201526084016106b9565b6001600160a01b03831660009081526020819052604081208383039055600280548492906115d0908490611957565b90915550506040518281526000906001600160a01b038516907fddf252ad1be2c89b69c2b068fc378daa952ba7f163c4a11628f55a4df523b3ef9060200160405180910390a3505050565b600060208083528351808285015260005b818110156116485785810183015185820160400152820161162c565b8181111561165a576000604083870101525b50601f01601f1916929092016040019392505050565b80356001600160a01b038116811461168757600080fd5b919050565b6000806040838503121561169f57600080fd5b6116a883611670565b946020939093013593505050565b6000602082840312156116c857600080fd5b6116d182611670565b9392505050565b634e487b7160e01b600052604160045260246000fd5b6000806000806080858703121561170457600080fd5b61170d85611670565b935061171b60208601611670565b925060408501359150606085013567ffffffffffffffff8082111561173f57600080fd5b818701915087601f83011261175357600080fd5b813581811115611765576117656116d8565b604051601f8201601f19908116603f0116810190838211818310171561178d5761178d6116d8565b816040528281528a60208487010111156117a657600080fd5b82602086016020830137600060208483010152809550505050505092959194509250565b6000602082840312156117dc57600080fd5b5035919050565b6000806000606084860312156117f857600080fd5b61180184611670565b925061180f60208501611670565b9150604084013590509250925092565b60008060006060848603121561183457600080fd5b61183d84611670565b95602085013595506040909401359392505050565b6000806040838503121561186557600080fd5b61186e83611670565b915061187c60208401611670565b90509250929050565b600181811c9082168061189957607f821691505b602082108114156118ba57634e487b7160e01b600052602260045260246000fd5b50919050565b6020808252600e908201526d139bdd08185d5d1a1bdc9a5e995960921b604082015260600190565b634e487b7160e01b600052601160045260246000fd5b6000816000190483118215151615611918576119186118e8565b500290565b60008219821115611930576119306118e8565b500190565b60008261195257634e487b7160e01b600052601260045260246000fd5b500490565b600082821015611969576119696118e8565b50039056fea264697066735822122088acdc4534fa0c66d7824708c847857714cd9462a0487dba67da031f5f4fa61b64736f6c63430008090033a264697066735822122024268f55b5403ac9f1a646f45654c2f5b8d60fb4cc1ecd02351fda554c70790164736f6c63430008090033",
  "linkReferences": {},
  "deployedLinkReferences": {}
}