{"contracts/NFTFraction.sol":{"NFTFraction":{"abi":[{"inputs":[{"internalType":"uint256","name":"","type":"uint256"}],"name":"_tokensintialized","outputs":[{"internalType":"contract TokensforNFT","name":"","type":"address"}],"stateMutability":"view","type":"function"},{"inputs":[{"internalType":"string","name":"_name","type":"string"},{"internalType":"string","name":"_symbol","type":"string"},{"internalType":"address","name":"_collectionAddress","type":"address"},{"internalType":"uint256","name":"_tokenId","type":"uint256"},{"internalType":"uint256","name":"_amount","type":"uint256"}],"name":"createToken","outputs":[{"internalType":"address","name":"","type":"address"}],"stateMutability":"nonpayable","type":"function"},{"inputs":[{"internalType":"address","name":"","type":"address"},{"internalType":"uint256","name":"","type":"uint256"}],"name":"fractionalizedTokens","outputs":[{"internalType":"contract TokensforNFT","name":"","type":"address"}],"stateMutability":"view","type":"function"},{"inputs":[{"internalType":"address","name":"_collectionAddress","type":"address"},{"internalType":"uint256","name":"_tokenId","type":"uint256"}],"name":"getAddress","outputs":[{"internalType":"address","name":"","type":"address"}],"stateMutability":"view","type":"function"},{"inputs":[],"name":"getTokens","outputs":[{"internalType":"contract TokensforNFT[]","name":"","type":"address[]"}],"stateMutability":"view","type":"function"}],"evm":{"bytecode":{"linkReferences":{},"object":"608060405234801561001057600080fd5b50611f0a806100206000396000f3fe608060405234801561001057600080fd5b50600436106100575760003560e01c806324d624771461005c5780632bbb70a61461008c5780638cb84e181461009f578063aa6ca808146100d3578063de200c79146100e8575b600080fd5b61006f61006a366004610325565b610119565b6040516001600160a01b0390911681526020015b60405180910390f35b61006f61009a3660046103ab565b6101cd565b61006f6100ad3660046103c4565b6001600160a01b0391821660009081526020818152604080832093835292905220541690565b6100db6101f7565b60405161008391906103ee565b61006f6100f63660046103c4565b60006020818152928152604080822090935290815220546001600160a01b031681565b600080868660405161012a90610259565b610135929190610488565b604051809103906000f080158015610151573d6000803e3d6000fd5b506001600160a01b03808716600090815260208181526040808320898452909152812080549284166001600160a01b0319938416811790915560018054808201825592527fb10e2d527612073b26eecdfd717e6a320cf44b4afac2b0732d9fcbe2b7fa0cf6909101805490921617905591505095945050505050565b600181815481106101dd57600080fd5b6000918252602090912001546001600160a01b0316905081565b6060600180548060200260200160405190810160405280929190818152602001828054801561024f57602002820191906000526020600020905b81546001600160a01b03168152600190910190602001808311610231575b5050505050905090565b611a1e806104b783390190565b634e487b7160e01b600052604160045260246000fd5b600082601f83011261028d57600080fd5b813567ffffffffffffffff808211156102a8576102a8610266565b604051601f8301601f19908116603f011681019082821181831017156102d0576102d0610266565b816040528381528660208588010111156102e957600080fd5b836020870160208301376000602085830101528094505050505092915050565b80356001600160a01b038116811461032057600080fd5b919050565b600080600080600060a0868803121561033d57600080fd5b853567ffffffffffffffff8082111561035557600080fd5b61036189838a0161027c565b9650602088013591508082111561037757600080fd5b506103848882890161027c565b94505061039360408701610309565b94979396509394606081013594506080013592915050565b6000602082840312156103bd57600080fd5b5035919050565b600080604083850312156103d757600080fd5b6103e083610309565b946020939093013593505050565b6020808252825182820181905260009190848201906040850190845b8181101561042f5783516001600160a01b03168352928401929184019160010161040a565b50909695505050505050565b6000815180845260005b8181101561046157602081850181015186830182015201610445565b81811115610473576000602083870101525b50601f01601f19169290920160200192915050565b60408152600061049b604083018561043b565b82810360208401526104ad818561043b565b9594505050505056fe60806040526007805463ffffffff191690553480156200001e57600080fd5b5060405162001a1e38038062001a1e8339810160408190526200004191620001ee565b8151829082906200005a9060039060208501906200007b565b508051620000709060049060208401906200007b565b505050505062000295565b828054620000899062000258565b90600052602060002090601f016020900481019282620000ad5760008555620000f8565b82601f10620000c857805160ff1916838001178555620000f8565b82800160010185558215620000f8579182015b82811115620000f8578251825591602001919060010190620000db565b50620001069291506200010a565b5090565b5b808211156200010657600081556001016200010b565b634e487b7160e01b600052604160045260246000fd5b600082601f8301126200014957600080fd5b81516001600160401b038082111562000166576200016662000121565b604051601f8301601f19908116603f0116810190828211818310171562000191576200019162000121565b81604052838152602092508683858801011115620001ae57600080fd5b600091505b83821015620001d25785820183015181830184015290820190620001b3565b83821115620001e45760008385830101525b9695505050505050565b600080604083850312156200020257600080fd5b82516001600160401b03808211156200021a57600080fd5b620002288683870162000137565b935060208501519150808211156200023f57600080fd5b506200024e8582860162000137565b9150509250929050565b600181811c908216806200026d57607f821691505b602082108114156200028f57634e487b7160e01b600052602260045260246000fd5b50919050565b61177980620002a56000396000f3fe6080604052600436106101c45760003560e01c806340c10f19116100f65780637ff9b5961161008f578063db006a7511610061578063db006a7514610520578063dd62ed3e14610540578063f51f96dd14610560578063f97ed5091461057657005b80637ff9b596146104b557806395d89b41146104cb578063a457c2d7146104e0578063a9059cbb1461050057005b8063613b4d32116100c8578063613b4d321461041f5780636aa003711461042757806370a082311461045f5780637a1ac61e1461049557005b806340c10f19146103ab5780635347238a146103cb578063593b76c7146103eb5780635c474f9e1461040057005b80631f078ced11610168578063313ce5671161013a578063313ce5671461033a57806333a543ce1461035657806339509351146103765780633ccfd60b1461039657005b80631f078ced146102d157806323b872dd146102f15780632d296bf1146103115780632ddbd13a1461032457005b8063150b7a02116101a1578063150b7a0214610248578063158ef93e1461028c57806317d70f7c146102a657806318160ddd146102bc57005b806302c7e7af146101cd57806306fdde03146101f6578063095ea7b31461021857005b366101cb57005b005b3480156101d957600080fd5b506101e360085481565b6040519081526020015b60405180910390f35b34801561020257600080fd5b5061020b610597565b6040516101ed9190611418565b34801561022457600080fd5b50610238610233366004611489565b610629565b60405190151581526020016101ed565b34801561025457600080fd5b506102736102633660046114c9565b630a85bd0160e11b949350505050565b6040516001600160e01b031990911681526020016101ed565b34801561029857600080fd5b506007546102389060ff1681565b3480156102b257600080fd5b506101e360065481565b3480156102c857600080fd5b506002546101e3565b3480156102dd57600080fd5b506101cb6102ec3660046115a5565b610641565b3480156102fd57600080fd5b5061023861030c3660046115be565b6106ef565b6101cb61031f3660046115a5565b610713565b34801561033057600080fd5b506101e360095481565b34801561034657600080fd5b50604051601281526020016101ed565b34801561036257600080fd5b506007546102389062010000900460ff1681565b34801561038257600080fd5b50610238610391366004611489565b61084e565b3480156103a257600080fd5b506101cb610870565b3480156103b757600080fd5b506101cb6103c6366004611489565b610967565b3480156103d757600080fd5b506101cb6103e63660046115a5565b610975565b3480156103f757600080fd5b506101cb610a0f565b34801561040c57600080fd5b5060075461023890610100900460ff1681565b6101cb610a9e565b34801561043357600080fd5b50600554610447906001600160a01b031681565b6040516001600160a01b0390911681526020016101ed565b34801561046b57600080fd5b506101e361047a3660046115fa565b6001600160a01b031660009081526020819052604090205490565b3480156104a157600080fd5b506101cb6104b036600461161c565b610beb565b3480156104c157600080fd5b506101e3600b5481565b3480156104d757600080fd5b5061020b610d16565b3480156104ec57600080fd5b506102386104fb366004611489565b610d25565b34801561050c57600080fd5b5061023861051b366004611489565b610da0565b34801561052c57600080fd5b506101cb61053b3660046115a5565b610dae565b34801561054c57600080fd5b506101e361055b36600461164f565b610e5a565b34801561056c57600080fd5b506101e3600a5481565b34801561058257600080fd5b50600754610238906301000000900460ff1681565b6060600380546105a690611682565b80601f01602080910402602001604051908101604052809291908181526020018280546105d290611682565b801561061f5780601f106105f45761010080835404028352916020019161061f565b820191906000526020600020905b81548152906001019060200180831161060257829003601f168201915b5050505050905090565b600033610637818585610e85565b5060019392505050565b60075462010000900460ff1661069e5760405162461bcd60e51b815260206004820152601c60248201527f546f6b656e2073616c65206e6f7420636f6d706c65746564207965740000000060448201526064015b60405180910390fd5b600a8190556007805461ff0019166101001790556040517f94f8c8908c1dbd658ce08b602b9a461c5c57666f9f66e5b5abc8f7821e04cc60906106e49083815260200190565b60405180910390a150565b6000336106fd858285610fa9565b61070885858561101d565b506001949350505050565b60075462010000900460ff1661075b5760405162461bcd60e51b815260206004820152600d60248201526c4e6f7420666f722073616c652160981b6044820152606401610695565b6009548111156107a65760405162461bcd60e51b8152602060048201526016602482015275151bdad95b88185b5bdd5b9d081a5b98dbdc9c9958dd60521b6044820152606401610695565b80600b546107b491906116d3565b3410156107fc5760405162461bcd60e51b8152602060048201526016602482015275139bdd08195b9bdd59da08185b5bdd5b9d081cd95b9d60521b6044820152606401610695565b806008600082825461080e91906116f2565b9091555061081e905033826111eb565b6040518181527ffd5e60d339fe12c15225961ffc5e18b853411f5ca458c38acf2946ac25779caf906020016106e4565b6000336106378185856108618383610e5a565b61086b91906116f2565b610e85565b600254156108cf5760405162461bcd60e51b815260206004820152602660248201527f416c6c20746f6b656e20686f6c646572732068617665206e6f7420636c61696d6044820152651959081e595d60d21b6064820152608401610695565b60405133904790600090839083908381818185875af1925050503d8060008114610915576040519150601f19603f3d011682016040523d82523d6000602084013e61091a565b606091505b50509050806109625760405162461bcd60e51b81526020600482015260146024820152732330b4b632b2103a379039b2b7321022ba3432b960611b6044820152606401610695565b505050565b61097182826111eb565b5050565b60075460ff166109c75760405162461bcd60e51b815260206004820152601960248201527f546f6b656e206e6f7420696e697469616c697a656420796574000000000000006044820152606401610695565b6007805462ff0000191662010000179055600b8190556040517f433f912ff14339886272d9fd787778e49026c79098ac8eb954bf1034b69ad2f7906106e49083815260200190565b60075462010000900460ff16610a675760405162461bcd60e51b815260206004820152601960248201527f546f6b656e2073616c6520616c726561647920636c6f736564000000000000006044820152606401610695565b6007805462ff0000191690556040517f8a540784cf148f0feb41e2fdf0ae2d9e6b6e714c4b62c2295d74671f9c6b3d5f90600090a1565b600754610100900460ff16610ae55760405162461bcd60e51b815260206004820152600d60248201526c4e6f7420666f722073616c652160981b6044820152606401610695565b600a54341015610b305760405162461bcd60e51b8152602060048201526016602482015275139bdd08195b9bdd59da08185b5bdd5b9d081cd95b9d60521b6044820152606401610695565b6005546006546040516323b872dd60e01b815230600482015233602482015260448101919091526001600160a01b03909116906323b872dd90606401600060405180830381600087803b158015610b8657600080fd5b505af1158015610b9a573d6000803e3d6000fd5b50506007805463ff00ff00191663010000001790555050604080513481523360208201527f9cf94036b63590f8bb7ba01debc7a1bb8f67ea2b6b26fcb1dcd21e5b5f09c62c910160405180910390a1565b60075460ff1615610c335760405162461bcd60e51b8152602060048201526012602482015271105b1c9958591e481a5b9a5d185b1a5e995960721b6044820152606401610695565b600580546001600160a01b0319166001600160a01b038516908117909155604051632142170760e11b8152336004820152306024820152604481018490526342842e0e90606401600060405180830381600087803b158015610c9457600080fd5b505af1158015610ca8573d6000803e3d6000fd5b5050506006839055506007805462ff00ff1916620100011790556009819055604080516001600160a01b0385168152602081018490529081018290527f6622d3e86784ccb284b99d669fc14f025ba31aaa7933e11fae4191ed86634aa99060600160405180910390a1505050565b6060600480546105a690611682565b60003381610d338286610e5a565b905083811015610d935760405162461bcd60e51b815260206004820152602560248201527f45524332303a2064656372656173656420616c6c6f77616e63652062656c6f77604482015264207a65726f60d81b6064820152608401610695565b6107088286868403610e85565b60003361063781858561101d565b6007546301000000900460ff16610dfb5760405162461bcd60e51b8152602060048201526011602482015270596f752063616e6e6f742072656465656d60781b6044820152606401610695565b476000610e0760025490565b610e1183856116d3565b610e1b919061170a565b9050610e2733846112ca565b604051339082156108fc029083906000818181858888f19350505050158015610e54573d6000803e3d6000fd5b50505050565b6001600160a01b03918216600090815260016020908152604080832093909416825291909152205490565b6001600160a01b038316610ee75760405162461bcd60e51b8152602060048201526024808201527f45524332303a20617070726f76652066726f6d20746865207a65726f206164646044820152637265737360e01b6064820152608401610695565b6001600160a01b038216610f485760405162461bcd60e51b815260206004820152602260248201527f45524332303a20617070726f766520746f20746865207a65726f206164647265604482015261737360f01b6064820152608401610695565b6001600160a01b0383811660008181526001602090815260408083209487168084529482529182902085905590518481527f8c5be1e5ebec7d5bd14f71427d1e84f3dd0314c0f7b2291e5b200ac8c7c3b925910160405180910390a3505050565b6000610fb58484610e5a565b90506000198114610e5457818110156110105760405162461bcd60e51b815260206004820152601d60248201527f45524332303a20696e73756666696369656e7420616c6c6f77616e63650000006044820152606401610695565b610e548484848403610e85565b6001600160a01b0383166110815760405162461bcd60e51b815260206004820152602560248201527f45524332303a207472616e736665722066726f6d20746865207a65726f206164604482015264647265737360d81b6064820152608401610695565b6001600160a01b0382166110e35760405162461bcd60e51b815260206004820152602360248201527f45524332303a207472616e7366657220746f20746865207a65726f206164647260448201526265737360e81b6064820152608401610695565b6001600160a01b0383166000908152602081905260409020548181101561115b5760405162461bcd60e51b815260206004820152602660248201527f45524332303a207472616e7366657220616d6f756e7420657863656564732062604482015265616c616e636560d01b6064820152608401610695565b6001600160a01b038085166000908152602081905260408082208585039055918516815290812080548492906111929084906116f2565b92505081905550826001600160a01b0316846001600160a01b03167fddf252ad1be2c89b69c2b068fc378daa952ba7f163c4a11628f55a4df523b3ef846040516111de91815260200190565b60405180910390a3610e54565b6001600160a01b0382166112415760405162461bcd60e51b815260206004820152601f60248201527f45524332303a206d696e7420746f20746865207a65726f2061646472657373006044820152606401610695565b806002600082825461125391906116f2565b90915550506001600160a01b038216600090815260208190526040812080548392906112809084906116f2565b90915550506040518181526001600160a01b038316906000907fddf252ad1be2c89b69c2b068fc378daa952ba7f163c4a11628f55a4df523b3ef9060200160405180910390a35050565b6001600160a01b03821661132a5760405162461bcd60e51b815260206004820152602160248201527f45524332303a206275726e2066726f6d20746865207a65726f206164647265736044820152607360f81b6064820152608401610695565b6001600160a01b0382166000908152602081905260409020548181101561139e5760405162461bcd60e51b815260206004820152602260248201527f45524332303a206275726e20616d6f756e7420657863656564732062616c616e604482015261636560f01b6064820152608401610695565b6001600160a01b03831660009081526020819052604081208383039055600280548492906113cd90849061172c565b90915550506040518281526000906001600160a01b038516907fddf252ad1be2c89b69c2b068fc378daa952ba7f163c4a11628f55a4df523b3ef9060200160405180910390a3505050565b600060208083528351808285015260005b8181101561144557858101830151858201604001528201611429565b81811115611457576000604083870101525b50601f01601f1916929092016040019392505050565b80356001600160a01b038116811461148457600080fd5b919050565b6000806040838503121561149c57600080fd5b6114a58361146d565b946020939093013593505050565b634e487b7160e01b600052604160045260246000fd5b600080600080608085870312156114df57600080fd5b6114e88561146d565b93506114f66020860161146d565b925060408501359150606085013567ffffffffffffffff8082111561151a57600080fd5b818701915087601f83011261152e57600080fd5b813581811115611540576115406114b3565b604051601f8201601f19908116603f01168101908382118183101715611568576115686114b3565b816040528281528a602084870101111561158157600080fd5b82602086016020830137600060208483010152809550505050505092959194509250565b6000602082840312156115b757600080fd5b5035919050565b6000806000606084860312156115d357600080fd5b6115dc8461146d565b92506115ea6020850161146d565b9150604084013590509250925092565b60006020828403121561160c57600080fd5b6116158261146d565b9392505050565b60008060006060848603121561163157600080fd5b61163a8461146d565b95602085013595506040909401359392505050565b6000806040838503121561166257600080fd5b61166b8361146d565b91506116796020840161146d565b90509250929050565b600181811c9082168061169657607f821691505b602082108114156116b757634e487b7160e01b600052602260045260246000fd5b50919050565b634e487b7160e01b600052601160045260246000fd5b60008160001904831182151516156116ed576116ed6116bd565b500290565b60008219821115611705576117056116bd565b500190565b60008261172757634e487b7160e01b600052601260045260246000fd5b500490565b60008282101561173e5761173e6116bd565b50039056fea264697066735822122072267f4c294317d92f5ced27f5dee512f2e6dbb069e8089d0bf61d389af97e0864736f6c63430008090033a26469706673582212206b75285b5792e3a554e6c6adab46da209e9be99de7d520072e8dcbd9b45357d764736f6c63430008090033","opcodes":"PUSH1 0x80 PUSH1 0x40 MSTORE CALLVALUE DUP1 ISZERO PUSH2 0x10 JUMPI PUSH1 0x0 DUP1 REVERT JUMPDEST POP PUSH2 0x1F0A DUP1 PUSH2 0x20 PUSH1 0x0 CODECOPY PUSH1 0x0 RETURN INVALID PUSH1 0x80 PUSH1 0x40 MSTORE CALLVALUE DUP1 ISZERO PUSH2 0x10 JUMPI PUSH1 0x0 DUP1 REVERT JUMPDEST POP PUSH1 0x4 CALLDATASIZE LT PUSH2 0x57 JUMPI PUSH1 0x0 CALLDATALOAD PUSH1 0xE0 SHR DUP1 PUSH4 0x24D62477 EQ PUSH2 0x5C JUMPI DUP1 PUSH4 0x2BBB70A6 EQ PUSH2 0x8C JUMPI DUP1 PUSH4 0x8CB84E18 EQ PUSH2 0x9F JUMPI DUP1 PUSH4 0xAA6CA808 EQ PUSH2 0xD3 JUMPI DUP1 PUSH4 0xDE200C79 EQ PUSH2 0xE8 JUMPI JUMPDEST PUSH1 0x0 DUP1 REVERT JUMPDEST PUSH2 0x6F PUSH2 0x6A CALLDATASIZE PUSH1 0x4 PUSH2 0x325 JUMP JUMPDEST PUSH2 0x119 JUMP JUMPDEST PUSH1 0x40 MLOAD PUSH1 0x1 PUSH1 0x1 PUSH1 0xA0 SHL SUB SWAP1 SWAP2 AND DUP2 MSTORE PUSH1 0x20 ADD JUMPDEST PUSH1 0x40 MLOAD DUP1 SWAP2 SUB SWAP1 RETURN JUMPDEST PUSH2 0x6F PUSH2 0x9A CALLDATASIZE PUSH1 0x4 PUSH2 0x3AB JUMP JUMPDEST PUSH2 0x1CD JUMP JUMPDEST PUSH2 0x6F PUSH2 0xAD CALLDATASIZE PUSH1 0x4 PUSH2 0x3C4 JUMP JUMPDEST PUSH1 0x1 PUSH1 0x1 PUSH1 0xA0 SHL SUB SWAP2 DUP3 AND PUSH1 0x0 SWAP1 DUP2 MSTORE PUSH1 0x20 DUP2 DUP2 MSTORE PUSH1 0x40 DUP1 DUP4 KECCAK256 SWAP4 DUP4 MSTORE SWAP3 SWAP1 MSTORE KECCAK256 SLOAD AND SWAP1 JUMP JUMPDEST PUSH2 0xDB PUSH2 0x1F7 JUMP JUMPDEST PUSH1 0x40 MLOAD PUSH2 0x83 SWAP2 SWAP1 PUSH2 0x3EE JUMP JUMPDEST PUSH2 0x6F PUSH2 0xF6 CALLDATASIZE PUSH1 0x4 PUSH2 0x3C4 JUMP JUMPDEST PUSH1 0x0 PUSH1 0x20 DUP2 DUP2 MSTORE SWAP3 DUP2 MSTORE PUSH1 0x40 DUP1 DUP3 KECCAK256 SWAP1 SWAP4 MSTORE SWAP1 DUP2 MSTORE KECCAK256 SLOAD PUSH1 0x1 PUSH1 0x1 PUSH1 0xA0 SHL SUB AND DUP2 JUMP JUMPDEST PUSH1 0x0 DUP1 DUP7 DUP7 PUSH1 0x40 MLOAD PUSH2 0x12A SWAP1 PUSH2 0x259 JUMP JUMPDEST PUSH2 0x135 SWAP3 SWAP2 SWAP1 PUSH2 0x488 JUMP JUMPDEST PUSH1 0x40 MLOAD DUP1 SWAP2 SUB SWAP1 PUSH1 0x0 CREATE DUP1 ISZERO DUP1 ISZERO PUSH2 0x151 JUMPI RETURNDATASIZE PUSH1 0x0 DUP1 RETURNDATACOPY RETURNDATASIZE PUSH1 0x0 REVERT JUMPDEST POP PUSH1 0x1 PUSH1 0x1 PUSH1 0xA0 SHL SUB DUP1 DUP8 AND PUSH1 0x0 SWAP1 DUP2 MSTORE PUSH1 0x20 DUP2 DUP2 MSTORE PUSH1 0x40 DUP1 DUP4 KECCAK256 DUP10 DUP5 MSTORE SWAP1 SWAP2 MSTORE DUP2 KECCAK256 DUP1 SLOAD SWAP3 DUP5 AND PUSH1 0x1 PUSH1 0x1 PUSH1 0xA0 SHL SUB NOT SWAP4 DUP5 AND DUP2 OR SWAP1 SWAP2 SSTORE PUSH1 0x1 DUP1 SLOAD DUP1 DUP3 ADD DUP3 SSTORE SWAP3 MSTORE PUSH32 0xB10E2D527612073B26EECDFD717E6A320CF44B4AFAC2B0732D9FCBE2B7FA0CF6 SWAP1 SWAP2 ADD DUP1 SLOAD SWAP1 SWAP3 AND OR SWAP1 SSTORE SWAP2 POP POP SWAP6 SWAP5 POP POP POP POP POP JUMP JUMPDEST PUSH1 0x1 DUP2 DUP2 SLOAD DUP2 LT PUSH2 0x1DD JUMPI PUSH1 0x0 DUP1 REVERT JUMPDEST PUSH1 0x0 SWAP2 DUP3 MSTORE PUSH1 0x20 SWAP1 SWAP2 KECCAK256 ADD SLOAD PUSH1 0x1 PUSH1 0x1 PUSH1 0xA0 SHL SUB AND SWAP1 POP DUP2 JUMP JUMPDEST PUSH1 0x60 PUSH1 0x1 DUP1 SLOAD DUP1 PUSH1 0x20 MUL PUSH1 0x20 ADD PUSH1 0x40 MLOAD SWAP1 DUP2 ADD PUSH1 0x40 MSTORE DUP1 SWAP3 SWAP2 SWAP1 DUP2 DUP2 MSTORE PUSH1 0x20 ADD DUP3 DUP1 SLOAD DUP1 ISZERO PUSH2 0x24F JUMPI PUSH1 0x20 MUL DUP3 ADD SWAP2 SWAP1 PUSH1 0x0 MSTORE PUSH1 0x20 PUSH1 0x0 KECCAK256 SWAP1 JUMPDEST DUP2 SLOAD PUSH1 0x1 PUSH1 0x1 PUSH1 0xA0 SHL SUB AND DUP2 MSTORE PUSH1 0x1 SWAP1 SWAP2 ADD SWAP1 PUSH1 0x20 ADD DUP1 DUP4 GT PUSH2 0x231 JUMPI JUMPDEST POP POP POP POP POP SWAP1 POP SWAP1 JUMP JUMPDEST PUSH2 0x1A1E DUP1 PUSH2 0x4B7 DUP4 CODECOPY ADD SWAP1 JUMP JUMPDEST PUSH4 0x4E487B71 PUSH1 0xE0 SHL PUSH1 0x0 MSTORE PUSH1 0x41 PUSH1 0x4 MSTORE PUSH1 0x24 PUSH1 0x0 REVERT JUMPDEST PUSH1 0x0 DUP3 PUSH1 0x1F DUP4 ADD SLT PUSH2 0x28D JUMPI PUSH1 0x0 DUP1 REVERT JUMPDEST DUP2 CALLDATALOAD PUSH8 0xFFFFFFFFFFFFFFFF DUP1 DUP3 GT ISZERO PUSH2 0x2A8 JUMPI PUSH2 0x2A8 PUSH2 0x266 JUMP JUMPDEST PUSH1 0x40 MLOAD PUSH1 0x1F DUP4 ADD PUSH1 0x1F NOT SWAP1 DUP2 AND PUSH1 0x3F ADD AND DUP2 ADD SWAP1 DUP3 DUP3 GT DUP2 DUP4 LT OR ISZERO PUSH2 0x2D0 JUMPI PUSH2 0x2D0 PUSH2 0x266 JUMP JUMPDEST DUP2 PUSH1 0x40 MSTORE DUP4 DUP2 MSTORE DUP7 PUSH1 0x20 DUP6 DUP9 ADD ADD GT ISZERO PUSH2 0x2E9 JUMPI PUSH1 0x0 DUP1 REVERT JUMPDEST DUP4 PUSH1 0x20 DUP8 ADD PUSH1 0x20 DUP4 ADD CALLDATACOPY PUSH1 0x0 PUSH1 0x20 DUP6 DUP4 ADD ADD MSTORE DUP1 SWAP5 POP POP POP POP POP SWAP3 SWAP2 POP POP JUMP JUMPDEST DUP1 CALLDATALOAD PUSH1 0x1 PUSH1 0x1 PUSH1 0xA0 SHL SUB DUP2 AND DUP2 EQ PUSH2 0x320 JUMPI PUSH1 0x0 DUP1 REVERT JUMPDEST SWAP2 SWAP1 POP JUMP JUMPDEST PUSH1 0x0 DUP1 PUSH1 0x0 DUP1 PUSH1 0x0 PUSH1 0xA0 DUP7 DUP9 SUB SLT ISZERO PUSH2 0x33D JUMPI PUSH1 0x0 DUP1 REVERT JUMPDEST DUP6 CALLDATALOAD PUSH8 0xFFFFFFFFFFFFFFFF DUP1 DUP3 GT ISZERO PUSH2 0x355 JUMPI PUSH1 0x0 DUP1 REVERT JUMPDEST PUSH2 0x361 DUP10 DUP4 DUP11 ADD PUSH2 0x27C JUMP JUMPDEST SWAP7 POP PUSH1 0x20 DUP9 ADD CALLDATALOAD SWAP2 POP DUP1 DUP3 GT ISZERO PUSH2 0x377 JUMPI PUSH1 0x0 DUP1 REVERT JUMPDEST POP PUSH2 0x384 DUP9 DUP3 DUP10 ADD PUSH2 0x27C JUMP JUMPDEST SWAP5 POP POP PUSH2 0x393 PUSH1 0x40 DUP8 ADD PUSH2 0x309 JUMP JUMPDEST SWAP5 SWAP8 SWAP4 SWAP7 POP SWAP4 SWAP5 PUSH1 0x60 DUP2 ADD CALLDATALOAD SWAP5 POP PUSH1 0x80 ADD CALLDATALOAD SWAP3 SWAP2 POP POP JUMP JUMPDEST PUSH1 0x0 PUSH1 0x20 DUP3 DUP5 SUB SLT ISZERO PUSH2 0x3BD JUMPI PUSH1 0x0 DUP1 REVERT JUMPDEST POP CALLDATALOAD SWAP2 SWAP1 POP JUMP JUMPDEST PUSH1 0x0 DUP1 PUSH1 0x40 DUP4 DUP6 SUB SLT ISZERO PUSH2 0x3D7 JUMPI PUSH1 0x0 DUP1 REVERT JUMPDEST PUSH2 0x3E0 DUP4 PUSH2 0x309 JUMP JUMPDEST SWAP5 PUSH1 0x20 SWAP4 SWAP1 SWAP4 ADD CALLDATALOAD SWAP4 POP POP POP JUMP JUMPDEST PUSH1 0x20 DUP1 DUP3 MSTORE DUP3 MLOAD DUP3 DUP3 ADD DUP2 SWAP1 MSTORE PUSH1 0x0 SWAP2 SWAP1 DUP5 DUP3 ADD SWAP1 PUSH1 0x40 DUP6 ADD SWAP1 DUP5 JUMPDEST DUP2 DUP2 LT ISZERO PUSH2 0x42F JUMPI DUP4 MLOAD PUSH1 0x1 PUSH1 0x1 PUSH1 0xA0 SHL SUB AND DUP4 MSTORE SWAP3 DUP5 ADD SWAP3 SWAP2 DUP5 ADD SWAP2 PUSH1 0x1 ADD PUSH2 0x40A JUMP JUMPDEST POP SWAP1 SWAP7 SWAP6 POP POP POP POP POP POP JUMP JUMPDEST PUSH1 0x0 DUP2 MLOAD DUP1 DUP5 MSTORE PUSH1 0x0 JUMPDEST DUP2 DUP2 LT ISZERO PUSH2 0x461 JUMPI PUSH1 0x20 DUP2 DUP6 ADD DUP2 ADD MLOAD DUP7 DUP4 ADD DUP3 ADD MSTORE ADD PUSH2 0x445 JUMP JUMPDEST DUP2 DUP2 GT ISZERO PUSH2 0x473 JUMPI PUSH1 0x0 PUSH1 0x20 DUP4 DUP8 ADD ADD MSTORE JUMPDEST POP PUSH1 0x1F ADD PUSH1 0x1F NOT AND SWAP3 SWAP1 SWAP3 ADD PUSH1 0x20 ADD SWAP3 SWAP2 POP POP JUMP JUMPDEST PUSH1 0x40 DUP2 MSTORE PUSH1 0x0 PUSH2 0x49B PUSH1 0x40 DUP4 ADD DUP6 PUSH2 0x43B JUMP JUMPDEST DUP3 DUP2 SUB PUSH1 0x20 DUP5 ADD MSTORE PUSH2 0x4AD DUP2 DUP6 PUSH2 0x43B JUMP JUMPDEST SWAP6 SWAP5 POP POP POP POP POP JUMP INVALID PUSH1 0x80 PUSH1 0x40 MSTORE PUSH1 0x7 DUP1 SLOAD PUSH4 0xFFFFFFFF NOT AND SWAP1 SSTORE CALLVALUE DUP1 ISZERO PUSH3 0x1E JUMPI PUSH1 0x0 DUP1 REVERT JUMPDEST POP PUSH1 0x40 MLOAD PUSH3 0x1A1E CODESIZE SUB DUP1 PUSH3 0x1A1E DUP4 CODECOPY DUP2 ADD PUSH1 0x40 DUP2 SWAP1 MSTORE PUSH3 0x41 SWAP2 PUSH3 0x1EE JUMP JUMPDEST DUP2 MLOAD DUP3 SWAP1 DUP3 SWAP1 PUSH3 0x5A SWAP1 PUSH1 0x3 SWAP1 PUSH1 0x20 DUP6 ADD SWAP1 PUSH3 0x7B JUMP JUMPDEST POP DUP1 MLOAD PUSH3 0x70 SWAP1 PUSH1 0x4 SWAP1 PUSH1 0x20 DUP5 ADD SWAP1 PUSH3 0x7B JUMP JUMPDEST POP POP POP POP POP PUSH3 0x295 JUMP JUMPDEST DUP3 DUP1 SLOAD PUSH3 0x89 SWAP1 PUSH3 0x258 JUMP JUMPDEST SWAP1 PUSH1 0x0 MSTORE PUSH1 0x20 PUSH1 0x0 KECCAK256 SWAP1 PUSH1 0x1F ADD PUSH1 0x20 SWAP1 DIV DUP2 ADD SWAP3 DUP3 PUSH3 0xAD JUMPI PUSH1 0x0 DUP6 SSTORE PUSH3 0xF8 JUMP JUMPDEST DUP3 PUSH1 0x1F LT PUSH3 0xC8 JUMPI DUP1 MLOAD PUSH1 0xFF NOT AND DUP4 DUP1 ADD OR DUP6 SSTORE PUSH3 0xF8 JUMP JUMPDEST DUP3 DUP1 ADD PUSH1 0x1 ADD DUP6 SSTORE DUP3 ISZERO PUSH3 0xF8 JUMPI SWAP2 DUP3 ADD JUMPDEST DUP3 DUP2 GT ISZERO PUSH3 0xF8 JUMPI DUP3 MLOAD DUP3 SSTORE SWAP2 PUSH1 0x20 ADD SWAP2 SWAP1 PUSH1 0x1 ADD SWAP1 PUSH3 0xDB JUMP JUMPDEST POP PUSH3 0x106 SWAP3 SWAP2 POP PUSH3 0x10A JUMP JUMPDEST POP SWAP1 JUMP JUMPDEST JUMPDEST DUP1 DUP3 GT ISZERO PUSH3 0x106 JUMPI PUSH1 0x0 DUP2 SSTORE PUSH1 0x1 ADD PUSH3 0x10B JUMP JUMPDEST PUSH4 0x4E487B71 PUSH1 0xE0 SHL PUSH1 0x0 MSTORE PUSH1 0x41 PUSH1 0x4 MSTORE PUSH1 0x24 PUSH1 0x0 REVERT JUMPDEST PUSH1 0x0 DUP3 PUSH1 0x1F DUP4 ADD SLT PUSH3 0x149 JUMPI PUSH1 0x0 DUP1 REVERT JUMPDEST DUP2 MLOAD PUSH1 0x1 PUSH1 0x1 PUSH1 0x40 SHL SUB DUP1 DUP3 GT ISZERO PUSH3 0x166 JUMPI PUSH3 0x166 PUSH3 0x121 JUMP JUMPDEST PUSH1 0x40 MLOAD PUSH1 0x1F DUP4 ADD PUSH1 0x1F NOT SWAP1 DUP2 AND PUSH1 0x3F ADD AND DUP2 ADD SWAP1 DUP3 DUP3 GT DUP2 DUP4 LT OR ISZERO PUSH3 0x191 JUMPI PUSH3 0x191 PUSH3 0x121 JUMP JUMPDEST DUP2 PUSH1 0x40 MSTORE DUP4 DUP2 MSTORE PUSH1 0x20 SWAP3 POP DUP7 DUP4 DUP6 DUP9 ADD ADD GT ISZERO PUSH3 0x1AE JUMPI PUSH1 0x0 DUP1 REVERT JUMPDEST PUSH1 0x0 SWAP2 POP JUMPDEST DUP4 DUP3 LT ISZERO PUSH3 0x1D2 JUMPI DUP6 DUP3 ADD DUP4 ADD MLOAD DUP2 DUP4 ADD DUP5 ADD MSTORE SWAP1 DUP3 ADD SWAP1 PUSH3 0x1B3 JUMP JUMPDEST DUP4 DUP3 GT ISZERO PUSH3 0x1E4 JUMPI PUSH1 0x0 DUP4 DUP6 DUP4 ADD ADD MSTORE JUMPDEST SWAP7 SWAP6 POP POP POP POP POP POP JUMP JUMPDEST PUSH1 0x0 DUP1 PUSH1 0x40 DUP4 DUP6 SUB SLT ISZERO PUSH3 0x202 JUMPI PUSH1 0x0 DUP1 REVERT JUMPDEST DUP3 MLOAD PUSH1 0x1 PUSH1 0x1 PUSH1 0x40 SHL SUB DUP1 DUP3 GT ISZERO PUSH3 0x21A JUMPI PUSH1 0x0 DUP1 REVERT JUMPDEST PUSH3 0x228 DUP7 DUP4 DUP8 ADD PUSH3 0x137 JUMP JUMPDEST SWAP4 POP PUSH1 0x20 DUP6 ADD MLOAD SWAP2 POP DUP1 DUP3 GT ISZERO PUSH3 0x23F JUMPI PUSH1 0x0 DUP1 REVERT JUMPDEST POP PUSH3 0x24E DUP6 DUP3 DUP7 ADD PUSH3 0x137 JUMP JUMPDEST SWAP2 POP POP SWAP3 POP SWAP3 SWAP1 POP JUMP JUMPDEST PUSH1 0x1 DUP2 DUP2 SHR SWAP1 DUP3 AND DUP1 PUSH3 0x26D JUMPI PUSH1 0x7F DUP3 AND SWAP2 POP JUMPDEST PUSH1 0x20 DUP3 LT DUP2 EQ ISZERO PUSH3 0x28F JUMPI PUSH4 0x4E487B71 PUSH1 0xE0 SHL PUSH1 0x0 MSTORE PUSH1 0x22 PUSH1 0x4 MSTORE PUSH1 0x24 PUSH1 0x0 REVERT JUMPDEST POP SWAP2 SWAP1 POP JUMP JUMPDEST PUSH2 0x1779 DUP1 PUSH3 0x2A5 PUSH1 0x0 CODECOPY PUSH1 0x0 RETURN INVALID PUSH1 0x80 PUSH1 0x40 MSTORE PUSH1 0x4 CALLDATASIZE LT PUSH2 0x1C4 JUMPI PUSH1 0x0 CALLDATALOAD PUSH1 0xE0 SHR DUP1 PUSH4 0x40C10F19 GT PUSH2 0xF6 JUMPI DUP1 PUSH4 0x7FF9B596 GT PUSH2 0x8F JUMPI DUP1 PUSH4 0xDB006A75 GT PUSH2 0x61 JUMPI DUP1 PUSH4 0xDB006A75 EQ PUSH2 0x520 JUMPI DUP1 PUSH4 0xDD62ED3E EQ PUSH2 0x540 JUMPI DUP1 PUSH4 0xF51F96DD EQ PUSH2 0x560 JUMPI DUP1 PUSH4 0xF97ED509 EQ PUSH2 0x576 JUMPI STOP JUMPDEST DUP1 PUSH4 0x7FF9B596 EQ PUSH2 0x4B5 JUMPI DUP1 PUSH4 0x95D89B41 EQ PUSH2 0x4CB JUMPI DUP1 PUSH4 0xA457C2D7 EQ PUSH2 0x4E0 JUMPI DUP1 PUSH4 0xA9059CBB EQ PUSH2 0x500 JUMPI STOP JUMPDEST DUP1 PUSH4 0x613B4D32 GT PUSH2 0xC8 JUMPI DUP1 PUSH4 0x613B4D32 EQ PUSH2 0x41F JUMPI DUP1 PUSH4 0x6AA00371 EQ PUSH2 0x427 JUMPI DUP1 PUSH4 0x70A08231 EQ PUSH2 0x45F JUMPI DUP1 PUSH4 0x7A1AC61E EQ PUSH2 0x495 JUMPI STOP JUMPDEST DUP1 PUSH4 0x40C10F19 EQ PUSH2 0x3AB JUMPI DUP1 PUSH4 0x5347238A EQ PUSH2 0x3CB JUMPI DUP1 PUSH4 0x593B76C7 EQ PUSH2 0x3EB JUMPI DUP1 PUSH4 0x5C474F9E EQ PUSH2 0x400 JUMPI STOP JUMPDEST DUP1 PUSH4 0x1F078CED GT PUSH2 0x168 JUMPI DUP1 PUSH4 0x313CE567 GT PUSH2 0x13A JUMPI DUP1 PUSH4 0x313CE567 EQ PUSH2 0x33A JUMPI DUP1 PUSH4 0x33A543CE EQ PUSH2 0x356 JUMPI DUP1 PUSH4 0x39509351 EQ PUSH2 0x376 JUMPI DUP1 PUSH4 0x3CCFD60B EQ PUSH2 0x396 JUMPI STOP JUMPDEST DUP1 PUSH4 0x1F078CED EQ PUSH2 0x2D1 JUMPI DUP1 PUSH4 0x23B872DD EQ PUSH2 0x2F1 JUMPI DUP1 PUSH4 0x2D296BF1 EQ PUSH2 0x311 JUMPI DUP1 PUSH4 0x2DDBD13A EQ PUSH2 0x324 JUMPI STOP JUMPDEST DUP1 PUSH4 0x150B7A02 GT PUSH2 0x1A1 JUMPI DUP1 PUSH4 0x150B7A02 EQ PUSH2 0x248 JUMPI DUP1 PUSH4 0x158EF93E EQ PUSH2 0x28C JUMPI DUP1 PUSH4 0x17D70F7C EQ PUSH2 0x2A6 JUMPI DUP1 PUSH4 0x18160DDD EQ PUSH2 0x2BC JUMPI STOP JUMPDEST DUP1 PUSH4 0x2C7E7AF EQ PUSH2 0x1CD JUMPI DUP1 PUSH4 0x6FDDE03 EQ PUSH2 0x1F6 JUMPI DUP1 PUSH4 0x95EA7B3 EQ PUSH2 0x218 JUMPI STOP JUMPDEST CALLDATASIZE PUSH2 0x1CB JUMPI STOP JUMPDEST STOP JUMPDEST CALLVALUE DUP1 ISZERO PUSH2 0x1D9 JUMPI PUSH1 0x0 DUP1 REVERT JUMPDEST POP PUSH2 0x1E3 PUSH1 0x8 SLOAD DUP2 JUMP JUMPDEST PUSH1 0x40 MLOAD SWAP1 DUP2 MSTORE PUSH1 0x20 ADD JUMPDEST PUSH1 0x40 MLOAD DUP1 SWAP2 SUB SWAP1 RETURN JUMPDEST CALLVALUE DUP1 ISZERO PUSH2 0x202 JUMPI PUSH1 0x0 DUP1 REVERT JUMPDEST POP PUSH2 0x20B PUSH2 0x597 JUMP JUMPDEST PUSH1 0x40 MLOAD PUSH2 0x1ED SWAP2 SWAP1 PUSH2 0x1418 JUMP JUMPDEST CALLVALUE DUP1 ISZERO PUSH2 0x224 JUMPI PUSH1 0x0 DUP1 REVERT JUMPDEST POP PUSH2 0x238 PUSH2 0x233 CALLDATASIZE PUSH1 0x4 PUSH2 0x1489 JUMP JUMPDEST PUSH2 0x629 JUMP JUMPDEST PUSH1 0x40 MLOAD SWAP1 ISZERO ISZERO DUP2 MSTORE PUSH1 0x20 ADD PUSH2 0x1ED JUMP JUMPDEST CALLVALUE DUP1 ISZERO PUSH2 0x254 JUMPI PUSH1 0x0 DUP1 REVERT JUMPDEST POP PUSH2 0x273 PUSH2 0x263 CALLDATASIZE PUSH1 0x4 PUSH2 0x14C9 JUMP JUMPDEST PUSH4 0xA85BD01 PUSH1 0xE1 SHL SWAP5 SWAP4 POP POP POP POP JUMP JUMPDEST PUSH1 0x40 MLOAD PUSH1 0x1 PUSH1 0x1 PUSH1 0xE0 SHL SUB NOT SWAP1 SWAP2 AND DUP2 MSTORE PUSH1 0x20 ADD PUSH2 0x1ED JUMP JUMPDEST CALLVALUE DUP1 ISZERO PUSH2 0x298 JUMPI PUSH1 0x0 DUP1 REVERT JUMPDEST POP PUSH1 0x7 SLOAD PUSH2 0x238 SWAP1 PUSH1 0xFF AND DUP2 JUMP JUMPDEST CALLVALUE DUP1 ISZERO PUSH2 0x2B2 JUMPI PUSH1 0x0 DUP1 REVERT JUMPDEST POP PUSH2 0x1E3 PUSH1 0x6 SLOAD DUP2 JUMP JUMPDEST CALLVALUE DUP1 ISZERO PUSH2 0x2C8 JUMPI PUSH1 0x0 DUP1 REVERT JUMPDEST POP PUSH1 0x2 SLOAD PUSH2 0x1E3 JUMP JUMPDEST CALLVALUE DUP1 ISZERO PUSH2 0x2DD JUMPI PUSH1 0x0 DUP1 REVERT JUMPDEST POP PUSH2 0x1CB PUSH2 0x2EC CALLDATASIZE PUSH1 0x4 PUSH2 0x15A5 JUMP JUMPDEST PUSH2 0x641 JUMP JUMPDEST CALLVALUE DUP1 ISZERO PUSH2 0x2FD JUMPI PUSH1 0x0 DUP1 REVERT JUMPDEST POP PUSH2 0x238 PUSH2 0x30C CALLDATASIZE PUSH1 0x4 PUSH2 0x15BE JUMP JUMPDEST PUSH2 0x6EF JUMP JUMPDEST PUSH2 0x1CB PUSH2 0x31F CALLDATASIZE PUSH1 0x4 PUSH2 0x15A5 JUMP JUMPDEST PUSH2 0x713 JUMP JUMPDEST CALLVALUE DUP1 ISZERO PUSH2 0x330 JUMPI PUSH1 0x0 DUP1 REVERT JUMPDEST POP PUSH2 0x1E3 PUSH1 0x9 SLOAD DUP2 JUMP JUMPDEST CALLVALUE DUP1 ISZERO PUSH2 0x346 JUMPI PUSH1 0x0 DUP1 REVERT JUMPDEST POP PUSH1 0x40 MLOAD PUSH1 0x12 DUP2 MSTORE PUSH1 0x20 ADD PUSH2 0x1ED JUMP JUMPDEST CALLVALUE DUP1 ISZERO PUSH2 0x362 JUMPI PUSH1 0x0 DUP1 REVERT JUMPDEST POP PUSH1 0x7 SLOAD PUSH2 0x238 SWAP1 PUSH3 0x10000 SWAP1 DIV PUSH1 0xFF AND DUP2 JUMP JUMPDEST CALLVALUE DUP1 ISZERO PUSH2 0x382 JUMPI PUSH1 0x0 DUP1 REVERT JUMPDEST POP PUSH2 0x238 PUSH2 0x391 CALLDATASIZE PUSH1 0x4 PUSH2 0x1489 JUMP JUMPDEST PUSH2 0x84E JUMP JUMPDEST CALLVALUE DUP1 ISZERO PUSH2 0x3A2 JUMPI PUSH1 0x0 DUP1 REVERT JUMPDEST POP PUSH2 0x1CB PUSH2 0x870 JUMP JUMPDEST CALLVALUE DUP1 ISZERO PUSH2 0x3B7 JUMPI PUSH1 0x0 DUP1 REVERT JUMPDEST POP PUSH2 0x1CB PUSH2 0x3C6 CALLDATASIZE PUSH1 0x4 PUSH2 0x1489 JUMP JUMPDEST PUSH2 0x967 JUMP JUMPDEST CALLVALUE DUP1 ISZERO PUSH2 0x3D7 JUMPI PUSH1 0x0 DUP1 REVERT JUMPDEST POP PUSH2 0x1CB PUSH2 0x3E6 CALLDATASIZE PUSH1 0x4 PUSH2 0x15A5 JUMP JUMPDEST PUSH2 0x975 JUMP JUMPDEST CALLVALUE DUP1 ISZERO PUSH2 0x3F7 JUMPI PUSH1 0x0 DUP1 REVERT JUMPDEST POP PUSH2 0x1CB PUSH2 0xA0F JUMP JUMPDEST CALLVALUE DUP1 ISZERO PUSH2 0x40C JUMPI PUSH1 0x0 DUP1 REVERT JUMPDEST POP PUSH1 0x7 SLOAD PUSH2 0x238 SWAP1 PUSH2 0x100 SWAP1 DIV PUSH1 0xFF AND DUP2 JUMP JUMPDEST PUSH2 0x1CB PUSH2 0xA9E JUMP JUMPDEST CALLVALUE DUP1 ISZERO PUSH2 0x433 JUMPI PUSH1 0x0 DUP1 REVERT JUMPDEST POP PUSH1 0x5 SLOAD PUSH2 0x447 SWAP1 PUSH1 0x1 PUSH1 0x1 PUSH1 0xA0 SHL SUB AND DUP2 JUMP JUMPDEST PUSH1 0x40 MLOAD PUSH1 0x1 PUSH1 0x1 PUSH1 0xA0 SHL SUB SWAP1 SWAP2 AND DUP2 MSTORE PUSH1 0x20 ADD PUSH2 0x1ED JUMP JUMPDEST CALLVALUE DUP1 ISZERO PUSH2 0x46B JUMPI PUSH1 0x0 DUP1 REVERT JUMPDEST POP PUSH2 0x1E3 PUSH2 0x47A CALLDATASIZE PUSH1 0x4 PUSH2 0x15FA JUMP JUMPDEST PUSH1 0x1 PUSH1 0x1 PUSH1 0xA0 SHL SUB AND PUSH1 0x0 SWAP1 DUP2 MSTORE PUSH1 0x20 DUP2 SWAP1 MSTORE PUSH1 0x40 SWAP1 KECCAK256 SLOAD SWAP1 JUMP JUMPDEST CALLVALUE DUP1 ISZERO PUSH2 0x4A1 JUMPI PUSH1 0x0 DUP1 REVERT JUMPDEST POP PUSH2 0x1CB PUSH2 0x4B0 CALLDATASIZE PUSH1 0x4 PUSH2 0x161C JUMP JUMPDEST PUSH2 0xBEB JUMP JUMPDEST CALLVALUE DUP1 ISZERO PUSH2 0x4C1 JUMPI PUSH1 0x0 DUP1 REVERT JUMPDEST POP PUSH2 0x1E3 PUSH1 0xB SLOAD DUP2 JUMP JUMPDEST CALLVALUE DUP1 ISZERO PUSH2 0x4D7 JUMPI PUSH1 0x0 DUP1 REVERT JUMPDEST POP PUSH2 0x20B PUSH2 0xD16 JUMP JUMPDEST CALLVALUE DUP1 ISZERO PUSH2 0x4EC JUMPI PUSH1 0x0 DUP1 REVERT JUMPDEST POP PUSH2 0x238 PUSH2 0x4FB CALLDATASIZE PUSH1 0x4 PUSH2 0x1489 JUMP JUMPDEST PUSH2 0xD25 JUMP JUMPDEST CALLVALUE DUP1 ISZERO PUSH2 0x50C JUMPI PUSH1 0x0 DUP1 REVERT JUMPDEST POP PUSH2 0x238 PUSH2 0x51B CALLDATASIZE PUSH1 0x4 PUSH2 0x1489 JUMP JUMPDEST PUSH2 0xDA0 JUMP JUMPDEST CALLVALUE DUP1 ISZERO PUSH2 0x52C JUMPI PUSH1 0x0 DUP1 REVERT JUMPDEST POP PUSH2 0x1CB PUSH2 0x53B CALLDATASIZE PUSH1 0x4 PUSH2 0x15A5 JUMP JUMPDEST PUSH2 0xDAE JUMP JUMPDEST CALLVALUE DUP1 ISZERO PUSH2 0x54C JUMPI PUSH1 0x0 DUP1 REVERT JUMPDEST POP PUSH2 0x1E3 PUSH2 0x55B CALLDATASIZE PUSH1 0x4 PUSH2 0x164F JUMP JUMPDEST PUSH2 0xE5A JUMP JUMPDEST CALLVALUE DUP1 ISZERO PUSH2 0x56C JUMPI PUSH1 0x0 DUP1 REVERT JUMPDEST POP PUSH2 0x1E3 PUSH1 0xA SLOAD DUP2 JUMP JUMPDEST CALLVALUE DUP1 ISZERO PUSH2 0x582 JUMPI PUSH1 0x0 DUP1 REVERT JUMPDEST POP PUSH1 0x7 SLOAD PUSH2 0x238 SWAP1 PUSH4 0x1000000 SWAP1 DIV PUSH1 0xFF AND DUP2 JUMP JUMPDEST PUSH1 0x60 PUSH1 0x3 DUP1 SLOAD PUSH2 0x5A6 SWAP1 PUSH2 0x1682 JUMP JUMPDEST DUP1 PUSH1 0x1F ADD PUSH1 0x20 DUP1 SWAP2 DIV MUL PUSH1 0x20 ADD PUSH1 0x40 MLOAD SWAP1 DUP2 ADD PUSH1 0x40 MSTORE DUP1 SWAP3 SWAP2 SWAP1 DUP2 DUP2 MSTORE PUSH1 0x20 ADD DUP3 DUP1 SLOAD PUSH2 0x5D2 SWAP1 PUSH2 0x1682 JUMP JUMPDEST DUP1 ISZERO PUSH2 0x61F JUMPI DUP1 PUSH1 0x1F LT PUSH2 0x5F4 JUMPI PUSH2 0x100 DUP1 DUP4 SLOAD DIV MUL DUP4 MSTORE SWAP2 PUSH1 0x20 ADD SWAP2 PUSH2 0x61F JUMP JUMPDEST DUP3 ADD SWAP2 SWAP1 PUSH1 0x0 MSTORE PUSH1 0x20 PUSH1 0x0 KECCAK256 SWAP1 JUMPDEST DUP2 SLOAD DUP2 MSTORE SWAP1 PUSH1 0x1 ADD SWAP1 PUSH1 0x20 ADD DUP1 DUP4 GT PUSH2 0x602 JUMPI DUP3 SWAP1 SUB PUSH1 0x1F AND DUP3 ADD SWAP2 JUMPDEST POP POP POP POP POP SWAP1 POP SWAP1 JUMP JUMPDEST PUSH1 0x0 CALLER PUSH2 0x637 DUP2 DUP6 DUP6 PUSH2 0xE85 JUMP JUMPDEST POP PUSH1 0x1 SWAP4 SWAP3 POP POP POP JUMP JUMPDEST PUSH1 0x7 SLOAD PUSH3 0x10000 SWAP1 DIV PUSH1 0xFF AND PUSH2 0x69E JUMPI PUSH1 0x40 MLOAD PUSH3 0x461BCD PUSH1 0xE5 SHL DUP2 MSTORE PUSH1 0x20 PUSH1 0x4 DUP3 ADD MSTORE PUSH1 0x1C PUSH1 0x24 DUP3 ADD MSTORE PUSH32 0x546F6B656E2073616C65206E6F7420636F6D706C657465642079657400000000 PUSH1 0x44 DUP3 ADD MSTORE PUSH1 0x64 ADD JUMPDEST PUSH1 0x40 MLOAD DUP1 SWAP2 SUB SWAP1 REVERT JUMPDEST PUSH1 0xA DUP2 SWAP1 SSTORE PUSH1 0x7 DUP1 SLOAD PUSH2 0xFF00 NOT AND PUSH2 0x100 OR SWAP1 SSTORE PUSH1 0x40 MLOAD PUSH32 0x94F8C8908C1DBD658CE08B602B9A461C5C57666F9F66E5B5ABC8F7821E04CC60 SWAP1 PUSH2 0x6E4 SWAP1 DUP4 DUP2 MSTORE PUSH1 0x20 ADD SWAP1 JUMP JUMPDEST PUSH1 0x40 MLOAD DUP1 SWAP2 SUB SWAP1 LOG1 POP JUMP JUMPDEST PUSH1 0x0 CALLER PUSH2 0x6FD DUP6 DUP3 DUP6 PUSH2 0xFA9 JUMP JUMPDEST PUSH2 0x708 DUP6 DUP6 DUP6 PUSH2 0x101D JUMP JUMPDEST POP PUSH1 0x1 SWAP5 SWAP4 POP POP POP POP JUMP JUMPDEST PUSH1 0x7 SLOAD PUSH3 0x10000 SWAP1 DIV PUSH1 0xFF AND PUSH2 0x75B JUMPI PUSH1 0x40 MLOAD PUSH3 0x461BCD PUSH1 0xE5 SHL DUP2 MSTORE PUSH1 0x20 PUSH1 0x4 DUP3 ADD MSTORE PUSH1 0xD PUSH1 0x24 DUP3 ADD MSTORE PUSH13 0x4E6F7420666F722073616C6521 PUSH1 0x98 SHL PUSH1 0x44 DUP3 ADD MSTORE PUSH1 0x64 ADD PUSH2 0x695 JUMP JUMPDEST PUSH1 0x9 SLOAD DUP2 GT ISZERO PUSH2 0x7A6 JUMPI PUSH1 0x40 MLOAD PUSH3 0x461BCD PUSH1 0xE5 SHL DUP2 MSTORE PUSH1 0x20 PUSH1 0x4 DUP3 ADD MSTORE PUSH1 0x16 PUSH1 0x24 DUP3 ADD MSTORE PUSH22 0x151BDAD95B88185B5BDD5B9D081A5B98DBDC9C9958DD PUSH1 0x52 SHL PUSH1 0x44 DUP3 ADD MSTORE PUSH1 0x64 ADD PUSH2 0x695 JUMP JUMPDEST DUP1 PUSH1 0xB SLOAD PUSH2 0x7B4 SWAP2 SWAP1 PUSH2 0x16D3 JUMP JUMPDEST CALLVALUE LT ISZERO PUSH2 0x7FC JUMPI PUSH1 0x40 MLOAD PUSH3 0x461BCD PUSH1 0xE5 SHL DUP2 MSTORE PUSH1 0x20 PUSH1 0x4 DUP3 ADD MSTORE PUSH1 0x16 PUSH1 0x24 DUP3 ADD MSTORE PUSH22 0x139BDD08195B9BDD59DA08185B5BDD5B9D081CD95B9D PUSH1 0x52 SHL PUSH1 0x44 DUP3 ADD MSTORE PUSH1 0x64 ADD PUSH2 0x695 JUMP JUMPDEST DUP1 PUSH1 0x8 PUSH1 0x0 DUP3 DUP3 SLOAD PUSH2 0x80E SWAP2 SWAP1 PUSH2 0x16F2 JUMP JUMPDEST SWAP1 SWAP2 SSTORE POP PUSH2 0x81E SWAP1 POP CALLER DUP3 PUSH2 0x11EB JUMP JUMPDEST PUSH1 0x40 MLOAD DUP2 DUP2 MSTORE PUSH32 0xFD5E60D339FE12C15225961FFC5E18B853411F5CA458C38ACF2946AC25779CAF SWAP1 PUSH1 0x20 ADD PUSH2 0x6E4 JUMP JUMPDEST PUSH1 0x0 CALLER PUSH2 0x637 DUP2 DUP6 DUP6 PUSH2 0x861 DUP4 DUP4 PUSH2 0xE5A JUMP JUMPDEST PUSH2 0x86B SWAP2 SWAP1 PUSH2 0x16F2 JUMP JUMPDEST PUSH2 0xE85 JUMP JUMPDEST PUSH1 0x2 SLOAD ISZERO PUSH2 0x8CF JUMPI PUSH1 0x40 MLOAD PUSH3 0x461BCD PUSH1 0xE5 SHL DUP2 MSTORE PUSH1 0x20 PUSH1 0x4 DUP3 ADD MSTORE PUSH1 0x26 PUSH1 0x24 DUP3 ADD MSTORE PUSH32 0x416C6C20746F6B656E20686F6C646572732068617665206E6F7420636C61696D PUSH1 0x44 DUP3 ADD MSTORE PUSH6 0x1959081E595D PUSH1 0xD2 SHL PUSH1 0x64 DUP3 ADD MSTORE PUSH1 0x84 ADD PUSH2 0x695 JUMP JUMPDEST PUSH1 0x40 MLOAD CALLER SWAP1 SELFBALANCE SWAP1 PUSH1 0x0 SWAP1 DUP4 SWAP1 DUP4 SWAP1 DUP4 DUP2 DUP2 DUP2 DUP6 DUP8 GAS CALL SWAP3 POP POP POP RETURNDATASIZE DUP1 PUSH1 0x0 DUP2 EQ PUSH2 0x915 JUMPI PUSH1 0x40 MLOAD SWAP2 POP PUSH1 0x1F NOT PUSH1 0x3F RETURNDATASIZE ADD AND DUP3 ADD PUSH1 0x40 MSTORE RETURNDATASIZE DUP3 MSTORE RETURNDATASIZE PUSH1 0x0 PUSH1 0x20 DUP5 ADD RETURNDATACOPY PUSH2 0x91A JUMP JUMPDEST PUSH1 0x60 SWAP2 POP JUMPDEST POP POP SWAP1 POP DUP1 PUSH2 0x962 JUMPI PUSH1 0x40 MLOAD PUSH3 0x461BCD PUSH1 0xE5 SHL DUP2 MSTORE PUSH1 0x20 PUSH1 0x4 DUP3 ADD MSTORE PUSH1 0x14 PUSH1 0x24 DUP3 ADD MSTORE PUSH20 0x2330B4B632B2103A379039B2B7321022BA3432B9 PUSH1 0x61 SHL PUSH1 0x44 DUP3 ADD MSTORE PUSH1 0x64 ADD PUSH2 0x695 JUMP JUMPDEST POP POP POP JUMP JUMPDEST PUSH2 0x971 DUP3 DUP3 PUSH2 0x11EB JUMP JUMPDEST POP POP JUMP JUMPDEST PUSH1 0x7 SLOAD PUSH1 0xFF AND PUSH2 0x9C7 JUMPI PUSH1 0x40 MLOAD PUSH3 0x461BCD PUSH1 0xE5 SHL DUP2 MSTORE PUSH1 0x20 PUSH1 0x4 DUP3 ADD MSTORE PUSH1 0x19 PUSH1 0x24 DUP3 ADD MSTORE PUSH32 0x546F6B656E206E6F7420696E697469616C697A65642079657400000000000000 PUSH1 0x44 DUP3 ADD MSTORE PUSH1 0x64 ADD PUSH2 0x695 JUMP JUMPDEST PUSH1 0x7 DUP1 SLOAD PUSH3 0xFF0000 NOT AND PUSH3 0x10000 OR SWAP1 SSTORE PUSH1 0xB DUP2 SWAP1 SSTORE PUSH1 0x40 MLOAD PUSH32 0x433F912FF14339886272D9FD787778E49026C79098AC8EB954BF1034B69AD2F7 SWAP1 PUSH2 0x6E4 SWAP1 DUP4 DUP2 MSTORE PUSH1 0x20 ADD SWAP1 JUMP JUMPDEST PUSH1 0x7 SLOAD PUSH3 0x10000 SWAP1 DIV PUSH1 0xFF AND PUSH2 0xA67 JUMPI PUSH1 0x40 MLOAD PUSH3 0x461BCD PUSH1 0xE5 SHL DUP2 MSTORE PUSH1 0x20 PUSH1 0x4 DUP3 ADD MSTORE PUSH1 0x19 PUSH1 0x24 DUP3 ADD MSTORE PUSH32 0x546F6B656E2073616C6520616C726561647920636C6F73656400000000000000 PUSH1 0x44 DUP3 ADD MSTORE PUSH1 0x64 ADD PUSH2 0x695 JUMP JUMPDEST PUSH1 0x7 DUP1 SLOAD PUSH3 0xFF0000 NOT AND SWAP1 SSTORE PUSH1 0x40 MLOAD PUSH32 0x8A540784CF148F0FEB41E2FDF0AE2D9E6B6E714C4B62C2295D74671F9C6B3D5F SWAP1 PUSH1 0x0 SWAP1 LOG1 JUMP JUMPDEST PUSH1 0x7 SLOAD PUSH2 0x100 SWAP1 DIV PUSH1 0xFF AND PUSH2 0xAE5 JUMPI PUSH1 0x40 MLOAD PUSH3 0x461BCD PUSH1 0xE5 SHL DUP2 MSTORE PUSH1 0x20 PUSH1 0x4 DUP3 ADD MSTORE PUSH1 0xD PUSH1 0x24 DUP3 ADD MSTORE PUSH13 0x4E6F7420666F722073616C6521 PUSH1 0x98 SHL PUSH1 0x44 DUP3 ADD MSTORE PUSH1 0x64 ADD PUSH2 0x695 JUMP JUMPDEST PUSH1 0xA SLOAD CALLVALUE LT ISZERO PUSH2 0xB30 JUMPI PUSH1 0x40 MLOAD PUSH3 0x461BCD PUSH1 0xE5 SHL DUP2 MSTORE PUSH1 0x20 PUSH1 0x4 DUP3 ADD MSTORE PUSH1 0x16 PUSH1 0x24 DUP3 ADD MSTORE PUSH22 0x139BDD08195B9BDD59DA08185B5BDD5B9D081CD95B9D PUSH1 0x52 SHL PUSH1 0x44 DUP3 ADD MSTORE PUSH1 0x64 ADD PUSH2 0x695 JUMP JUMPDEST PUSH1 0x5 SLOAD PUSH1 0x6 SLOAD PUSH1 0x40 MLOAD PUSH4 0x23B872DD PUSH1 0xE0 SHL DUP2 MSTORE ADDRESS PUSH1 0x4 DUP3 ADD MSTORE CALLER PUSH1 0x24 DUP3 ADD MSTORE PUSH1 0x44 DUP2 ADD SWAP2 SWAP1 SWAP2 MSTORE PUSH1 0x1 PUSH1 0x1 PUSH1 0xA0 SHL SUB SWAP1 SWAP2 AND SWAP1 PUSH4 0x23B872DD SWAP1 PUSH1 0x64 ADD PUSH1 0x0 PUSH1 0x40 MLOAD DUP1 DUP4 SUB DUP2 PUSH1 0x0 DUP8 DUP1 EXTCODESIZE ISZERO DUP1 ISZERO PUSH2 0xB86 JUMPI PUSH1 0x0 DUP1 REVERT JUMPDEST POP GAS CALL ISZERO DUP1 ISZERO PUSH2 0xB9A JUMPI RETURNDATASIZE PUSH1 0x0 DUP1 RETURNDATACOPY RETURNDATASIZE PUSH1 0x0 REVERT JUMPDEST POP POP PUSH1 0x7 DUP1 SLOAD PUSH4 0xFF00FF00 NOT AND PUSH4 0x1000000 OR SWAP1 SSTORE POP POP PUSH1 0x40 DUP1 MLOAD CALLVALUE DUP2 MSTORE CALLER PUSH1 0x20 DUP3 ADD MSTORE PUSH32 0x9CF94036B63590F8BB7BA01DEBC7A1BB8F67EA2B6B26FCB1DCD21E5B5F09C62C SWAP2 ADD PUSH1 0x40 MLOAD DUP1 SWAP2 SUB SWAP1 LOG1 JUMP JUMPDEST PUSH1 0x7 SLOAD PUSH1 0xFF AND ISZERO PUSH2 0xC33 JUMPI PUSH1 0x40 MLOAD PUSH3 0x461BCD PUSH1 0xE5 SHL DUP2 MSTORE PUSH1 0x20 PUSH1 0x4 DUP3 ADD MSTORE PUSH1 0x12 PUSH1 0x24 DUP3 ADD MSTORE PUSH18 0x105B1C9958591E481A5B9A5D185B1A5E9959 PUSH1 0x72 SHL PUSH1 0x44 DUP3 ADD MSTORE PUSH1 0x64 ADD PUSH2 0x695 JUMP JUMPDEST PUSH1 0x5 DUP1 SLOAD PUSH1 0x1 PUSH1 0x1 PUSH1 0xA0 SHL SUB NOT AND PUSH1 0x1 PUSH1 0x1 PUSH1 0xA0 SHL SUB DUP6 AND SWAP1 DUP2 OR SWAP1 SWAP2 SSTORE PUSH1 0x40 MLOAD PUSH4 0x21421707 PUSH1 0xE1 SHL DUP2 MSTORE CALLER PUSH1 0x4 DUP3 ADD MSTORE ADDRESS PUSH1 0x24 DUP3 ADD MSTORE PUSH1 0x44 DUP2 ADD DUP5 SWAP1 MSTORE PUSH4 0x42842E0E SWAP1 PUSH1 0x64 ADD PUSH1 0x0 PUSH1 0x40 MLOAD DUP1 DUP4 SUB DUP2 PUSH1 0x0 DUP8 DUP1 EXTCODESIZE ISZERO DUP1 ISZERO PUSH2 0xC94 JUMPI PUSH1 0x0 DUP1 REVERT JUMPDEST POP GAS CALL ISZERO DUP1 ISZERO PUSH2 0xCA8 JUMPI RETURNDATASIZE PUSH1 0x0 DUP1 RETURNDATACOPY RETURNDATASIZE PUSH1 0x0 REVERT JUMPDEST POP POP POP PUSH1 0x6 DUP4 SWAP1 SSTORE POP PUSH1 0x7 DUP1 SLOAD PUSH3 0xFF00FF NOT AND PUSH3 0x10001 OR SWAP1 SSTORE PUSH1 0x9 DUP2 SWAP1 SSTORE PUSH1 0x40 DUP1 MLOAD PUSH1 0x1 PUSH1 0x1 PUSH1 0xA0 SHL SUB DUP6 AND DUP2 MSTORE PUSH1 0x20 DUP2 ADD DUP5 SWAP1 MSTORE SWAP1 DUP2 ADD DUP3 SWAP1 MSTORE PUSH32 0x6622D3E86784CCB284B99D669FC14F025BA31AAA7933E11FAE4191ED86634AA9 SWAP1 PUSH1 0x60 ADD PUSH1 0x40 MLOAD DUP1 SWAP2 SUB SWAP1 LOG1 POP POP POP JUMP JUMPDEST PUSH1 0x60 PUSH1 0x4 DUP1 SLOAD PUSH2 0x5A6 SWAP1 PUSH2 0x1682 JUMP JUMPDEST PUSH1 0x0 CALLER DUP2 PUSH2 0xD33 DUP3 DUP7 PUSH2 0xE5A JUMP JUMPDEST SWAP1 POP DUP4 DUP2 LT ISZERO PUSH2 0xD93 JUMPI PUSH1 0x40 MLOAD PUSH3 0x461BCD PUSH1 0xE5 SHL DUP2 MSTORE PUSH1 0x20 PUSH1 0x4 DUP3 ADD MSTORE PUSH1 0x25 PUSH1 0x24 DUP3 ADD MSTORE PUSH32 0x45524332303A2064656372656173656420616C6C6F77616E63652062656C6F77 PUSH1 0x44 DUP3 ADD MSTORE PUSH5 0x207A65726F PUSH1 0xD8 SHL PUSH1 0x64 DUP3 ADD MSTORE PUSH1 0x84 ADD PUSH2 0x695 JUMP JUMPDEST PUSH2 0x708 DUP3 DUP7 DUP7 DUP5 SUB PUSH2 0xE85 JUMP JUMPDEST PUSH1 0x0 CALLER PUSH2 0x637 DUP2 DUP6 DUP6 PUSH2 0x101D JUMP JUMPDEST PUSH1 0x7 SLOAD PUSH4 0x1000000 SWAP1 DIV PUSH1 0xFF AND PUSH2 0xDFB JUMPI PUSH1 0x40 MLOAD PUSH3 0x461BCD PUSH1 0xE5 SHL DUP2 MSTORE PUSH1 0x20 PUSH1 0x4 DUP3 ADD MSTORE PUSH1 0x11 PUSH1 0x24 DUP3 ADD MSTORE PUSH17 0x596F752063616E6E6F742072656465656D PUSH1 0x78 SHL PUSH1 0x44 DUP3 ADD MSTORE PUSH1 0x64 ADD PUSH2 0x695 JUMP JUMPDEST SELFBALANCE PUSH1 0x0 PUSH2 0xE07 PUSH1 0x2 SLOAD SWAP1 JUMP JUMPDEST PUSH2 0xE11 DUP4 DUP6 PUSH2 0x16D3 JUMP JUMPDEST PUSH2 0xE1B SWAP2 SWAP1 PUSH2 0x170A JUMP JUMPDEST SWAP1 POP PUSH2 0xE27 CALLER DUP5 PUSH2 0x12CA JUMP JUMPDEST PUSH1 0x40 MLOAD CALLER SWAP1 DUP3 ISZERO PUSH2 0x8FC MUL SWAP1 DUP4 SWAP1 PUSH1 0x0 DUP2 DUP2 DUP2 DUP6 DUP9 DUP9 CALL SWAP4 POP POP POP POP ISZERO DUP1 ISZERO PUSH2 0xE54 JUMPI RETURNDATASIZE PUSH1 0x0 DUP1 RETURNDATACOPY RETURNDATASIZE PUSH1 0x0 REVERT JUMPDEST POP POP POP POP JUMP JUMPDEST PUSH1 0x1 PUSH1 0x1 PUSH1 0xA0 SHL SUB SWAP2 DUP3 AND PUSH1 0x0 SWAP1 DUP2 MSTORE PUSH1 0x1 PUSH1 0x20 SWAP1 DUP2 MSTORE PUSH1 0x40 DUP1 DUP4 KECCAK256 SWAP4 SWAP1 SWAP5 AND DUP3 MSTORE SWAP2 SWAP1 SWAP2 MSTORE KECCAK256 SLOAD SWAP1 JUMP JUMPDEST PUSH1 0x1 PUSH1 0x1 PUSH1 0xA0 SHL SUB DUP4 AND PUSH2 0xEE7 JUMPI PUSH1 0x40 MLOAD PUSH3 0x461BCD PUSH1 0xE5 SHL DUP2 MSTORE PUSH1 0x20 PUSH1 0x4 DUP3 ADD MSTORE PUSH1 0x24 DUP1 DUP3 ADD MSTORE PUSH32 0x45524332303A20617070726F76652066726F6D20746865207A65726F20616464 PUSH1 0x44 DUP3 ADD MSTORE PUSH4 0x72657373 PUSH1 0xE0 SHL PUSH1 0x64 DUP3 ADD MSTORE PUSH1 0x84 ADD PUSH2 0x695 JUMP JUMPDEST PUSH1 0x1 PUSH1 0x1 PUSH1 0xA0 SHL SUB DUP3 AND PUSH2 0xF48 JUMPI PUSH1 0x40 MLOAD PUSH3 0x461BCD PUSH1 0xE5 SHL DUP2 MSTORE PUSH1 0x20 PUSH1 0x4 DUP3 ADD MSTORE PUSH1 0x22 PUSH1 0x24 DUP3 ADD MSTORE PUSH32 0x45524332303A20617070726F766520746F20746865207A65726F206164647265 PUSH1 0x44 DUP3 ADD MSTORE PUSH2 0x7373 PUSH1 0xF0 SHL PUSH1 0x64 DUP3 ADD MSTORE PUSH1 0x84 ADD PUSH2 0x695 JUMP JUMPDEST PUSH1 0x1 PUSH1 0x1 PUSH1 0xA0 SHL SUB DUP4 DUP2 AND PUSH1 0x0 DUP2 DUP2 MSTORE PUSH1 0x1 PUSH1 0x20 SWAP1 DUP2 MSTORE PUSH1 0x40 DUP1 DUP4 KECCAK256 SWAP5 DUP8 AND DUP1 DUP5 MSTORE SWAP5 DUP3 MSTORE SWAP2 DUP3 SWAP1 KECCAK256 DUP6 SWAP1 SSTORE SWAP1 MLOAD DUP5 DUP2 MSTORE PUSH32 0x8C5BE1E5EBEC7D5BD14F71427D1E84F3DD0314C0F7B2291E5B200AC8C7C3B925 SWAP2 ADD PUSH1 0x40 MLOAD DUP1 SWAP2 SUB SWAP1 LOG3 POP POP POP JUMP JUMPDEST PUSH1 0x0 PUSH2 0xFB5 DUP5 DUP5 PUSH2 0xE5A JUMP JUMPDEST SWAP1 POP PUSH1 0x0 NOT DUP2 EQ PUSH2 0xE54 JUMPI DUP2 DUP2 LT ISZERO PUSH2 0x1010 JUMPI PUSH1 0x40 MLOAD PUSH3 0x461BCD PUSH1 0xE5 SHL DUP2 MSTORE PUSH1 0x20 PUSH1 0x4 DUP3 ADD MSTORE PUSH1 0x1D PUSH1 0x24 DUP3 ADD MSTORE PUSH32 0x45524332303A20696E73756666696369656E7420616C6C6F77616E6365000000 PUSH1 0x44 DUP3 ADD MSTORE PUSH1 0x64 ADD PUSH2 0x695 JUMP JUMPDEST PUSH2 0xE54 DUP5 DUP5 DUP5 DUP5 SUB PUSH2 0xE85 JUMP JUMPDEST PUSH1 0x1 PUSH1 0x1 PUSH1 0xA0 SHL SUB DUP4 AND PUSH2 0x1081 JUMPI PUSH1 0x40 MLOAD PUSH3 0x461BCD PUSH1 0xE5 SHL DUP2 MSTORE PUSH1 0x20 PUSH1 0x4 DUP3 ADD MSTORE PUSH1 0x25 PUSH1 0x24 DUP3 ADD MSTORE PUSH32 0x45524332303A207472616E736665722066726F6D20746865207A65726F206164 PUSH1 0x44 DUP3 ADD MSTORE PUSH5 0x6472657373 PUSH1 0xD8 SHL PUSH1 0x64 DUP3 ADD MSTORE PUSH1 0x84 ADD PUSH2 0x695 JUMP JUMPDEST PUSH1 0x1 PUSH1 0x1 PUSH1 0xA0 SHL SUB DUP3 AND PUSH2 0x10E3 JUMPI PUSH1 0x40 MLOAD PUSH3 0x461BCD PUSH1 0xE5 SHL DUP2 MSTORE PUSH1 0x20 PUSH1 0x4 DUP3 ADD MSTORE PUSH1 0x23 PUSH1 0x24 DUP3 ADD MSTORE PUSH32 0x45524332303A207472616E7366657220746F20746865207A65726F2061646472 PUSH1 0x44 DUP3 ADD MSTORE PUSH3 0x657373 PUSH1 0xE8 SHL PUSH1 0x64 DUP3 ADD MSTORE PUSH1 0x84 ADD PUSH2 0x695 JUMP JUMPDEST PUSH1 0x1 PUSH1 0x1 PUSH1 0xA0 SHL SUB DUP4 AND PUSH1 0x0 SWAP1 DUP2 MSTORE PUSH1 0x20 DUP2 SWAP1 MSTORE PUSH1 0x40 SWAP1 KECCAK256 SLOAD DUP2 DUP2 LT ISZERO PUSH2 0x115B JUMPI PUSH1 0x40 MLOAD PUSH3 0x461BCD PUSH1 0xE5 SHL DUP2 MSTORE PUSH1 0x20 PUSH1 0x4 DUP3 ADD MSTORE PUSH1 0x26 PUSH1 0x24 DUP3 ADD MSTORE PUSH32 0x45524332303A207472616E7366657220616D6F756E7420657863656564732062 PUSH1 0x44 DUP3 ADD MSTORE PUSH6 0x616C616E6365 PUSH1 0xD0 SHL PUSH1 0x64 DUP3 ADD MSTORE PUSH1 0x84 ADD PUSH2 0x695 JUMP JUMPDEST PUSH1 0x1 PUSH1 0x1 PUSH1 0xA0 SHL SUB DUP1 DUP6 AND PUSH1 0x0 SWAP1 DUP2 MSTORE PUSH1 0x20 DUP2 SWAP1 MSTORE PUSH1 0x40 DUP1 DUP3 KECCAK256 DUP6 DUP6 SUB SWAP1 SSTORE SWAP2 DUP6 AND DUP2 MSTORE SWAP1 DUP2 KECCAK256 DUP1 SLOAD DUP5 SWAP3 SWAP1 PUSH2 0x1192 SWAP1 DUP5 SWAP1 PUSH2 0x16F2 JUMP JUMPDEST SWAP3 POP POP DUP2 SWAP1 SSTORE POP DUP3 PUSH1 0x1 PUSH1 0x1 PUSH1 0xA0 SHL SUB AND DUP5 PUSH1 0x1 PUSH1 0x1 PUSH1 0xA0 SHL SUB AND PUSH32 0xDDF252AD1BE2C89B69C2B068FC378DAA952BA7F163C4A11628F55A4DF523B3EF DUP5 PUSH1 0x40 MLOAD PUSH2 0x11DE SWAP2 DUP2 MSTORE PUSH1 0x20 ADD SWAP1 JUMP JUMPDEST PUSH1 0x40 MLOAD DUP1 SWAP2 SUB SWAP1 LOG3 PUSH2 0xE54 JUMP JUMPDEST PUSH1 0x1 PUSH1 0x1 PUSH1 0xA0 SHL SUB DUP3 AND PUSH2 0x1241 JUMPI PUSH1 0x40 MLOAD PUSH3 0x461BCD PUSH1 0xE5 SHL DUP2 MSTORE PUSH1 0x20 PUSH1 0x4 DUP3 ADD MSTORE PUSH1 0x1F PUSH1 0x24 DUP3 ADD MSTORE PUSH32 0x45524332303A206D696E7420746F20746865207A65726F206164647265737300 PUSH1 0x44 DUP3 ADD MSTORE PUSH1 0x64 ADD PUSH2 0x695 JUMP JUMPDEST DUP1 PUSH1 0x2 PUSH1 0x0 DUP3 DUP3 SLOAD PUSH2 0x1253 SWAP2 SWAP1 PUSH2 0x16F2 JUMP JUMPDEST SWAP1 SWAP2 SSTORE POP POP PUSH1 0x1 PUSH1 0x1 PUSH1 0xA0 SHL SUB DUP3 AND PUSH1 0x0 SWAP1 DUP2 MSTORE PUSH1 0x20 DUP2 SWAP1 MSTORE PUSH1 0x40 DUP2 KECCAK256 DUP1 SLOAD DUP4 SWAP3 SWAP1 PUSH2 0x1280 SWAP1 DUP5 SWAP1 PUSH2 0x16F2 JUMP JUMPDEST SWAP1 SWAP2 SSTORE POP POP PUSH1 0x40 MLOAD DUP2 DUP2 MSTORE PUSH1 0x1 PUSH1 0x1 PUSH1 0xA0 SHL SUB DUP4 AND SWAP1 PUSH1 0x0 SWAP1 PUSH32 0xDDF252AD1BE2C89B69C2B068FC378DAA952BA7F163C4A11628F55A4DF523B3EF SWAP1 PUSH1 0x20 ADD PUSH1 0x40 MLOAD DUP1 SWAP2 SUB SWAP1 LOG3 POP POP JUMP JUMPDEST PUSH1 0x1 PUSH1 0x1 PUSH1 0xA0 SHL SUB DUP3 AND PUSH2 0x132A JUMPI PUSH1 0x40 MLOAD PUSH3 0x461BCD PUSH1 0xE5 SHL DUP2 MSTORE PUSH1 0x20 PUSH1 0x4 DUP3 ADD MSTORE PUSH1 0x21 PUSH1 0x24 DUP3 ADD MSTORE PUSH32 0x45524332303A206275726E2066726F6D20746865207A65726F20616464726573 PUSH1 0x44 DUP3 ADD MSTORE PUSH1 0x73 PUSH1 0xF8 SHL PUSH1 0x64 DUP3 ADD MSTORE PUSH1 0x84 ADD PUSH2 0x695 JUMP JUMPDEST PUSH1 0x1 PUSH1 0x1 PUSH1 0xA0 SHL SUB DUP3 AND PUSH1 0x0 SWAP1 DUP2 MSTORE PUSH1 0x20 DUP2 SWAP1 MSTORE PUSH1 0x40 SWAP1 KECCAK256 SLOAD DUP2 DUP2 LT ISZERO PUSH2 0x139E JUMPI PUSH1 0x40 MLOAD PUSH3 0x461BCD PUSH1 0xE5 SHL DUP2 MSTORE PUSH1 0x20 PUSH1 0x4 DUP3 ADD MSTORE PUSH1 0x22 PUSH1 0x24 DUP3 ADD MSTORE PUSH32 0x45524332303A206275726E20616D6F756E7420657863656564732062616C616E PUSH1 0x44 DUP3 ADD MSTORE PUSH2 0x6365 PUSH1 0xF0 SHL PUSH1 0x64 DUP3 ADD MSTORE PUSH1 0x84 ADD PUSH2 0x695 JUMP JUMPDEST PUSH1 0x1 PUSH1 0x1 PUSH1 0xA0 SHL SUB DUP4 AND PUSH1 0x0 SWAP1 DUP2 MSTORE PUSH1 0x20 DUP2 SWAP1 MSTORE PUSH1 0x40 DUP2 KECCAK256 DUP4 DUP4 SUB SWAP1 SSTORE PUSH1 0x2 DUP1 SLOAD DUP5 SWAP3 SWAP1 PUSH2 0x13CD SWAP1 DUP5 SWAP1 PUSH2 0x172C JUMP JUMPDEST SWAP1 SWAP2 SSTORE POP POP PUSH1 0x40 MLOAD DUP3 DUP2 MSTORE PUSH1 0x0 SWAP1 PUSH1 0x1 PUSH1 0x1 PUSH1 0xA0 SHL SUB DUP6 AND SWAP1 PUSH32 0xDDF252AD1BE2C89B69C2B068FC378DAA952BA7F163C4A11628F55A4DF523B3EF SWAP1 PUSH1 0x20 ADD PUSH1 0x40 MLOAD DUP1 SWAP2 SUB SWAP1 LOG3 POP POP POP JUMP JUMPDEST PUSH1 0x0 PUSH1 0x20 DUP1 DUP4 MSTORE DUP4 MLOAD DUP1 DUP3 DUP6 ADD MSTORE PUSH1 0x0 JUMPDEST DUP2 DUP2 LT ISZERO PUSH2 0x1445 JUMPI DUP6 DUP2 ADD DUP4 ADD MLOAD DUP6 DUP3 ADD PUSH1 0x40 ADD MSTORE DUP3 ADD PUSH2 0x1429 JUMP JUMPDEST DUP2 DUP2 GT ISZERO PUSH2 0x1457 JUMPI PUSH1 0x0 PUSH1 0x40 DUP4 DUP8 ADD ADD MSTORE JUMPDEST POP PUSH1 0x1F ADD PUSH1 0x1F NOT AND SWAP3 SWAP1 SWAP3 ADD PUSH1 0x40 ADD SWAP4 SWAP3 POP POP POP JUMP JUMPDEST DUP1 CALLDATALOAD PUSH1 0x1 PUSH1 0x1 PUSH1 0xA0 SHL SUB DUP2 AND DUP2 EQ PUSH2 0x1484 JUMPI PUSH1 0x0 DUP1 REVERT JUMPDEST SWAP2 SWAP1 POP JUMP JUMPDEST PUSH1 0x0 DUP1 PUSH1 0x40 DUP4 DUP6 SUB SLT ISZERO PUSH2 0x149C JUMPI PUSH1 0x0 DUP1 REVERT JUMPDEST PUSH2 0x14A5 DUP4 PUSH2 0x146D JUMP JUMPDEST SWAP5 PUSH1 0x20 SWAP4 SWAP1 SWAP4 ADD CALLDATALOAD SWAP4 POP POP POP JUMP JUMPDEST PUSH4 0x4E487B71 PUSH1 0xE0 SHL PUSH1 0x0 MSTORE PUSH1 0x41 PUSH1 0x4 MSTORE PUSH1 0x24 PUSH1 0x0 REVERT JUMPDEST PUSH1 0x0 DUP1 PUSH1 0x0 DUP1 PUSH1 0x80 DUP6 DUP8 SUB SLT ISZERO PUSH2 0x14DF JUMPI PUSH1 0x0 DUP1 REVERT JUMPDEST PUSH2 0x14E8 DUP6 PUSH2 0x146D JUMP JUMPDEST SWAP4 POP PUSH2 0x14F6 PUSH1 0x20 DUP7 ADD PUSH2 0x146D JUMP JUMPDEST SWAP3 POP PUSH1 0x40 DUP6 ADD CALLDATALOAD SWAP2 POP PUSH1 0x60 DUP6 ADD CALLDATALOAD PUSH8 0xFFFFFFFFFFFFFFFF DUP1 DUP3 GT ISZERO PUSH2 0x151A JUMPI PUSH1 0x0 DUP1 REVERT JUMPDEST DUP2 DUP8 ADD SWAP2 POP DUP8 PUSH1 0x1F DUP4 ADD SLT PUSH2 0x152E JUMPI PUSH1 0x0 DUP1 REVERT JUMPDEST DUP2 CALLDATALOAD DUP2 DUP2 GT ISZERO PUSH2 0x1540 JUMPI PUSH2 0x1540 PUSH2 0x14B3 JUMP JUMPDEST PUSH1 0x40 MLOAD PUSH1 0x1F DUP3 ADD PUSH1 0x1F NOT SWAP1 DUP2 AND PUSH1 0x3F ADD AND DUP2 ADD SWAP1 DUP4 DUP3 GT DUP2 DUP4 LT OR ISZERO PUSH2 0x1568 JUMPI PUSH2 0x1568 PUSH2 0x14B3 JUMP JUMPDEST DUP2 PUSH1 0x40 MSTORE DUP3 DUP2 MSTORE DUP11 PUSH1 0x20 DUP5 DUP8 ADD ADD GT ISZERO PUSH2 0x1581 JUMPI PUSH1 0x0 DUP1 REVERT JUMPDEST DUP3 PUSH1 0x20 DUP7 ADD PUSH1 0x20 DUP4 ADD CALLDATACOPY PUSH1 0x0 PUSH1 0x20 DUP5 DUP4 ADD ADD MSTORE DUP1 SWAP6 POP POP POP POP POP POP SWAP3 SWAP6 SWAP2 SWAP5 POP SWAP3 POP JUMP JUMPDEST PUSH1 0x0 PUSH1 0x20 DUP3 DUP5 SUB SLT ISZERO PUSH2 0x15B7 JUMPI PUSH1 0x0 DUP1 REVERT JUMPDEST POP CALLDATALOAD SWAP2 SWAP1 POP JUMP JUMPDEST PUSH1 0x0 DUP1 PUSH1 0x0 PUSH1 0x60 DUP5 DUP7 SUB SLT ISZERO PUSH2 0x15D3 JUMPI PUSH1 0x0 DUP1 REVERT JUMPDEST PUSH2 0x15DC DUP5 PUSH2 0x146D JUMP JUMPDEST SWAP3 POP PUSH2 0x15EA PUSH1 0x20 DUP6 ADD PUSH2 0x146D JUMP JUMPDEST SWAP2 POP PUSH1 0x40 DUP5 ADD CALLDATALOAD SWAP1 POP SWAP3 POP SWAP3 POP SWAP3 JUMP JUMPDEST PUSH1 0x0 PUSH1 0x20 DUP3 DUP5 SUB SLT ISZERO PUSH2 0x160C JUMPI PUSH1 0x0 DUP1 REVERT JUMPDEST PUSH2 0x1615 DUP3 PUSH2 0x146D JUMP JUMPDEST SWAP4 SWAP3 POP POP POP JUMP JUMPDEST PUSH1 0x0 DUP1 PUSH1 0x0 PUSH1 0x60 DUP5 DUP7 SUB SLT ISZERO PUSH2 0x1631 JUMPI PUSH1 0x0 DUP1 REVERT JUMPDEST PUSH2 0x163A DUP5 PUSH2 0x146D JUMP JUMPDEST SWAP6 PUSH1 0x20 DUP6 ADD CALLDATALOAD SWAP6 POP PUSH1 0x40 SWAP1 SWAP5 ADD CALLDATALOAD SWAP4 SWAP3 POP POP POP JUMP JUMPDEST PUSH1 0x0 DUP1 PUSH1 0x40 DUP4 DUP6 SUB SLT ISZERO PUSH2 0x1662 JUMPI PUSH1 0x0 DUP1 REVERT JUMPDEST PUSH2 0x166B DUP4 PUSH2 0x146D JUMP JUMPDEST SWAP2 POP PUSH2 0x1679 PUSH1 0x20 DUP5 ADD PUSH2 0x146D JUMP JUMPDEST SWAP1 POP SWAP3 POP SWAP3 SWAP1 POP JUMP JUMPDEST PUSH1 0x1 DUP2 DUP2 SHR SWAP1 DUP3 AND DUP1 PUSH2 0x1696 JUMPI PUSH1 0x7F DUP3 AND SWAP2 POP JUMPDEST PUSH1 0x20 DUP3 LT DUP2 EQ ISZERO PUSH2 0x16B7 JUMPI PUSH4 0x4E487B71 PUSH1 0xE0 SHL PUSH1 0x0 MSTORE PUSH1 0x22 PUSH1 0x4 MSTORE PUSH1 0x24 PUSH1 0x0 REVERT JUMPDEST POP SWAP2 SWAP1 POP JUMP JUMPDEST PUSH4 0x4E487B71 PUSH1 0xE0 SHL PUSH1 0x0 MSTORE PUSH1 0x11 PUSH1 0x4 MSTORE PUSH1 0x24 PUSH1 0x0 REVERT JUMPDEST PUSH1 0x0 DUP2 PUSH1 0x0 NOT DIV DUP4 GT DUP3 ISZERO ISZERO AND ISZERO PUSH2 0x16ED JUMPI PUSH2 0x16ED PUSH2 0x16BD JUMP JUMPDEST POP MUL SWAP1 JUMP JUMPDEST PUSH1 0x0 DUP3 NOT DUP3 GT ISZERO PUSH2 0x1705 JUMPI PUSH2 0x1705 PUSH2 0x16BD JUMP JUMPDEST POP ADD SWAP1 JUMP JUMPDEST PUSH1 0x0 DUP3 PUSH2 0x1727 JUMPI PUSH4 0x4E487B71 PUSH1 0xE0 SHL PUSH1 0x0 MSTORE PUSH1 0x12 PUSH1 0x4 MSTORE PUSH1 0x24 PUSH1 0x0 REVERT JUMPDEST POP DIV SWAP1 JUMP JUMPDEST PUSH1 0x0 DUP3 DUP3 LT ISZERO PUSH2 0x173E JUMPI PUSH2 0x173E PUSH2 0x16BD JUMP JUMPDEST POP SUB SWAP1 JUMP INVALID LOG2 PUSH5 0x6970667358 0x22 SLT KECCAK256 PUSH19 0x267F4C294317D92F5CED27F5DEE512F2E6DBB0 PUSH10 0xE8089D0BF61D389AF97E ADDMOD PUSH5 0x736F6C6343 STOP ADDMOD MULMOD STOP CALLER LOG2 PUSH5 0x6970667358 0x22 SLT KECCAK256 PUSH12 0x75285B5792E3A554E6C6ADAB CHAINID 0xDA KECCAK256 SWAP15 SWAP12 0xE9 SWAP14 0xE7 0xD5 KECCAK256 SMOD 0x2E DUP14 0xCB 0xD9 0xB4 MSTORE8 JUMPI 0xD7 PUSH5 0x736F6C6343 STOP ADDMOD MULMOD STOP CALLER "},"methodIdentifiers":{"_tokensintialized(uint256)":"2bbb70a6","createToken(string,string,address,uint256,uint256)":"24d62477","fractionalizedTokens(address,uint256)":"de200c79","getAddress(address,uint256)":"8cb84e18","getTokens()":"aa6ca808"}}}}}