{"@thirdweb-dev/contracts/base/ERC721Base.sol":{"ERC721Base":{"abi":[{"inputs":[{"internalType":"string","name":"_name","type":"string"},{"internalType":"string","name":"_symbol","type":"string"},{"internalType":"address","name":"_royaltyRecipient","type":"address"},{"internalType":"uint128","name":"_royaltyBps","type":"uint128"}],"stateMutability":"nonpayable","type":"constructor"},{"inputs":[],"name":"ApprovalCallerNotOwnerNorApproved","type":"error"},{"inputs":[],"name":"ApprovalQueryForNonexistentToken","type":"error"},{"inputs":[],"name":"ApprovalToCurrentOwner","type":"error"},{"inputs":[],"name":"ApproveToCaller","type":"error"},{"inputs":[],"name":"BalanceQueryForZeroAddress","type":"error"},{"inputs":[],"name":"MintToZeroAddress","type":"error"},{"inputs":[],"name":"MintZeroQuantity","type":"error"},{"inputs":[],"name":"OwnerQueryForNonexistentToken","type":"error"},{"inputs":[],"name":"TransferCallerNotOwnerNorApproved","type":"error"},{"inputs":[],"name":"TransferFromIncorrectOwner","type":"error"},{"inputs":[],"name":"TransferToNonERC721ReceiverImplementer","type":"error"},{"inputs":[],"name":"TransferToZeroAddress","type":"error"},{"inputs":[],"name":"URIQueryForNonexistentToken","type":"error"},{"anonymous":false,"inputs":[{"indexed":true,"internalType":"address","name":"owner","type":"address"},{"indexed":true,"internalType":"address","name":"approved","type":"address"},{"indexed":true,"internalType":"uint256","name":"tokenId","type":"uint256"}],"name":"Approval","type":"event"},{"anonymous":false,"inputs":[{"indexed":true,"internalType":"address","name":"owner","type":"address"},{"indexed":true,"internalType":"address","name":"operator","type":"address"},{"indexed":false,"internalType":"bool","name":"approved","type":"bool"}],"name":"ApprovalForAll","type":"event"},{"anonymous":false,"inputs":[{"indexed":false,"internalType":"string","name":"prevURI","type":"string"},{"indexed":false,"internalType":"string","name":"newURI","type":"string"}],"name":"ContractURIUpdated","type":"event"},{"anonymous":false,"inputs":[{"indexed":true,"internalType":"address","name":"newRoyaltyRecipient","type":"address"},{"indexed":false,"internalType":"uint256","name":"newRoyaltyBps","type":"uint256"}],"name":"DefaultRoyalty","type":"event"},{"anonymous":false,"inputs":[{"indexed":true,"internalType":"address","name":"prevOwner","type":"address"},{"indexed":true,"internalType":"address","name":"newOwner","type":"address"}],"name":"OwnerUpdated","type":"event"},{"anonymous":false,"inputs":[{"indexed":true,"internalType":"uint256","name":"tokenId","type":"uint256"},{"indexed":true,"internalType":"address","name":"royaltyRecipient","type":"address"},{"indexed":false,"internalType":"uint256","name":"royaltyBps","type":"uint256"}],"name":"RoyaltyForToken","type":"event"},{"anonymous":false,"inputs":[{"indexed":true,"internalType":"address","name":"from","type":"address"},{"indexed":true,"internalType":"address","name":"to","type":"address"},{"indexed":true,"internalType":"uint256","name":"tokenId","type":"uint256"}],"name":"Transfer","type":"event"},{"inputs":[{"internalType":"address","name":"to","type":"address"},{"internalType":"uint256","name":"tokenId","type":"uint256"}],"name":"approve","outputs":[],"stateMutability":"nonpayable","type":"function"},{"inputs":[{"internalType":"address","name":"owner","type":"address"}],"name":"balanceOf","outputs":[{"internalType":"uint256","name":"","type":"uint256"}],"stateMutability":"view","type":"function"},{"inputs":[{"internalType":"address","name":"_to","type":"address"},{"internalType":"uint256","name":"_quantity","type":"uint256"},{"internalType":"string","name":"_baseURI","type":"string"},{"internalType":"bytes","name":"_data","type":"bytes"}],"name":"batchMintTo","outputs":[],"stateMutability":"nonpayable","type":"function"},{"inputs":[{"internalType":"uint256","name":"_tokenId","type":"uint256"}],"name":"burn","outputs":[],"stateMutability":"nonpayable","type":"function"},{"inputs":[],"name":"contractURI","outputs":[{"internalType":"string","name":"","type":"string"}],"stateMutability":"view","type":"function"},{"inputs":[{"internalType":"uint256","name":"tokenId","type":"uint256"}],"name":"getApproved","outputs":[{"internalType":"address","name":"","type":"address"}],"stateMutability":"view","type":"function"},{"inputs":[],"name":"getBaseURICount","outputs":[{"internalType":"uint256","name":"","type":"uint256"}],"stateMutability":"view","type":"function"},{"inputs":[{"internalType":"uint256","name":"_index","type":"uint256"}],"name":"getBatchIdAtIndex","outputs":[{"internalType":"uint256","name":"","type":"uint256"}],"stateMutability":"view","type":"function"},{"inputs":[],"name":"getDefaultRoyaltyInfo","outputs":[{"internalType":"address","name":"","type":"address"},{"internalType":"uint16","name":"","type":"uint16"}],"stateMutability":"view","type":"function"},{"inputs":[{"internalType":"uint256","name":"_tokenId","type":"uint256"}],"name":"getRoyaltyInfoForToken","outputs":[{"internalType":"address","name":"","type":"address"},{"internalType":"uint16","name":"","type":"uint16"}],"stateMutability":"view","type":"function"},{"inputs":[{"internalType":"address","name":"owner","type":"address"},{"internalType":"address","name":"operator","type":"address"}],"name":"isApprovedForAll","outputs":[{"internalType":"bool","name":"","type":"bool"}],"stateMutability":"view","type":"function"},{"inputs":[{"internalType":"address","name":"_operator","type":"address"},{"internalType":"uint256","name":"_tokenId","type":"uint256"}],"name":"isApprovedOrOwner","outputs":[{"internalType":"bool","name":"isApprovedOrOwnerOf","type":"bool"}],"stateMutability":"view","type":"function"},{"inputs":[{"internalType":"address","name":"_to","type":"address"},{"internalType":"string","name":"_tokenURI","type":"string"}],"name":"mintTo","outputs":[],"stateMutability":"nonpayable","type":"function"},{"inputs":[{"internalType":"bytes[]","name":"data","type":"bytes[]"}],"name":"multicall","outputs":[{"internalType":"bytes[]","name":"results","type":"bytes[]"}],"stateMutability":"nonpayable","type":"function"},{"inputs":[],"name":"name","outputs":[{"internalType":"string","name":"","type":"string"}],"stateMutability":"view","type":"function"},{"inputs":[],"name":"nextTokenIdToMint","outputs":[{"internalType":"uint256","name":"","type":"uint256"}],"stateMutability":"view","type":"function"},{"inputs":[],"name":"owner","outputs":[{"internalType":"address","name":"","type":"address"}],"stateMutability":"view","type":"function"},{"inputs":[{"internalType":"uint256","name":"tokenId","type":"uint256"}],"name":"ownerOf","outputs":[{"internalType":"address","name":"","type":"address"}],"stateMutability":"view","type":"function"},{"inputs":[{"internalType":"uint256","name":"tokenId","type":"uint256"},{"internalType":"uint256","name":"salePrice","type":"uint256"}],"name":"royaltyInfo","outputs":[{"internalType":"address","name":"receiver","type":"address"},{"internalType":"uint256","name":"royaltyAmount","type":"uint256"}],"stateMutability":"view","type":"function"},{"inputs":[{"internalType":"address","name":"from","type":"address"},{"internalType":"address","name":"to","type":"address"},{"internalType":"uint256","name":"tokenId","type":"uint256"}],"name":"safeTransferFrom","outputs":[],"stateMutability":"nonpayable","type":"function"},{"inputs":[{"internalType":"address","name":"from","type":"address"},{"internalType":"address","name":"to","type":"address"},{"internalType":"uint256","name":"tokenId","type":"uint256"},{"internalType":"bytes","name":"_data","type":"bytes"}],"name":"safeTransferFrom","outputs":[],"stateMutability":"nonpayable","type":"function"},{"inputs":[{"internalType":"address","name":"operator","type":"address"},{"internalType":"bool","name":"approved","type":"bool"}],"name":"setApprovalForAll","outputs":[],"stateMutability":"nonpayable","type":"function"},{"inputs":[{"internalType":"string","name":"_uri","type":"string"}],"name":"setContractURI","outputs":[],"stateMutability":"nonpayable","type":"function"},{"inputs":[{"internalType":"address","name":"_royaltyRecipient","type":"address"},{"internalType":"uint256","name":"_royaltyBps","type":"uint256"}],"name":"setDefaultRoyaltyInfo","outputs":[],"stateMutability":"nonpayable","type":"function"},{"inputs":[{"internalType":"address","name":"_newOwner","type":"address"}],"name":"setOwner","outputs":[],"stateMutability":"nonpayable","type":"function"},{"inputs":[{"internalType":"uint256","name":"_tokenId","type":"uint256"},{"internalType":"address","name":"_recipient","type":"address"},{"internalType":"uint256","name":"_bps","type":"uint256"}],"name":"setRoyaltyInfoForToken","outputs":[],"stateMutability":"nonpayable","type":"function"},{"inputs":[{"internalType":"bytes4","name":"interfaceId","type":"bytes4"}],"name":"supportsInterface","outputs":[{"internalType":"bool","name":"","type":"bool"}],"stateMutability":"view","type":"function"},{"inputs":[],"name":"symbol","outputs":[{"internalType":"string","name":"","type":"string"}],"stateMutability":"view","type":"function"},{"inputs":[{"internalType":"uint256","name":"_tokenId","type":"uint256"}],"name":"tokenURI","outputs":[{"internalType":"string","name":"","type":"string"}],"stateMutability":"view","type":"function"},{"inputs":[],"name":"totalSupply","outputs":[{"internalType":"uint256","name":"","type":"uint256"}],"stateMutability":"view","type":"function"},{"inputs":[{"internalType":"address","name":"from","type":"address"},{"internalType":"address","name":"to","type":"address"},{"internalType":"uint256","name":"tokenId","type":"uint256"}],"name":"transferFrom","outputs":[],"stateMutability":"nonpayable","type":"function"}],"evm":{"bytecode":{"linkReferences":{},"object":"60806040523480156200001157600080fd5b506040516200294a3803806200294a833981016040819052620000349162000304565b8351849084906200004d90600290602085019062000191565b5080516200006390600390602084019062000191565b50506000805550620000753362000094565b6200008a826001600160801b038316620000e6565b50505050620003ed565b600980546001600160a01b038381166001600160a01b0319831681179093556040519116919082907f8292fce18fa69edf4db7b94ea2e58241df0ae57f97e0a6c9b29067028bf92d7690600090a35050565b6127108111156200012f5760405162461bcd60e51b815260206004820152600f60248201526e45786365656473206d61782062707360881b604482015260640160405180910390fd5b600a80546001600160a01b0384166001600160b01b03199091168117600160a01b61ffff851602179091556040518281527f90d7ec04bcb8978719414f82e52e4cb651db41d0e6f8cea6118c2191e6183adb9060200160405180910390a25050565b8280546200019f90620003b0565b90600052602060002090601f016020900481019282620001c357600085556200020e565b82601f10620001de57805160ff19168380011785556200020e565b828001600101855582156200020e579182015b828111156200020e578251825591602001919060010190620001f1565b506200021c92915062000220565b5090565b5b808211156200021c576000815560010162000221565b634e487b7160e01b600052604160045260246000fd5b600082601f8301126200025f57600080fd5b81516001600160401b03808211156200027c576200027c62000237565b604051601f8301601f19908116603f01168101908282118183101715620002a757620002a762000237565b81604052838152602092508683858801011115620002c457600080fd5b600091505b83821015620002e85785820183015181830184015290820190620002c9565b83821115620002fa5760008385830101525b9695505050505050565b600080600080608085870312156200031b57600080fd5b84516001600160401b03808211156200033357600080fd5b62000341888389016200024d565b955060208701519150808211156200035857600080fd5b5062000367878288016200024d565b604087015190945090506001600160a01b03811681146200038757600080fd5b60608601519092506001600160801b0381168114620003a557600080fd5b939692955090935050565b600181811c90821680620003c557607f821691505b60208210811415620003e757634e487b7160e01b600052602260045260246000fd5b50919050565b61254d80620003fd6000396000f3fe608060405234801561001057600080fd5b50600436106101e45760003560e01c8063600dd5ea1161010f5780639bcf7a15116100a2578063b88d4fde11610071578063b88d4fde14610454578063c87b56dd14610467578063e8a3d4851461047a578063e985e9c51461048257600080fd5b80639bcf7a15146103f0578063a22cb46514610403578063ac9650d814610416578063b24f2d391461043657600080fd5b8063754a81d9116100de578063754a81d9146103b15780638da5cb5b146103c4578063938e3d7b146103d557806395d89b41146103e857600080fd5b8063600dd5ea146103705780636352211e1461038357806363b45e2d1461039657806370a082311461039e57600080fd5b806323b872dd1161018757806342842e0e1161015657806342842e0e1461030257806342966c6814610315578063430c2081146103285780634cc157df1461033b57600080fd5b806323b872dd146102a25780632419f51b146102b55780632a55205a146102c85780633b1475a7146102fa57600080fd5b8063081812fc116101c3578063081812fc1461023b578063095ea7b31461026657806313af40351461027957806318160ddd1461028c57600080fd5b806275a317146101e957806301ffc9a7146101fe57806306fdde0314610226575b600080fd5b6101fc6101f7366004611e67565b6104be565b005b61021161020c366004611eca565b610542565b60405190151581526020015b60405180910390f35b61022e6105af565b60405161021d9190611f3f565b61024e610249366004611f52565b610641565b6040516001600160a01b03909116815260200161021d565b6101fc610274366004611f6b565b610685565b6101fc610287366004611f95565b61070c565b600154600054035b60405190815260200161021d565b6101fc6102b0366004611fb0565b61073c565b6102946102c3366004611f52565b610747565b6102db6102d6366004611fec565b6107b5565b604080516001600160a01b03909316835260208301919091520161021d565b600054610294565b6101fc610310366004611fb0565b6107f2565b6101fc610323366004611f52565b61080d565b610211610336366004611f6b565b610818565b61034e610349366004611f52565b610897565b604080516001600160a01b03909316835261ffff90911660208301520161021d565b6101fc61037e366004611f6b565b610902565b61024e610391366004611f52565b610930565b600c54610294565b6102946103ac366004611f95565b610942565b6101fc6103bf36600461200e565b610990565b6009546001600160a01b031661024e565b6101fc6103e336600461208b565b610a04565b61022e610a31565b6101fc6103fe3660046120bf565b610a40565b6101fc6104113660046120e4565b610a6f565b610429610424366004612120565b610b05565b60405161021d9190612194565b600a546001600160a01b03811690600160a01b900461ffff1661034e565b6101fc6104623660046121f6565b610bf9565b61022e610475366004611f52565b610c3d565b61022e610d2b565b610211610490366004612251565b6001600160a01b03918216600090815260076020908152604080832093909416825291909152205460ff1690565b6104c6610db9565b6105115760405162461bcd60e51b81526020600482015260176024820152762737ba1030baba3437b934bd32b2103a379036b4b73a1760491b60448201526064015b60405180910390fd5b61052361051d60005490565b82610de6565b61053e82600160405180602001604052806000815250610e5f565b5050565b60006301ffc9a760e01b6001600160e01b03198316148061057357506380ac58cd60e01b6001600160e01b03198316145b8061058e5750635b5e139f60e01b6001600160e01b03198316145b806105a957506001600160e01b0319821663152a902d60e11b145b92915050565b6060600280546105be90612284565b80601f01602080910402602001604051908101604052809291908181526020018280546105ea90612284565b80156106375780601f1061060c57610100808354040283529160200191610637565b820191906000526020600020905b81548152906001019060200180831161061a57829003601f168201915b5050505050905090565b600061064c82610fff565b610669576040516333d1c03960e21b815260040160405180910390fd5b506000908152600660205260409020546001600160a01b031690565b600061069082610930565b9050806001600160a01b0316836001600160a01b031614156106c55760405163250fdee360e21b815260040160405180910390fd5b336001600160a01b038216146106fc576106df8133610490565b6106fc576040516367d9dca160e11b815260040160405180910390fd5b61070783838361102a565b505050565b610714610db9565b6107305760405162461bcd60e51b8152600401610508906122bf565b61073981611086565b50565b6107078383836110d8565b6000610752600c5490565b82106107905760405162461bcd60e51b815260206004820152600d60248201526c092dcecc2d8d2c840d2dcc8caf609b1b6044820152606401610508565b600c82815481106107a3576107a36122e7565b90600052602060002001549050919050565b6000806000806107c486610897565b90945084925061ffff1690506127106107dd8287612313565b6107e79190612348565b925050509250929050565b61070783838360405180602001604052806000815250610bf9565b6107398160016112b3565b60008061082483610930565b9050806001600160a01b0316846001600160a01b0316148061086b57506001600160a01b0380821660009081526007602090815260408083209388168352929052205460ff165b8061088f5750836001600160a01b031661088484610641565b6001600160a01b0316145b949350505050565b6000818152600b60209081526040808320815180830190925280546001600160a01b0316808352600190910154928201929092528291156108de57805160208201516108f8565b600a546001600160a01b03811690600160a01b900461ffff165b9250925050915091565b61090a610db9565b6109265760405162461bcd60e51b8152600401610508906122bf565b61053e8282611466565b600061093b8261150c565b5192915050565b60006001600160a01b03821661096b576040516323d3ad8160e21b815260040160405180910390fd5b506001600160a01b03166000908152600560205260409020546001600160401b031690565b610998610db9565b6109de5760405162461bcd60e51b81526020600482015260176024820152762737ba1030baba3437b934bd32b2103a379036b4b73a1760491b6044820152606401610508565b6109f16109ea60005490565b8484611626565b50506109fe848483610e5f565b50505050565b610a0c610db9565b610a285760405162461bcd60e51b8152600401610508906122bf565b61073981611693565b6060600380546105be90612284565b610a48610db9565b610a645760405162461bcd60e51b8152600401610508906122bf565b610707838383611775565b6001600160a01b038216331415610a995760405163b06307db60e01b815260040160405180910390fd5b3360008181526007602090815260408083206001600160a01b03871680855290835292819020805460ff191686151590811790915590519081529192917f17307eab39ab6107e8899845ad3d59bd9653f200f220920489ca2b5937696c31910160405180910390a35050565b6060816001600160401b03811115610b1f57610b1f611dc5565b604051908082528060200260200182016040528015610b5257816020015b6060815260200190600190039081610b3d5790505b50905060005b82811015610bf257610bc230858584818110610b7657610b766122e7565b9050602002810190610b88919061235c565b8080601f01602080910402602001604051908101604052809392919081815260200183838082843760009201919091525061183e92505050565b828281518110610bd457610bd46122e7565b60200260200101819052508080610bea906123a9565b915050610b58565b5092915050565b610c048484846110d8565b6001600160a01b0383163b156109fe57610c208484848461186a565b6109fe576040516368d2bf6b60e11b815260040160405180910390fd5b6000818152600e6020526040812080546060929190610c5b90612284565b80601f0160208091040260200160405190810160405280929190818152602001828054610c8790612284565b8015610cd45780601f10610ca957610100808354040283529160200191610cd4565b820191906000526020600020905b815481529060010190602001808311610cb757829003601f168201915b50505050509050600081511115610ceb5792915050565b6000610cf684611961565b905080610d0285611afd565b604051602001610d139291906123c4565b60405160208183030381529060405292505050919050565b60088054610d3890612284565b80601f0160208091040260200160405190810160405280929190818152602001828054610d6490612284565b8015610db15780601f10610d8657610100808354040283529160200191610db1565b820191906000526020600020905b815481529060010190602001808311610d9457829003601f168201915b505050505081565b6000610dcd6009546001600160a01b031690565b6001600160a01b0316336001600160a01b031614905090565b6000828152600e602052604090208054610dff90612284565b159050610e405760405162461bcd60e51b815260206004820152600f60248201526e15549248185b1c9958591e481cd95d608a1b6044820152606401610508565b6000828152600e60209081526040909120825161070792840190611d10565b6000546001600160a01b038416610e8857604051622e076360e81b815260040160405180910390fd5b82610ea65760405163b562e8dd60e01b815260040160405180910390fd5b6001600160a01b038416600081815260056020908152604080832080546fffffffffffffffffffffffffffffffff1981166001600160401b038083168b0181169182176801000000000000000067ffffffffffffffff1990941690921783900481168b01811690920217909155858452600490925290912080546001600160e01b0319168317600160a01b42909316929092029190911790558190818501903b15610fbc575b60405182906001600160a01b038816906000906000805160206124f8833981519152908290a4610f85600087848060010195508761186a565b610fa2576040516368d2bf6b60e11b815260040160405180910390fd5b808210610f4c578260005414610fb757600080fd5b610fef565b5b6040516001830192906001600160a01b038816906000906000805160206124f8833981519152908290a4808210610fbd575b5060009081556109fe9085838684565b60008054821080156105a9575050600090815260046020526040902054600160e01b900460ff161590565b60008281526006602052604080822080546001600160a01b0319166001600160a01b0387811691821790925591518593918516917f8c5be1e5ebec7d5bd14f71427d1e84f3dd0314c0f7b2291e5b200ac8c7c3b92591a4505050565b600980546001600160a01b038381166001600160a01b0319831681179093556040519116919082907f8292fce18fa69edf4db7b94ea2e58241df0ae57f97e0a6c9b29067028bf92d7690600090a35050565b60006110e38261150c565b9050836001600160a01b031681600001516001600160a01b03161461111a5760405162a1148160e81b815260040160405180910390fd5b6000336001600160a01b038616148061113857506111388533610490565b8061115357503361114884610641565b6001600160a01b0316145b90508061117357604051632ce44b5f60e11b815260040160405180910390fd5b6001600160a01b03841661119a57604051633a954ecd60e21b815260040160405180910390fd5b6111a66000848761102a565b6001600160a01b038581166000908152600560209081526040808320805467ffffffffffffffff198082166001600160401b0392831660001901831617909255898616808652838620805493841693831660019081018416949094179055898652600490945282852080546001600160e01b031916909417600160a01b4290921691909102178355870180845292208054919390911661127a57600054821461127a57805460208601516001600160401b0316600160a01b026001600160e01b03199091166001600160a01b038a16171781555b50505082846001600160a01b0316866001600160a01b03166000805160206124f883398151915260405160405180910390a45050505050565b60006112be8361150c565b80519091508215611324576000336001600160a01b03831614806112e757506112e78233610490565b806113025750336112f786610641565b6001600160a01b0316145b90508061132257604051632ce44b5f60e11b815260040160405180910390fd5b505b6113306000858361102a565b6001600160a01b0380821660008181526005602090815260408083208054600160801b6000196001600160401b0380841691909101811667ffffffffffffffff198416811783900482166001908101831690930277ffffffffffffffff0000000000000000ffffffffffffffff19909416179290921783558b86526004909452828520805460ff60e01b1942909316600160a01b026001600160e01b03199091169097179690961716600160e01b17855591890180845292208054919490911661142e57600054821461142e57805460208701516001600160401b0316600160a01b026001600160e01b03199091166001600160a01b038716171781555b5050604051869250600091506001600160a01b038416906000805160206124f8833981519152908390a4505060018054810190555050565b6127108111156114aa5760405162461bcd60e51b815260206004820152600f60248201526e45786365656473206d61782062707360881b6044820152606401610508565b600a80546001600160a01b0384166001600160b01b03199091168117600160a01b61ffff851602179091556040518281527f90d7ec04bcb8978719414f82e52e4cb651db41d0e6f8cea6118c2191e6183adb9060200160405180910390a25050565b60408051606081018252600080825260208201819052918101919091528160005481101561160d57600081815260046020908152604091829020825160608101845290546001600160a01b0381168252600160a01b81046001600160401b031692820192909252600160e01b90910460ff1615159181018290529061160b5780516001600160a01b0316156115a2579392505050565b5060001901600081815260046020908152604091829020825160608101845290546001600160a01b038116808352600160a01b82046001600160401b031693830193909352600160e01b900460ff1615159281019290925215611606579392505050565b6115a2565b505b604051636f96cda160e11b815260040160405180910390fd5b60008061163384866123f3565b600c8054600181019091557fdf6966c971051c3d54ec59162606531493a51404a002842f56009d7e5cf4a8c7018190556000818152600d60209081526040909120855192945084935061168a929091860190611d10565b50935093915050565b6000600880546116a290612284565b80601f01602080910402602001604051908101604052809291908181526020018280546116ce90612284565b801561171b5780601f106116f05761010080835404028352916020019161171b565b820191906000526020600020905b8154815290600101906020018083116116fe57829003601f168201915b5050855193945061173793600893506020870192509050611d10565b507fc9c7c3fe08b88b4df9d4d47ef47d2c43d55c025a0ba88ca442580ed9e7348a16818360405161176992919061240b565b60405180910390a15050565b6127108111156117b95760405162461bcd60e51b815260206004820152600f60248201526e45786365656473206d61782062707360881b6044820152606401610508565b6040805180820182526001600160a01b0384811680835260208084018681526000898152600b8352869020945185546001600160a01b031916941693909317845591516001909301929092559151838152909185917f7365cf4122f072a3365c20d54eff9b38d73c096c28e1892ec8f5b0e403a0f12d910160405180910390a3505050565b606061186383836040518060600160405280602781526020016124d160279139611bfa565b9392505050565b604051630a85bd0160e11b81526000906001600160a01b0385169063150b7a029061189f903390899088908890600401612439565b602060405180830381600087803b1580156118b957600080fd5b505af19250505080156118e9575060408051601f3d908101601f191682019092526118e69181019061246c565b60015b611944573d808015611917576040519150601f19603f3d011682016040523d82523d6000602084013e61191c565b606091505b50805161193c576040516368d2bf6b60e11b815260040160405180910390fd5b805181602001fd5b6001600160e01b031916630a85bd0160e11b149050949350505050565b6060600061196e600c5490565b90506000600c8054806020026020016040519081016040528092919081815260200182805480156119be57602002820191906000526020600020905b8154815260200190600101908083116119aa575b5050505050905060005b82811015611ac2578181815181106119e2576119e26122e7565b6020026020010151851015611ab057600d6000838381518110611a0757611a076122e7565b602002602001015181526020019081526020016000208054611a2890612284565b80601f0160208091040260200160405190810160405280929190818152602001828054611a5490612284565b8015611aa15780601f10611a7657610100808354040283529160200191611aa1565b820191906000526020600020905b815481529060010190602001808311611a8457829003601f168201915b50505050509350505050919050565b611abb6001826123f3565b90506119c8565b5060405162461bcd60e51b815260206004820152600f60248201526e125b9d985b1a59081d1bdad95b9259608a1b6044820152606401610508565b606081611b215750506040805180820190915260018152600360fc1b602082015290565b8160005b8115611b4b5780611b35816123a9565b9150611b449050600a83612348565b9150611b25565b6000816001600160401b03811115611b6557611b65611dc5565b6040519080825280601f01601f191660200182016040528015611b8f576020820181803683370190505b5090505b841561088f57611ba4600183612489565b9150611bb1600a866124a0565b611bbc9060306123f3565b60f81b818381518110611bd157611bd16122e7565b60200101906001600160f81b031916908160001a905350611bf3600a86612348565b9450611b93565b60606001600160a01b0384163b611c625760405162461bcd60e51b815260206004820152602660248201527f416464726573733a2064656c65676174652063616c6c20746f206e6f6e2d636f6044820152651b9d1c9858dd60d21b6064820152608401610508565b600080856001600160a01b031685604051611c7d91906124b4565b600060405180830381855af49150503d8060008114611cb8576040519150601f19603f3d011682016040523d82523d6000602084013e611cbd565b606091505b5091509150611ccd828286611cd7565b9695505050505050565b60608315611ce6575081611863565b825115611cf65782518084602001fd5b8160405162461bcd60e51b81526004016105089190611f3f565b828054611d1c90612284565b90600052602060002090601f016020900481019282611d3e5760008555611d84565b82601f10611d5757805160ff1916838001178555611d84565b82800160010185558215611d84579182015b82811115611d84578251825591602001919060010190611d69565b50611d90929150611d94565b5090565b5b80821115611d905760008155600101611d95565b80356001600160a01b0381168114611dc057600080fd5b919050565b634e487b7160e01b600052604160045260246000fd5b600082601f830112611dec57600080fd5b81356001600160401b0380821115611e0657611e06611dc5565b604051601f8301601f19908116603f01168101908282118183101715611e2e57611e2e611dc5565b81604052838152866020858801011115611e4757600080fd5b836020870160208301376000602085830101528094505050505092915050565b60008060408385031215611e7a57600080fd5b611e8383611da9565b915060208301356001600160401b03811115611e9e57600080fd5b611eaa85828601611ddb565b9150509250929050565b6001600160e01b03198116811461073957600080fd5b600060208284031215611edc57600080fd5b813561186381611eb4565b60005b83811015611f02578181015183820152602001611eea565b838111156109fe5750506000910152565b60008151808452611f2b816020860160208601611ee7565b601f01601f19169290920160200192915050565b6020815260006118636020830184611f13565b600060208284031215611f6457600080fd5b5035919050565b60008060408385031215611f7e57600080fd5b611f8783611da9565b946020939093013593505050565b600060208284031215611fa757600080fd5b61186382611da9565b600080600060608486031215611fc557600080fd5b611fce84611da9565b9250611fdc60208501611da9565b9150604084013590509250925092565b60008060408385031215611fff57600080fd5b50508035926020909101359150565b6000806000806080858703121561202457600080fd5b61202d85611da9565b93506020850135925060408501356001600160401b038082111561205057600080fd5b61205c88838901611ddb565b9350606087013591508082111561207257600080fd5b5061207f87828801611ddb565b91505092959194509250565b60006020828403121561209d57600080fd5b81356001600160401b038111156120b357600080fd5b61088f84828501611ddb565b6000806000606084860312156120d457600080fd5b83359250611fdc60208501611da9565b600080604083850312156120f757600080fd5b61210083611da9565b91506020830135801515811461211557600080fd5b809150509250929050565b6000806020838503121561213357600080fd5b82356001600160401b038082111561214a57600080fd5b818501915085601f83011261215e57600080fd5b81358181111561216d57600080fd5b8660208260051b850101111561218257600080fd5b60209290920196919550909350505050565b6000602080830181845280855180835260408601915060408160051b870101925083870160005b828110156121e957603f198886030184526121d7858351611f13565b945092850192908501906001016121bb565b5092979650505050505050565b6000806000806080858703121561220c57600080fd5b61221585611da9565b935061222360208601611da9565b92506040850135915060608501356001600160401b0381111561224557600080fd5b61207f87828801611ddb565b6000806040838503121561226457600080fd5b61226d83611da9565b915061227b60208401611da9565b90509250929050565b600181811c9082168061229857607f821691505b602082108114156122b957634e487b7160e01b600052602260045260246000fd5b50919050565b6020808252600e908201526d139bdd08185d5d1a1bdc9a5e995960921b604082015260600190565b634e487b7160e01b600052603260045260246000fd5b634e487b7160e01b600052601160045260246000fd5b600081600019048311821515161561232d5761232d6122fd565b500290565b634e487b7160e01b600052601260045260246000fd5b60008261235757612357612332565b500490565b6000808335601e1984360301811261237357600080fd5b8301803591506001600160401b0382111561238d57600080fd5b6020019150368190038213156123a257600080fd5b9250929050565b60006000198214156123bd576123bd6122fd565b5060010190565b600083516123d6818460208801611ee7565b8351908301906123ea818360208801611ee7565b01949350505050565b60008219821115612406576124066122fd565b500190565b60408152600061241e6040830185611f13565b82810360208401526124308185611f13565b95945050505050565b6001600160a01b0385811682528416602082015260408101839052608060608201819052600090611ccd90830184611f13565b60006020828403121561247e57600080fd5b815161186381611eb4565b60008282101561249b5761249b6122fd565b500390565b6000826124af576124af612332565b500690565b600082516124c6818460208701611ee7565b919091019291505056fe416464726573733a206c6f772d6c6576656c2064656c65676174652063616c6c206661696c6564ddf252ad1be2c89b69c2b068fc378daa952ba7f163c4a11628f55a4df523b3efa26469706673582212201ef31301c49d9186406797af329e670a844534da62cfa79a72f19f0b4069f17f64736f6c63430008090033","opcodes":"PUSH1 0x80 PUSH1 0x40 MSTORE CALLVALUE DUP1 ISZERO PUSH3 0x11 JUMPI PUSH1 0x0 DUP1 REVERT JUMPDEST POP PUSH1 0x40 MLOAD PUSH3 0x294A CODESIZE SUB DUP1 PUSH3 0x294A DUP4 CODECOPY DUP2 ADD PUSH1 0x40 DUP2 SWAP1 MSTORE PUSH3 0x34 SWAP2 PUSH3 0x304 JUMP JUMPDEST DUP4 MLOAD DUP5 SWAP1 DUP5 SWAP1 PUSH3 0x4D SWAP1 PUSH1 0x2 SWAP1 PUSH1 0x20 DUP6 ADD SWAP1 PUSH3 0x191 JUMP JUMPDEST POP DUP1 MLOAD PUSH3 0x63 SWAP1 PUSH1 0x3 SWAP1 PUSH1 0x20 DUP5 ADD SWAP1 PUSH3 0x191 JUMP JUMPDEST POP POP PUSH1 0x0 DUP1 SSTORE POP PUSH3 0x75 CALLER PUSH3 0x94 JUMP JUMPDEST PUSH3 0x8A DUP3 PUSH1 0x1 PUSH1 0x1 PUSH1 0x80 SHL SUB DUP4 AND PUSH3 0xE6 JUMP JUMPDEST POP POP POP POP PUSH3 0x3ED JUMP JUMPDEST PUSH1 0x9 DUP1 SLOAD PUSH1 0x1 PUSH1 0x1 PUSH1 0xA0 SHL SUB DUP4 DUP2 AND PUSH1 0x1 PUSH1 0x1 PUSH1 0xA0 SHL SUB NOT DUP4 AND DUP2 OR SWAP1 SWAP4 SSTORE PUSH1 0x40 MLOAD SWAP2 AND SWAP2 SWAP1 DUP3 SWAP1 PUSH32 0x8292FCE18FA69EDF4DB7B94EA2E58241DF0AE57F97E0A6C9B29067028BF92D76 SWAP1 PUSH1 0x0 SWAP1 LOG3 POP POP JUMP JUMPDEST PUSH2 0x2710 DUP2 GT ISZERO PUSH3 0x12F JUMPI PUSH1 0x40 MLOAD PUSH3 0x461BCD PUSH1 0xE5 SHL DUP2 MSTORE PUSH1 0x20 PUSH1 0x4 DUP3 ADD MSTORE PUSH1 0xF PUSH1 0x24 DUP3 ADD MSTORE PUSH15 0x45786365656473206D617820627073 PUSH1 0x88 SHL PUSH1 0x44 DUP3 ADD MSTORE PUSH1 0x64 ADD PUSH1 0x40 MLOAD DUP1 SWAP2 SUB SWAP1 REVERT JUMPDEST PUSH1 0xA DUP1 SLOAD PUSH1 0x1 PUSH1 0x1 PUSH1 0xA0 SHL SUB DUP5 AND PUSH1 0x1 PUSH1 0x1 PUSH1 0xB0 SHL SUB NOT SWAP1 SWAP2 AND DUP2 OR PUSH1 0x1 PUSH1 0xA0 SHL PUSH2 0xFFFF DUP6 AND MUL OR SWAP1 SWAP2 SSTORE PUSH1 0x40 MLOAD DUP3 DUP2 MSTORE PUSH32 0x90D7EC04BCB8978719414F82E52E4CB651DB41D0E6F8CEA6118C2191E6183ADB SWAP1 PUSH1 0x20 ADD PUSH1 0x40 MLOAD DUP1 SWAP2 SUB SWAP1 LOG2 POP POP JUMP JUMPDEST DUP3 DUP1 SLOAD PUSH3 0x19F SWAP1 PUSH3 0x3B0 JUMP JUMPDEST SWAP1 PUSH1 0x0 MSTORE PUSH1 0x20 PUSH1 0x0 KECCAK256 SWAP1 PUSH1 0x1F ADD PUSH1 0x20 SWAP1 DIV DUP2 ADD SWAP3 DUP3 PUSH3 0x1C3 JUMPI PUSH1 0x0 DUP6 SSTORE PUSH3 0x20E JUMP JUMPDEST DUP3 PUSH1 0x1F LT PUSH3 0x1DE JUMPI DUP1 MLOAD PUSH1 0xFF NOT AND DUP4 DUP1 ADD OR DUP6 SSTORE PUSH3 0x20E JUMP JUMPDEST DUP3 DUP1 ADD PUSH1 0x1 ADD DUP6 SSTORE DUP3 ISZERO PUSH3 0x20E JUMPI SWAP2 DUP3 ADD JUMPDEST DUP3 DUP2 GT ISZERO PUSH3 0x20E JUMPI DUP3 MLOAD DUP3 SSTORE SWAP2 PUSH1 0x20 ADD SWAP2 SWAP1 PUSH1 0x1 ADD SWAP1 PUSH3 0x1F1 JUMP JUMPDEST POP PUSH3 0x21C SWAP3 SWAP2 POP PUSH3 0x220 JUMP JUMPDEST POP SWAP1 JUMP JUMPDEST JUMPDEST DUP1 DUP3 GT ISZERO PUSH3 0x21C JUMPI PUSH1 0x0 DUP2 SSTORE PUSH1 0x1 ADD PUSH3 0x221 JUMP JUMPDEST PUSH4 0x4E487B71 PUSH1 0xE0 SHL PUSH1 0x0 MSTORE PUSH1 0x41 PUSH1 0x4 MSTORE PUSH1 0x24 PUSH1 0x0 REVERT JUMPDEST PUSH1 0x0 DUP3 PUSH1 0x1F DUP4 ADD SLT PUSH3 0x25F JUMPI PUSH1 0x0 DUP1 REVERT JUMPDEST DUP2 MLOAD PUSH1 0x1 PUSH1 0x1 PUSH1 0x40 SHL SUB DUP1 DUP3 GT ISZERO PUSH3 0x27C JUMPI PUSH3 0x27C PUSH3 0x237 JUMP JUMPDEST PUSH1 0x40 MLOAD PUSH1 0x1F DUP4 ADD PUSH1 0x1F NOT SWAP1 DUP2 AND PUSH1 0x3F ADD AND DUP2 ADD SWAP1 DUP3 DUP3 GT DUP2 DUP4 LT OR ISZERO PUSH3 0x2A7 JUMPI PUSH3 0x2A7 PUSH3 0x237 JUMP JUMPDEST DUP2 PUSH1 0x40 MSTORE DUP4 DUP2 MSTORE PUSH1 0x20 SWAP3 POP DUP7 DUP4 DUP6 DUP9 ADD ADD GT ISZERO PUSH3 0x2C4 JUMPI PUSH1 0x0 DUP1 REVERT JUMPDEST PUSH1 0x0 SWAP2 POP JUMPDEST DUP4 DUP3 LT ISZERO PUSH3 0x2E8 JUMPI DUP6 DUP3 ADD DUP4 ADD MLOAD DUP2 DUP4 ADD DUP5 ADD MSTORE SWAP1 DUP3 ADD SWAP1 PUSH3 0x2C9 JUMP JUMPDEST DUP4 DUP3 GT ISZERO PUSH3 0x2FA JUMPI PUSH1 0x0 DUP4 DUP6 DUP4 ADD ADD MSTORE JUMPDEST SWAP7 SWAP6 POP POP POP POP POP POP JUMP JUMPDEST PUSH1 0x0 DUP1 PUSH1 0x0 DUP1 PUSH1 0x80 DUP6 DUP8 SUB SLT ISZERO PUSH3 0x31B JUMPI PUSH1 0x0 DUP1 REVERT JUMPDEST DUP5 MLOAD PUSH1 0x1 PUSH1 0x1 PUSH1 0x40 SHL SUB DUP1 DUP3 GT ISZERO PUSH3 0x333 JUMPI PUSH1 0x0 DUP1 REVERT JUMPDEST PUSH3 0x341 DUP9 DUP4 DUP10 ADD PUSH3 0x24D JUMP JUMPDEST SWAP6 POP PUSH1 0x20 DUP8 ADD MLOAD SWAP2 POP DUP1 DUP3 GT ISZERO PUSH3 0x358 JUMPI PUSH1 0x0 DUP1 REVERT JUMPDEST POP PUSH3 0x367 DUP8 DUP3 DUP9 ADD PUSH3 0x24D JUMP JUMPDEST PUSH1 0x40 DUP8 ADD MLOAD SWAP1 SWAP5 POP SWAP1 POP PUSH1 0x1 PUSH1 0x1 PUSH1 0xA0 SHL SUB DUP2 AND DUP2 EQ PUSH3 0x387 JUMPI PUSH1 0x0 DUP1 REVERT JUMPDEST PUSH1 0x60 DUP7 ADD MLOAD SWAP1 SWAP3 POP PUSH1 0x1 PUSH1 0x1 PUSH1 0x80 SHL SUB DUP2 AND DUP2 EQ PUSH3 0x3A5 JUMPI PUSH1 0x0 DUP1 REVERT JUMPDEST SWAP4 SWAP7 SWAP3 SWAP6 POP SWAP1 SWAP4 POP POP JUMP JUMPDEST PUSH1 0x1 DUP2 DUP2 SHR SWAP1 DUP3 AND DUP1 PUSH3 0x3C5 JUMPI PUSH1 0x7F DUP3 AND SWAP2 POP JUMPDEST PUSH1 0x20 DUP3 LT DUP2 EQ ISZERO PUSH3 0x3E7 JUMPI PUSH4 0x4E487B71 PUSH1 0xE0 SHL PUSH1 0x0 MSTORE PUSH1 0x22 PUSH1 0x4 MSTORE PUSH1 0x24 PUSH1 0x0 REVERT JUMPDEST POP SWAP2 SWAP1 POP JUMP JUMPDEST PUSH2 0x254D DUP1 PUSH3 0x3FD PUSH1 0x0 CODECOPY PUSH1 0x0 RETURN INVALID PUSH1 0x80 PUSH1 0x40 MSTORE CALLVALUE DUP1 ISZERO PUSH2 0x10 JUMPI PUSH1 0x0 DUP1 REVERT JUMPDEST POP PUSH1 0x4 CALLDATASIZE LT PUSH2 0x1E4 JUMPI PUSH1 0x0 CALLDATALOAD PUSH1 0xE0 SHR DUP1 PUSH4 0x600DD5EA GT PUSH2 0x10F JUMPI DUP1 PUSH4 0x9BCF7A15 GT PUSH2 0xA2 JUMPI DUP1 PUSH4 0xB88D4FDE GT PUSH2 0x71 JUMPI DUP1 PUSH4 0xB88D4FDE EQ PUSH2 0x454 JUMPI DUP1 PUSH4 0xC87B56DD EQ PUSH2 0x467 JUMPI DUP1 PUSH4 0xE8A3D485 EQ PUSH2 0x47A JUMPI DUP1 PUSH4 0xE985E9C5 EQ PUSH2 0x482 JUMPI PUSH1 0x0 DUP1 REVERT JUMPDEST DUP1 PUSH4 0x9BCF7A15 EQ PUSH2 0x3F0 JUMPI DUP1 PUSH4 0xA22CB465 EQ PUSH2 0x403 JUMPI DUP1 PUSH4 0xAC9650D8 EQ PUSH2 0x416 JUMPI DUP1 PUSH4 0xB24F2D39 EQ PUSH2 0x436 JUMPI PUSH1 0x0 DUP1 REVERT JUMPDEST DUP1 PUSH4 0x754A81D9 GT PUSH2 0xDE JUMPI DUP1 PUSH4 0x754A81D9 EQ PUSH2 0x3B1 JUMPI DUP1 PUSH4 0x8DA5CB5B EQ PUSH2 0x3C4 JUMPI DUP1 PUSH4 0x938E3D7B EQ PUSH2 0x3D5 JUMPI DUP1 PUSH4 0x95D89B41 EQ PUSH2 0x3E8 JUMPI PUSH1 0x0 DUP1 REVERT JUMPDEST DUP1 PUSH4 0x600DD5EA EQ PUSH2 0x370 JUMPI DUP1 PUSH4 0x6352211E EQ PUSH2 0x383 JUMPI DUP1 PUSH4 0x63B45E2D EQ PUSH2 0x396 JUMPI DUP1 PUSH4 0x70A08231 EQ PUSH2 0x39E JUMPI PUSH1 0x0 DUP1 REVERT JUMPDEST DUP1 PUSH4 0x23B872DD GT PUSH2 0x187 JUMPI DUP1 PUSH4 0x42842E0E GT PUSH2 0x156 JUMPI DUP1 PUSH4 0x42842E0E EQ PUSH2 0x302 JUMPI DUP1 PUSH4 0x42966C68 EQ PUSH2 0x315 JUMPI DUP1 PUSH4 0x430C2081 EQ PUSH2 0x328 JUMPI DUP1 PUSH4 0x4CC157DF EQ PUSH2 0x33B JUMPI PUSH1 0x0 DUP1 REVERT JUMPDEST DUP1 PUSH4 0x23B872DD EQ PUSH2 0x2A2 JUMPI DUP1 PUSH4 0x2419F51B EQ PUSH2 0x2B5 JUMPI DUP1 PUSH4 0x2A55205A EQ PUSH2 0x2C8 JUMPI DUP1 PUSH4 0x3B1475A7 EQ PUSH2 0x2FA JUMPI PUSH1 0x0 DUP1 REVERT JUMPDEST DUP1 PUSH4 0x81812FC GT PUSH2 0x1C3 JUMPI DUP1 PUSH4 0x81812FC EQ PUSH2 0x23B JUMPI DUP1 PUSH4 0x95EA7B3 EQ PUSH2 0x266 JUMPI DUP1 PUSH4 0x13AF4035 EQ PUSH2 0x279 JUMPI DUP1 PUSH4 0x18160DDD EQ PUSH2 0x28C JUMPI PUSH1 0x0 DUP1 REVERT JUMPDEST DUP1 PUSH3 0x75A317 EQ PUSH2 0x1E9 JUMPI DUP1 PUSH4 0x1FFC9A7 EQ PUSH2 0x1FE JUMPI DUP1 PUSH4 0x6FDDE03 EQ PUSH2 0x226 JUMPI JUMPDEST PUSH1 0x0 DUP1 REVERT JUMPDEST PUSH2 0x1FC PUSH2 0x1F7 CALLDATASIZE PUSH1 0x4 PUSH2 0x1E67 JUMP JUMPDEST PUSH2 0x4BE JUMP JUMPDEST STOP JUMPDEST PUSH2 0x211 PUSH2 0x20C CALLDATASIZE PUSH1 0x4 PUSH2 0x1ECA JUMP JUMPDEST PUSH2 0x542 JUMP JUMPDEST PUSH1 0x40 MLOAD SWAP1 ISZERO ISZERO DUP2 MSTORE PUSH1 0x20 ADD JUMPDEST PUSH1 0x40 MLOAD DUP1 SWAP2 SUB SWAP1 RETURN JUMPDEST PUSH2 0x22E PUSH2 0x5AF JUMP JUMPDEST PUSH1 0x40 MLOAD PUSH2 0x21D SWAP2 SWAP1 PUSH2 0x1F3F JUMP JUMPDEST PUSH2 0x24E PUSH2 0x249 CALLDATASIZE PUSH1 0x4 PUSH2 0x1F52 JUMP JUMPDEST PUSH2 0x641 JUMP JUMPDEST PUSH1 0x40 MLOAD PUSH1 0x1 PUSH1 0x1 PUSH1 0xA0 SHL SUB SWAP1 SWAP2 AND DUP2 MSTORE PUSH1 0x20 ADD PUSH2 0x21D JUMP JUMPDEST PUSH2 0x1FC PUSH2 0x274 CALLDATASIZE PUSH1 0x4 PUSH2 0x1F6B JUMP JUMPDEST PUSH2 0x685 JUMP JUMPDEST PUSH2 0x1FC PUSH2 0x287 CALLDATASIZE PUSH1 0x4 PUSH2 0x1F95 JUMP JUMPDEST PUSH2 0x70C JUMP JUMPDEST PUSH1 0x1 SLOAD PUSH1 0x0 SLOAD SUB JUMPDEST PUSH1 0x40 MLOAD SWAP1 DUP2 MSTORE PUSH1 0x20 ADD PUSH2 0x21D JUMP JUMPDEST PUSH2 0x1FC PUSH2 0x2B0 CALLDATASIZE PUSH1 0x4 PUSH2 0x1FB0 JUMP JUMPDEST PUSH2 0x73C JUMP JUMPDEST PUSH2 0x294 PUSH2 0x2C3 CALLDATASIZE PUSH1 0x4 PUSH2 0x1F52 JUMP JUMPDEST PUSH2 0x747 JUMP JUMPDEST PUSH2 0x2DB PUSH2 0x2D6 CALLDATASIZE PUSH1 0x4 PUSH2 0x1FEC JUMP JUMPDEST PUSH2 0x7B5 JUMP JUMPDEST PUSH1 0x40 DUP1 MLOAD PUSH1 0x1 PUSH1 0x1 PUSH1 0xA0 SHL SUB SWAP1 SWAP4 AND DUP4 MSTORE PUSH1 0x20 DUP4 ADD SWAP2 SWAP1 SWAP2 MSTORE ADD PUSH2 0x21D JUMP JUMPDEST PUSH1 0x0 SLOAD PUSH2 0x294 JUMP JUMPDEST PUSH2 0x1FC PUSH2 0x310 CALLDATASIZE PUSH1 0x4 PUSH2 0x1FB0 JUMP JUMPDEST PUSH2 0x7F2 JUMP JUMPDEST PUSH2 0x1FC PUSH2 0x323 CALLDATASIZE PUSH1 0x4 PUSH2 0x1F52 JUMP JUMPDEST PUSH2 0x80D JUMP JUMPDEST PUSH2 0x211 PUSH2 0x336 CALLDATASIZE PUSH1 0x4 PUSH2 0x1F6B JUMP JUMPDEST PUSH2 0x818 JUMP JUMPDEST PUSH2 0x34E PUSH2 0x349 CALLDATASIZE PUSH1 0x4 PUSH2 0x1F52 JUMP JUMPDEST PUSH2 0x897 JUMP JUMPDEST PUSH1 0x40 DUP1 MLOAD PUSH1 0x1 PUSH1 0x1 PUSH1 0xA0 SHL SUB SWAP1 SWAP4 AND DUP4 MSTORE PUSH2 0xFFFF SWAP1 SWAP2 AND PUSH1 0x20 DUP4 ADD MSTORE ADD PUSH2 0x21D JUMP JUMPDEST PUSH2 0x1FC PUSH2 0x37E CALLDATASIZE PUSH1 0x4 PUSH2 0x1F6B JUMP JUMPDEST PUSH2 0x902 JUMP JUMPDEST PUSH2 0x24E PUSH2 0x391 CALLDATASIZE PUSH1 0x4 PUSH2 0x1F52 JUMP JUMPDEST PUSH2 0x930 JUMP JUMPDEST PUSH1 0xC SLOAD PUSH2 0x294 JUMP JUMPDEST PUSH2 0x294 PUSH2 0x3AC CALLDATASIZE PUSH1 0x4 PUSH2 0x1F95 JUMP JUMPDEST PUSH2 0x942 JUMP JUMPDEST PUSH2 0x1FC PUSH2 0x3BF CALLDATASIZE PUSH1 0x4 PUSH2 0x200E JUMP JUMPDEST PUSH2 0x990 JUMP JUMPDEST PUSH1 0x9 SLOAD PUSH1 0x1 PUSH1 0x1 PUSH1 0xA0 SHL SUB AND PUSH2 0x24E JUMP JUMPDEST PUSH2 0x1FC PUSH2 0x3E3 CALLDATASIZE PUSH1 0x4 PUSH2 0x208B JUMP JUMPDEST PUSH2 0xA04 JUMP JUMPDEST PUSH2 0x22E PUSH2 0xA31 JUMP JUMPDEST PUSH2 0x1FC PUSH2 0x3FE CALLDATASIZE PUSH1 0x4 PUSH2 0x20BF JUMP JUMPDEST PUSH2 0xA40 JUMP JUMPDEST PUSH2 0x1FC PUSH2 0x411 CALLDATASIZE PUSH1 0x4 PUSH2 0x20E4 JUMP JUMPDEST PUSH2 0xA6F JUMP JUMPDEST PUSH2 0x429 PUSH2 0x424 CALLDATASIZE PUSH1 0x4 PUSH2 0x2120 JUMP JUMPDEST PUSH2 0xB05 JUMP JUMPDEST PUSH1 0x40 MLOAD PUSH2 0x21D SWAP2 SWAP1 PUSH2 0x2194 JUMP JUMPDEST PUSH1 0xA SLOAD PUSH1 0x1 PUSH1 0x1 PUSH1 0xA0 SHL SUB DUP2 AND SWAP1 PUSH1 0x1 PUSH1 0xA0 SHL SWAP1 DIV PUSH2 0xFFFF AND PUSH2 0x34E JUMP JUMPDEST PUSH2 0x1FC PUSH2 0x462 CALLDATASIZE PUSH1 0x4 PUSH2 0x21F6 JUMP JUMPDEST PUSH2 0xBF9 JUMP JUMPDEST PUSH2 0x22E PUSH2 0x475 CALLDATASIZE PUSH1 0x4 PUSH2 0x1F52 JUMP JUMPDEST PUSH2 0xC3D JUMP JUMPDEST PUSH2 0x22E PUSH2 0xD2B JUMP JUMPDEST PUSH2 0x211 PUSH2 0x490 CALLDATASIZE PUSH1 0x4 PUSH2 0x2251 JUMP JUMPDEST PUSH1 0x1 PUSH1 0x1 PUSH1 0xA0 SHL SUB SWAP2 DUP3 AND PUSH1 0x0 SWAP1 DUP2 MSTORE PUSH1 0x7 PUSH1 0x20 SWAP1 DUP2 MSTORE PUSH1 0x40 DUP1 DUP4 KECCAK256 SWAP4 SWAP1 SWAP5 AND DUP3 MSTORE SWAP2 SWAP1 SWAP2 MSTORE KECCAK256 SLOAD PUSH1 0xFF AND SWAP1 JUMP JUMPDEST PUSH2 0x4C6 PUSH2 0xDB9 JUMP JUMPDEST PUSH2 0x511 JUMPI PUSH1 0x40 MLOAD PUSH3 0x461BCD PUSH1 0xE5 SHL DUP2 MSTORE PUSH1 0x20 PUSH1 0x4 DUP3 ADD MSTORE PUSH1 0x17 PUSH1 0x24 DUP3 ADD MSTORE PUSH23 0x2737BA1030BABA3437B934BD32B2103A379036B4B73A17 PUSH1 0x49 SHL PUSH1 0x44 DUP3 ADD MSTORE PUSH1 0x64 ADD JUMPDEST PUSH1 0x40 MLOAD DUP1 SWAP2 SUB SWAP1 REVERT JUMPDEST PUSH2 0x523 PUSH2 0x51D PUSH1 0x0 SLOAD SWAP1 JUMP JUMPDEST DUP3 PUSH2 0xDE6 JUMP JUMPDEST PUSH2 0x53E DUP3 PUSH1 0x1 PUSH1 0x40 MLOAD DUP1 PUSH1 0x20 ADD PUSH1 0x40 MSTORE DUP1 PUSH1 0x0 DUP2 MSTORE POP PUSH2 0xE5F JUMP JUMPDEST POP POP JUMP JUMPDEST PUSH1 0x0 PUSH4 0x1FFC9A7 PUSH1 0xE0 SHL PUSH1 0x1 PUSH1 0x1 PUSH1 0xE0 SHL SUB NOT DUP4 AND EQ DUP1 PUSH2 0x573 JUMPI POP PUSH4 0x80AC58CD PUSH1 0xE0 SHL PUSH1 0x1 PUSH1 0x1 PUSH1 0xE0 SHL SUB NOT DUP4 AND EQ JUMPDEST DUP1 PUSH2 0x58E JUMPI POP PUSH4 0x5B5E139F PUSH1 0xE0 SHL PUSH1 0x1 PUSH1 0x1 PUSH1 0xE0 SHL SUB NOT DUP4 AND EQ JUMPDEST DUP1 PUSH2 0x5A9 JUMPI POP PUSH1 0x1 PUSH1 0x1 PUSH1 0xE0 SHL SUB NOT DUP3 AND PUSH4 0x152A902D PUSH1 0xE1 SHL EQ JUMPDEST SWAP3 SWAP2 POP POP JUMP JUMPDEST PUSH1 0x60 PUSH1 0x2 DUP1 SLOAD PUSH2 0x5BE SWAP1 PUSH2 0x2284 JUMP JUMPDEST DUP1 PUSH1 0x1F ADD PUSH1 0x20 DUP1 SWAP2 DIV MUL PUSH1 0x20 ADD PUSH1 0x40 MLOAD SWAP1 DUP2 ADD PUSH1 0x40 MSTORE DUP1 SWAP3 SWAP2 SWAP1 DUP2 DUP2 MSTORE PUSH1 0x20 ADD DUP3 DUP1 SLOAD PUSH2 0x5EA SWAP1 PUSH2 0x2284 JUMP JUMPDEST DUP1 ISZERO PUSH2 0x637 JUMPI DUP1 PUSH1 0x1F LT PUSH2 0x60C JUMPI PUSH2 0x100 DUP1 DUP4 SLOAD DIV MUL DUP4 MSTORE SWAP2 PUSH1 0x20 ADD SWAP2 PUSH2 0x637 JUMP JUMPDEST DUP3 ADD SWAP2 SWAP1 PUSH1 0x0 MSTORE PUSH1 0x20 PUSH1 0x0 KECCAK256 SWAP1 JUMPDEST DUP2 SLOAD DUP2 MSTORE SWAP1 PUSH1 0x1 ADD SWAP1 PUSH1 0x20 ADD DUP1 DUP4 GT PUSH2 0x61A JUMPI DUP3 SWAP1 SUB PUSH1 0x1F AND DUP3 ADD SWAP2 JUMPDEST POP POP POP POP POP SWAP1 POP SWAP1 JUMP JUMPDEST PUSH1 0x0 PUSH2 0x64C DUP3 PUSH2 0xFFF JUMP JUMPDEST PUSH2 0x669 JUMPI PUSH1 0x40 MLOAD PUSH4 0x33D1C039 PUSH1 0xE2 SHL DUP2 MSTORE PUSH1 0x4 ADD PUSH1 0x40 MLOAD DUP1 SWAP2 SUB SWAP1 REVERT JUMPDEST POP PUSH1 0x0 SWAP1 DUP2 MSTORE PUSH1 0x6 PUSH1 0x20 MSTORE PUSH1 0x40 SWAP1 KECCAK256 SLOAD PUSH1 0x1 PUSH1 0x1 PUSH1 0xA0 SHL SUB AND SWAP1 JUMP JUMPDEST PUSH1 0x0 PUSH2 0x690 DUP3 PUSH2 0x930 JUMP JUMPDEST SWAP1 POP DUP1 PUSH1 0x1 PUSH1 0x1 PUSH1 0xA0 SHL SUB AND DUP4 PUSH1 0x1 PUSH1 0x1 PUSH1 0xA0 SHL SUB AND EQ ISZERO PUSH2 0x6C5 JUMPI PUSH1 0x40 MLOAD PUSH4 0x250FDEE3 PUSH1 0xE2 SHL DUP2 MSTORE PUSH1 0x4 ADD PUSH1 0x40 MLOAD DUP1 SWAP2 SUB SWAP1 REVERT JUMPDEST CALLER PUSH1 0x1 PUSH1 0x1 PUSH1 0xA0 SHL SUB DUP3 AND EQ PUSH2 0x6FC JUMPI PUSH2 0x6DF DUP2 CALLER PUSH2 0x490 JUMP JUMPDEST PUSH2 0x6FC JUMPI PUSH1 0x40 MLOAD PUSH4 0x67D9DCA1 PUSH1 0xE1 SHL DUP2 MSTORE PUSH1 0x4 ADD PUSH1 0x40 MLOAD DUP1 SWAP2 SUB SWAP1 REVERT JUMPDEST PUSH2 0x707 DUP4 DUP4 DUP4 PUSH2 0x102A JUMP JUMPDEST POP POP POP JUMP JUMPDEST PUSH2 0x714 PUSH2 0xDB9 JUMP JUMPDEST PUSH2 0x730 JUMPI PUSH1 0x40 MLOAD PUSH3 0x461BCD PUSH1 0xE5 SHL DUP2 MSTORE PUSH1 0x4 ADD PUSH2 0x508 SWAP1 PUSH2 0x22BF JUMP JUMPDEST PUSH2 0x739 DUP2 PUSH2 0x1086 JUMP JUMPDEST POP JUMP JUMPDEST PUSH2 0x707 DUP4 DUP4 DUP4 PUSH2 0x10D8 JUMP JUMPDEST PUSH1 0x0 PUSH2 0x752 PUSH1 0xC SLOAD SWAP1 JUMP JUMPDEST DUP3 LT PUSH2 0x790 JUMPI PUSH1 0x40 MLOAD PUSH3 0x461BCD PUSH1 0xE5 SHL DUP2 MSTORE PUSH1 0x20 PUSH1 0x4 DUP3 ADD MSTORE PUSH1 0xD PUSH1 0x24 DUP3 ADD MSTORE PUSH13 0x92DCECC2D8D2C840D2DCC8CAF PUSH1 0x9B SHL PUSH1 0x44 DUP3 ADD MSTORE PUSH1 0x64 ADD PUSH2 0x508 JUMP JUMPDEST PUSH1 0xC DUP3 DUP2 SLOAD DUP2 LT PUSH2 0x7A3 JUMPI PUSH2 0x7A3 PUSH2 0x22E7 JUMP JUMPDEST SWAP1 PUSH1 0x0 MSTORE PUSH1 0x20 PUSH1 0x0 KECCAK256 ADD SLOAD SWAP1 POP SWAP2 SWAP1 POP JUMP JUMPDEST PUSH1 0x0 DUP1 PUSH1 0x0 DUP1 PUSH2 0x7C4 DUP7 PUSH2 0x897 JUMP JUMPDEST SWAP1 SWAP5 POP DUP5 SWAP3 POP PUSH2 0xFFFF AND SWAP1 POP PUSH2 0x2710 PUSH2 0x7DD DUP3 DUP8 PUSH2 0x2313 JUMP JUMPDEST PUSH2 0x7E7 SWAP2 SWAP1 PUSH2 0x2348 JUMP JUMPDEST SWAP3 POP POP POP SWAP3 POP SWAP3 SWAP1 POP JUMP JUMPDEST PUSH2 0x707 DUP4 DUP4 DUP4 PUSH1 0x40 MLOAD DUP1 PUSH1 0x20 ADD PUSH1 0x40 MSTORE DUP1 PUSH1 0x0 DUP2 MSTORE POP PUSH2 0xBF9 JUMP JUMPDEST PUSH2 0x739 DUP2 PUSH1 0x1 PUSH2 0x12B3 JUMP JUMPDEST PUSH1 0x0 DUP1 PUSH2 0x824 DUP4 PUSH2 0x930 JUMP JUMPDEST SWAP1 POP DUP1 PUSH1 0x1 PUSH1 0x1 PUSH1 0xA0 SHL SUB AND DUP5 PUSH1 0x1 PUSH1 0x1 PUSH1 0xA0 SHL SUB AND EQ DUP1 PUSH2 0x86B JUMPI POP PUSH1 0x1 PUSH1 0x1 PUSH1 0xA0 SHL SUB DUP1 DUP3 AND PUSH1 0x0 SWAP1 DUP2 MSTORE PUSH1 0x7 PUSH1 0x20 SWAP1 DUP2 MSTORE PUSH1 0x40 DUP1 DUP4 KECCAK256 SWAP4 DUP9 AND DUP4 MSTORE SWAP3 SWAP1 MSTORE KECCAK256 SLOAD PUSH1 0xFF AND JUMPDEST DUP1 PUSH2 0x88F JUMPI POP DUP4 PUSH1 0x1 PUSH1 0x1 PUSH1 0xA0 SHL SUB AND PUSH2 0x884 DUP5 PUSH2 0x641 JUMP JUMPDEST PUSH1 0x1 PUSH1 0x1 PUSH1 0xA0 SHL SUB AND EQ JUMPDEST SWAP5 SWAP4 POP POP POP POP JUMP JUMPDEST PUSH1 0x0 DUP2 DUP2 MSTORE PUSH1 0xB PUSH1 0x20 SWAP1 DUP2 MSTORE PUSH1 0x40 DUP1 DUP4 KECCAK256 DUP2 MLOAD DUP1 DUP4 ADD SWAP1 SWAP3 MSTORE DUP1 SLOAD PUSH1 0x1 PUSH1 0x1 PUSH1 0xA0 SHL SUB AND DUP1 DUP4 MSTORE PUSH1 0x1 SWAP1 SWAP2 ADD SLOAD SWAP3 DUP3 ADD SWAP3 SWAP1 SWAP3 MSTORE DUP3 SWAP2 ISZERO PUSH2 0x8DE JUMPI DUP1 MLOAD PUSH1 0x20 DUP3 ADD MLOAD PUSH2 0x8F8 JUMP JUMPDEST PUSH1 0xA SLOAD PUSH1 0x1 PUSH1 0x1 PUSH1 0xA0 SHL SUB DUP2 AND SWAP1 PUSH1 0x1 PUSH1 0xA0 SHL SWAP1 DIV PUSH2 0xFFFF AND JUMPDEST SWAP3 POP SWAP3 POP POP SWAP2 POP SWAP2 JUMP JUMPDEST PUSH2 0x90A PUSH2 0xDB9 JUMP JUMPDEST PUSH2 0x926 JUMPI PUSH1 0x40 MLOAD PUSH3 0x461BCD PUSH1 0xE5 SHL DUP2 MSTORE PUSH1 0x4 ADD PUSH2 0x508 SWAP1 PUSH2 0x22BF JUMP JUMPDEST PUSH2 0x53E DUP3 DUP3 PUSH2 0x1466 JUMP JUMPDEST PUSH1 0x0 PUSH2 0x93B DUP3 PUSH2 0x150C JUMP JUMPDEST MLOAD SWAP3 SWAP2 POP POP JUMP JUMPDEST PUSH1 0x0 PUSH1 0x1 PUSH1 0x1 PUSH1 0xA0 SHL SUB DUP3 AND PUSH2 0x96B JUMPI PUSH1 0x40 MLOAD PUSH4 0x23D3AD81 PUSH1 0xE2 SHL DUP2 MSTORE PUSH1 0x4 ADD PUSH1 0x40 MLOAD DUP1 SWAP2 SUB SWAP1 REVERT JUMPDEST POP PUSH1 0x1 PUSH1 0x1 PUSH1 0xA0 SHL SUB AND PUSH1 0x0 SWAP1 DUP2 MSTORE PUSH1 0x5 PUSH1 0x20 MSTORE PUSH1 0x40 SWAP1 KECCAK256 SLOAD PUSH1 0x1 PUSH1 0x1 PUSH1 0x40 SHL SUB AND SWAP1 JUMP JUMPDEST PUSH2 0x998 PUSH2 0xDB9 JUMP JUMPDEST PUSH2 0x9DE JUMPI PUSH1 0x40 MLOAD PUSH3 0x461BCD PUSH1 0xE5 SHL DUP2 MSTORE PUSH1 0x20 PUSH1 0x4 DUP3 ADD MSTORE PUSH1 0x17 PUSH1 0x24 DUP3 ADD MSTORE PUSH23 0x2737BA1030BABA3437B934BD32B2103A379036B4B73A17 PUSH1 0x49 SHL PUSH1 0x44 DUP3 ADD MSTORE PUSH1 0x64 ADD PUSH2 0x508 JUMP JUMPDEST PUSH2 0x9F1 PUSH2 0x9EA PUSH1 0x0 SLOAD SWAP1 JUMP JUMPDEST DUP5 DUP5 PUSH2 0x1626 JUMP JUMPDEST POP POP PUSH2 0x9FE DUP5 DUP5 DUP4 PUSH2 0xE5F JUMP JUMPDEST POP POP POP POP JUMP JUMPDEST PUSH2 0xA0C PUSH2 0xDB9 JUMP JUMPDEST PUSH2 0xA28 JUMPI PUSH1 0x40 MLOAD PUSH3 0x461BCD PUSH1 0xE5 SHL DUP2 MSTORE PUSH1 0x4 ADD PUSH2 0x508 SWAP1 PUSH2 0x22BF JUMP JUMPDEST PUSH2 0x739 DUP2 PUSH2 0x1693 JUMP JUMPDEST PUSH1 0x60 PUSH1 0x3 DUP1 SLOAD PUSH2 0x5BE SWAP1 PUSH2 0x2284 JUMP JUMPDEST PUSH2 0xA48 PUSH2 0xDB9 JUMP JUMPDEST PUSH2 0xA64 JUMPI PUSH1 0x40 MLOAD PUSH3 0x461BCD PUSH1 0xE5 SHL DUP2 MSTORE PUSH1 0x4 ADD PUSH2 0x508 SWAP1 PUSH2 0x22BF JUMP JUMPDEST PUSH2 0x707 DUP4 DUP4 DUP4 PUSH2 0x1775 JUMP JUMPDEST PUSH1 0x1 PUSH1 0x1 PUSH1 0xA0 SHL SUB DUP3 AND CALLER EQ ISZERO PUSH2 0xA99 JUMPI PUSH1 0x40 MLOAD PUSH4 0xB06307DB PUSH1 0xE0 SHL DUP2 MSTORE PUSH1 0x4 ADD PUSH1 0x40 MLOAD DUP1 SWAP2 SUB SWAP1 REVERT JUMPDEST CALLER PUSH1 0x0 DUP2 DUP2 MSTORE PUSH1 0x7 PUSH1 0x20 SWAP1 DUP2 MSTORE PUSH1 0x40 DUP1 DUP4 KECCAK256 PUSH1 0x1 PUSH1 0x1 PUSH1 0xA0 SHL SUB DUP8 AND DUP1 DUP6 MSTORE SWAP1 DUP4 MSTORE SWAP3 DUP2 SWAP1 KECCAK256 DUP1 SLOAD PUSH1 0xFF NOT AND DUP7 ISZERO ISZERO SWAP1 DUP2 OR SWAP1 SWAP2 SSTORE SWAP1 MLOAD SWAP1 DUP2 MSTORE SWAP2 SWAP3 SWAP2 PUSH32 0x17307EAB39AB6107E8899845AD3D59BD9653F200F220920489CA2B5937696C31 SWAP2 ADD PUSH1 0x40 MLOAD DUP1 SWAP2 SUB SWAP1 LOG3 POP POP JUMP JUMPDEST PUSH1 0x60 DUP2 PUSH1 0x1 PUSH1 0x1 PUSH1 0x40 SHL SUB DUP2 GT ISZERO PUSH2 0xB1F JUMPI PUSH2 0xB1F PUSH2 0x1DC5 JUMP JUMPDEST PUSH1 0x40 MLOAD SWAP1 DUP1 DUP3 MSTORE DUP1 PUSH1 0x20 MUL PUSH1 0x20 ADD DUP3 ADD PUSH1 0x40 MSTORE DUP1 ISZERO PUSH2 0xB52 JUMPI DUP2 PUSH1 0x20 ADD JUMPDEST PUSH1 0x60 DUP2 MSTORE PUSH1 0x20 ADD SWAP1 PUSH1 0x1 SWAP1 SUB SWAP1 DUP2 PUSH2 0xB3D JUMPI SWAP1 POP JUMPDEST POP SWAP1 POP PUSH1 0x0 JUMPDEST DUP3 DUP2 LT ISZERO PUSH2 0xBF2 JUMPI PUSH2 0xBC2 ADDRESS DUP6 DUP6 DUP5 DUP2 DUP2 LT PUSH2 0xB76 JUMPI PUSH2 0xB76 PUSH2 0x22E7 JUMP JUMPDEST SWAP1 POP PUSH1 0x20 MUL DUP2 ADD SWAP1 PUSH2 0xB88 SWAP2 SWAP1 PUSH2 0x235C JUMP JUMPDEST DUP1 DUP1 PUSH1 0x1F ADD PUSH1 0x20 DUP1 SWAP2 DIV MUL PUSH1 0x20 ADD PUSH1 0x40 MLOAD SWAP1 DUP2 ADD PUSH1 0x40 MSTORE DUP1 SWAP4 SWAP3 SWAP2 SWAP1 DUP2 DUP2 MSTORE PUSH1 0x20 ADD DUP4 DUP4 DUP1 DUP3 DUP5 CALLDATACOPY PUSH1 0x0 SWAP3 ADD SWAP2 SWAP1 SWAP2 MSTORE POP PUSH2 0x183E SWAP3 POP POP POP JUMP JUMPDEST DUP3 DUP3 DUP2 MLOAD DUP2 LT PUSH2 0xBD4 JUMPI PUSH2 0xBD4 PUSH2 0x22E7 JUMP JUMPDEST PUSH1 0x20 MUL PUSH1 0x20 ADD ADD DUP2 SWAP1 MSTORE POP DUP1 DUP1 PUSH2 0xBEA SWAP1 PUSH2 0x23A9 JUMP JUMPDEST SWAP2 POP POP PUSH2 0xB58 JUMP JUMPDEST POP SWAP3 SWAP2 POP POP JUMP JUMPDEST PUSH2 0xC04 DUP5 DUP5 DUP5 PUSH2 0x10D8 JUMP JUMPDEST PUSH1 0x1 PUSH1 0x1 PUSH1 0xA0 SHL SUB DUP4 AND EXTCODESIZE ISZERO PUSH2 0x9FE JUMPI PUSH2 0xC20 DUP5 DUP5 DUP5 DUP5 PUSH2 0x186A JUMP JUMPDEST PUSH2 0x9FE JUMPI PUSH1 0x40 MLOAD PUSH4 0x68D2BF6B PUSH1 0xE1 SHL DUP2 MSTORE PUSH1 0x4 ADD PUSH1 0x40 MLOAD DUP1 SWAP2 SUB SWAP1 REVERT JUMPDEST PUSH1 0x0 DUP2 DUP2 MSTORE PUSH1 0xE PUSH1 0x20 MSTORE PUSH1 0x40 DUP2 KECCAK256 DUP1 SLOAD PUSH1 0x60 SWAP3 SWAP2 SWAP1 PUSH2 0xC5B SWAP1 PUSH2 0x2284 JUMP JUMPDEST DUP1 PUSH1 0x1F ADD PUSH1 0x20 DUP1 SWAP2 DIV MUL PUSH1 0x20 ADD PUSH1 0x40 MLOAD SWAP1 DUP2 ADD PUSH1 0x40 MSTORE DUP1 SWAP3 SWAP2 SWAP1 DUP2 DUP2 MSTORE PUSH1 0x20 ADD DUP3 DUP1 SLOAD PUSH2 0xC87 SWAP1 PUSH2 0x2284 JUMP JUMPDEST DUP1 ISZERO PUSH2 0xCD4 JUMPI DUP1 PUSH1 0x1F LT PUSH2 0xCA9 JUMPI PUSH2 0x100 DUP1 DUP4 SLOAD DIV MUL DUP4 MSTORE SWAP2 PUSH1 0x20 ADD SWAP2 PUSH2 0xCD4 JUMP JUMPDEST DUP3 ADD SWAP2 SWAP1 PUSH1 0x0 MSTORE PUSH1 0x20 PUSH1 0x0 KECCAK256 SWAP1 JUMPDEST DUP2 SLOAD DUP2 MSTORE SWAP1 PUSH1 0x1 ADD SWAP1 PUSH1 0x20 ADD DUP1 DUP4 GT PUSH2 0xCB7 JUMPI DUP3 SWAP1 SUB PUSH1 0x1F AND DUP3 ADD SWAP2 JUMPDEST POP POP POP POP POP SWAP1 POP PUSH1 0x0 DUP2 MLOAD GT ISZERO PUSH2 0xCEB JUMPI SWAP3 SWAP2 POP POP JUMP JUMPDEST PUSH1 0x0 PUSH2 0xCF6 DUP5 PUSH2 0x1961 JUMP JUMPDEST SWAP1 POP DUP1 PUSH2 0xD02 DUP6 PUSH2 0x1AFD JUMP JUMPDEST PUSH1 0x40 MLOAD PUSH1 0x20 ADD PUSH2 0xD13 SWAP3 SWAP2 SWAP1 PUSH2 0x23C4 JUMP JUMPDEST PUSH1 0x40 MLOAD PUSH1 0x20 DUP2 DUP4 SUB SUB DUP2 MSTORE SWAP1 PUSH1 0x40 MSTORE SWAP3 POP POP POP SWAP2 SWAP1 POP JUMP JUMPDEST PUSH1 0x8 DUP1 SLOAD PUSH2 0xD38 SWAP1 PUSH2 0x2284 JUMP JUMPDEST DUP1 PUSH1 0x1F ADD PUSH1 0x20 DUP1 SWAP2 DIV MUL PUSH1 0x20 ADD PUSH1 0x40 MLOAD SWAP1 DUP2 ADD PUSH1 0x40 MSTORE DUP1 SWAP3 SWAP2 SWAP1 DUP2 DUP2 MSTORE PUSH1 0x20 ADD DUP3 DUP1 SLOAD PUSH2 0xD64 SWAP1 PUSH2 0x2284 JUMP JUMPDEST DUP1 ISZERO PUSH2 0xDB1 JUMPI DUP1 PUSH1 0x1F LT PUSH2 0xD86 JUMPI PUSH2 0x100 DUP1 DUP4 SLOAD DIV MUL DUP4 MSTORE SWAP2 PUSH1 0x20 ADD SWAP2 PUSH2 0xDB1 JUMP JUMPDEST DUP3 ADD SWAP2 SWAP1 PUSH1 0x0 MSTORE PUSH1 0x20 PUSH1 0x0 KECCAK256 SWAP1 JUMPDEST DUP2 SLOAD DUP2 MSTORE SWAP1 PUSH1 0x1 ADD SWAP1 PUSH1 0x20 ADD DUP1 DUP4 GT PUSH2 0xD94 JUMPI DUP3 SWAP1 SUB PUSH1 0x1F AND DUP3 ADD SWAP2 JUMPDEST POP POP POP POP POP DUP2 JUMP JUMPDEST PUSH1 0x0 PUSH2 0xDCD PUSH1 0x9 SLOAD PUSH1 0x1 PUSH1 0x1 PUSH1 0xA0 SHL SUB AND SWAP1 JUMP JUMPDEST PUSH1 0x1 PUSH1 0x1 PUSH1 0xA0 SHL SUB AND CALLER PUSH1 0x1 PUSH1 0x1 PUSH1 0xA0 SHL SUB AND EQ SWAP1 POP SWAP1 JUMP JUMPDEST PUSH1 0x0 DUP3 DUP2 MSTORE PUSH1 0xE PUSH1 0x20 MSTORE PUSH1 0x40 SWAP1 KECCAK256 DUP1 SLOAD PUSH2 0xDFF SWAP1 PUSH2 0x2284 JUMP JUMPDEST ISZERO SWAP1 POP PUSH2 0xE40 JUMPI PUSH1 0x40 MLOAD PUSH3 0x461BCD PUSH1 0xE5 SHL DUP2 MSTORE PUSH1 0x20 PUSH1 0x4 DUP3 ADD MSTORE PUSH1 0xF PUSH1 0x24 DUP3 ADD MSTORE PUSH15 0x15549248185B1C9958591E481CD95D PUSH1 0x8A SHL PUSH1 0x44 DUP3 ADD MSTORE PUSH1 0x64 ADD PUSH2 0x508 JUMP JUMPDEST PUSH1 0x0 DUP3 DUP2 MSTORE PUSH1 0xE PUSH1 0x20 SWAP1 DUP2 MSTORE PUSH1 0x40 SWAP1 SWAP2 KECCAK256 DUP3 MLOAD PUSH2 0x707 SWAP3 DUP5 ADD SWAP1 PUSH2 0x1D10 JUMP JUMPDEST PUSH1 0x0 SLOAD PUSH1 0x1 PUSH1 0x1 PUSH1 0xA0 SHL SUB DUP5 AND PUSH2 0xE88 JUMPI PUSH1 0x40 MLOAD PUSH3 0x2E0763 PUSH1 0xE8 SHL DUP2 MSTORE PUSH1 0x4 ADD PUSH1 0x40 MLOAD DUP1 SWAP2 SUB SWAP1 REVERT JUMPDEST DUP3 PUSH2 0xEA6 JUMPI PUSH1 0x40 MLOAD PUSH4 0xB562E8DD PUSH1 0xE0 SHL DUP2 MSTORE PUSH1 0x4 ADD PUSH1 0x40 MLOAD DUP1 SWAP2 SUB SWAP1 REVERT JUMPDEST PUSH1 0x1 PUSH1 0x1 PUSH1 0xA0 SHL SUB DUP5 AND PUSH1 0x0 DUP2 DUP2 MSTORE PUSH1 0x5 PUSH1 0x20 SWAP1 DUP2 MSTORE PUSH1 0x40 DUP1 DUP4 KECCAK256 DUP1 SLOAD PUSH16 0xFFFFFFFFFFFFFFFFFFFFFFFFFFFFFFFF NOT DUP2 AND PUSH1 0x1 PUSH1 0x1 PUSH1 0x40 SHL SUB DUP1 DUP4 AND DUP12 ADD DUP2 AND SWAP2 DUP3 OR PUSH9 0x10000000000000000 PUSH8 0xFFFFFFFFFFFFFFFF NOT SWAP1 SWAP5 AND SWAP1 SWAP3 OR DUP4 SWAP1 DIV DUP2 AND DUP12 ADD DUP2 AND SWAP1 SWAP3 MUL OR SWAP1 SWAP2 SSTORE DUP6 DUP5 MSTORE PUSH1 0x4 SWAP1 SWAP3 MSTORE SWAP1 SWAP2 KECCAK256 DUP1 SLOAD PUSH1 0x1 PUSH1 0x1 PUSH1 0xE0 SHL SUB NOT AND DUP4 OR PUSH1 0x1 PUSH1 0xA0 SHL TIMESTAMP SWAP1 SWAP4 AND SWAP3 SWAP1 SWAP3 MUL SWAP2 SWAP1 SWAP2 OR SWAP1 SSTORE DUP2 SWAP1 DUP2 DUP6 ADD SWAP1 EXTCODESIZE ISZERO PUSH2 0xFBC JUMPI JUMPDEST PUSH1 0x40 MLOAD DUP3 SWAP1 PUSH1 0x1 PUSH1 0x1 PUSH1 0xA0 SHL SUB DUP9 AND SWAP1 PUSH1 0x0 SWAP1 PUSH1 0x0 DUP1 MLOAD PUSH1 0x20 PUSH2 0x24F8 DUP4 CODECOPY DUP2 MLOAD SWAP2 MSTORE SWAP1 DUP3 SWAP1 LOG4 PUSH2 0xF85 PUSH1 0x0 DUP8 DUP5 DUP1 PUSH1 0x1 ADD SWAP6 POP DUP8 PUSH2 0x186A JUMP JUMPDEST PUSH2 0xFA2 JUMPI PUSH1 0x40 MLOAD PUSH4 0x68D2BF6B PUSH1 0xE1 SHL DUP2 MSTORE PUSH1 0x4 ADD PUSH1 0x40 MLOAD DUP1 SWAP2 SUB SWAP1 REVERT JUMPDEST DUP1 DUP3 LT PUSH2 0xF4C JUMPI DUP3 PUSH1 0x0 SLOAD EQ PUSH2 0xFB7 JUMPI PUSH1 0x0 DUP1 REVERT JUMPDEST PUSH2 0xFEF JUMP JUMPDEST JUMPDEST PUSH1 0x40 MLOAD PUSH1 0x1 DUP4 ADD SWAP3 SWAP1 PUSH1 0x1 PUSH1 0x1 PUSH1 0xA0 SHL SUB DUP9 AND SWAP1 PUSH1 0x0 SWAP1 PUSH1 0x0 DUP1 MLOAD PUSH1 0x20 PUSH2 0x24F8 DUP4 CODECOPY DUP2 MLOAD SWAP2 MSTORE SWAP1 DUP3 SWAP1 LOG4 DUP1 DUP3 LT PUSH2 0xFBD JUMPI JUMPDEST POP PUSH1 0x0 SWAP1 DUP2 SSTORE PUSH2 0x9FE SWAP1 DUP6 DUP4 DUP7 DUP5 JUMP JUMPDEST PUSH1 0x0 DUP1 SLOAD DUP3 LT DUP1 ISZERO PUSH2 0x5A9 JUMPI POP POP PUSH1 0x0 SWAP1 DUP2 MSTORE PUSH1 0x4 PUSH1 0x20 MSTORE PUSH1 0x40 SWAP1 KECCAK256 SLOAD PUSH1 0x1 PUSH1 0xE0 SHL SWAP1 DIV PUSH1 0xFF AND ISZERO SWAP1 JUMP JUMPDEST PUSH1 0x0 DUP3 DUP2 MSTORE PUSH1 0x6 PUSH1 0x20 MSTORE PUSH1 0x40 DUP1 DUP3 KECCAK256 DUP1 SLOAD PUSH1 0x1 PUSH1 0x1 PUSH1 0xA0 SHL SUB NOT AND PUSH1 0x1 PUSH1 0x1 PUSH1 0xA0 SHL SUB DUP8 DUP2 AND SWAP2 DUP3 OR SWAP1 SWAP3 SSTORE SWAP2 MLOAD DUP6 SWAP4 SWAP2 DUP6 AND SWAP2 PUSH32 0x8C5BE1E5EBEC7D5BD14F71427D1E84F3DD0314C0F7B2291E5B200AC8C7C3B925 SWAP2 LOG4 POP POP POP JUMP JUMPDEST PUSH1 0x9 DUP1 SLOAD PUSH1 0x1 PUSH1 0x1 PUSH1 0xA0 SHL SUB DUP4 DUP2 AND PUSH1 0x1 PUSH1 0x1 PUSH1 0xA0 SHL SUB NOT DUP4 AND DUP2 OR SWAP1 SWAP4 SSTORE PUSH1 0x40 MLOAD SWAP2 AND SWAP2 SWAP1 DUP3 SWAP1 PUSH32 0x8292FCE18FA69EDF4DB7B94EA2E58241DF0AE57F97E0A6C9B29067028BF92D76 SWAP1 PUSH1 0x0 SWAP1 LOG3 POP POP JUMP JUMPDEST PUSH1 0x0 PUSH2 0x10E3 DUP3 PUSH2 0x150C JUMP JUMPDEST SWAP1 POP DUP4 PUSH1 0x1 PUSH1 0x1 PUSH1 0xA0 SHL SUB AND DUP2 PUSH1 0x0 ADD MLOAD PUSH1 0x1 PUSH1 0x1 PUSH1 0xA0 SHL SUB AND EQ PUSH2 0x111A JUMPI PUSH1 0x40 MLOAD PUSH3 0xA11481 PUSH1 0xE8 SHL DUP2 MSTORE PUSH1 0x4 ADD PUSH1 0x40 MLOAD DUP1 SWAP2 SUB SWAP1 REVERT JUMPDEST PUSH1 0x0 CALLER PUSH1 0x1 PUSH1 0x1 PUSH1 0xA0 SHL SUB DUP7 AND EQ DUP1 PUSH2 0x1138 JUMPI POP PUSH2 0x1138 DUP6 CALLER PUSH2 0x490 JUMP JUMPDEST DUP1 PUSH2 0x1153 JUMPI POP CALLER PUSH2 0x1148 DUP5 PUSH2 0x641 JUMP JUMPDEST PUSH1 0x1 PUSH1 0x1 PUSH1 0xA0 SHL SUB AND EQ JUMPDEST SWAP1 POP DUP1 PUSH2 0x1173 JUMPI PUSH1 0x40 MLOAD PUSH4 0x2CE44B5F PUSH1 0xE1 SHL DUP2 MSTORE PUSH1 0x4 ADD PUSH1 0x40 MLOAD DUP1 SWAP2 SUB SWAP1 REVERT JUMPDEST PUSH1 0x1 PUSH1 0x1 PUSH1 0xA0 SHL SUB DUP5 AND PUSH2 0x119A JUMPI PUSH1 0x40 MLOAD PUSH4 0x3A954ECD PUSH1 0xE2 SHL DUP2 MSTORE PUSH1 0x4 ADD PUSH1 0x40 MLOAD DUP1 SWAP2 SUB SWAP1 REVERT JUMPDEST PUSH2 0x11A6 PUSH1 0x0 DUP5 DUP8 PUSH2 0x102A JUMP JUMPDEST PUSH1 0x1 PUSH1 0x1 PUSH1 0xA0 SHL SUB DUP6 DUP2 AND PUSH1 0x0 SWAP1 DUP2 MSTORE PUSH1 0x5 PUSH1 0x20 SWAP1 DUP2 MSTORE PUSH1 0x40 DUP1 DUP4 KECCAK256 DUP1 SLOAD PUSH8 0xFFFFFFFFFFFFFFFF NOT DUP1 DUP3 AND PUSH1 0x1 PUSH1 0x1 PUSH1 0x40 SHL SUB SWAP3 DUP4 AND PUSH1 0x0 NOT ADD DUP4 AND OR SWAP1 SWAP3 SSTORE DUP10 DUP7 AND DUP1 DUP7 MSTORE DUP4 DUP7 KECCAK256 DUP1 SLOAD SWAP4 DUP5 AND SWAP4 DUP4 AND PUSH1 0x1 SWAP1 DUP2 ADD DUP5 AND SWAP5 SWAP1 SWAP5 OR SWAP1 SSTORE DUP10 DUP7 MSTORE PUSH1 0x4 SWAP1 SWAP5 MSTORE DUP3 DUP6 KECCAK256 DUP1 SLOAD PUSH1 0x1 PUSH1 0x1 PUSH1 0xE0 SHL SUB NOT AND SWAP1 SWAP5 OR PUSH1 0x1 PUSH1 0xA0 SHL TIMESTAMP SWAP1 SWAP3 AND SWAP2 SWAP1 SWAP2 MUL OR DUP4 SSTORE DUP8 ADD DUP1 DUP5 MSTORE SWAP3 KECCAK256 DUP1 SLOAD SWAP2 SWAP4 SWAP1 SWAP2 AND PUSH2 0x127A JUMPI PUSH1 0x0 SLOAD DUP3 EQ PUSH2 0x127A JUMPI DUP1 SLOAD PUSH1 0x20 DUP7 ADD MLOAD PUSH1 0x1 PUSH1 0x1 PUSH1 0x40 SHL SUB AND PUSH1 0x1 PUSH1 0xA0 SHL MUL PUSH1 0x1 PUSH1 0x1 PUSH1 0xE0 SHL SUB NOT SWAP1 SWAP2 AND PUSH1 0x1 PUSH1 0x1 PUSH1 0xA0 SHL SUB DUP11 AND OR OR DUP2 SSTORE JUMPDEST POP POP POP DUP3 DUP5 PUSH1 0x1 PUSH1 0x1 PUSH1 0xA0 SHL SUB AND DUP7 PUSH1 0x1 PUSH1 0x1 PUSH1 0xA0 SHL SUB AND PUSH1 0x0 DUP1 MLOAD PUSH1 0x20 PUSH2 0x24F8 DUP4 CODECOPY DUP2 MLOAD SWAP2 MSTORE PUSH1 0x40 MLOAD PUSH1 0x40 MLOAD DUP1 SWAP2 SUB SWAP1 LOG4 POP POP POP POP POP JUMP JUMPDEST PUSH1 0x0 PUSH2 0x12BE DUP4 PUSH2 0x150C JUMP JUMPDEST DUP1 MLOAD SWAP1 SWAP2 POP DUP3 ISZERO PUSH2 0x1324 JUMPI PUSH1 0x0 CALLER PUSH1 0x1 PUSH1 0x1 PUSH1 0xA0 SHL SUB DUP4 AND EQ DUP1 PUSH2 0x12E7 JUMPI POP PUSH2 0x12E7 DUP3 CALLER PUSH2 0x490 JUMP JUMPDEST DUP1 PUSH2 0x1302 JUMPI POP CALLER PUSH2 0x12F7 DUP7 PUSH2 0x641 JUMP JUMPDEST PUSH1 0x1 PUSH1 0x1 PUSH1 0xA0 SHL SUB AND EQ JUMPDEST SWAP1 POP DUP1 PUSH2 0x1322 JUMPI PUSH1 0x40 MLOAD PUSH4 0x2CE44B5F PUSH1 0xE1 SHL DUP2 MSTORE PUSH1 0x4 ADD PUSH1 0x40 MLOAD DUP1 SWAP2 SUB SWAP1 REVERT JUMPDEST POP JUMPDEST PUSH2 0x1330 PUSH1 0x0 DUP6 DUP4 PUSH2 0x102A JUMP JUMPDEST PUSH1 0x1 PUSH1 0x1 PUSH1 0xA0 SHL SUB DUP1 DUP3 AND PUSH1 0x0 DUP2 DUP2 MSTORE PUSH1 0x5 PUSH1 0x20 SWAP1 DUP2 MSTORE PUSH1 0x40 DUP1 DUP4 KECCAK256 DUP1 SLOAD PUSH1 0x1 PUSH1 0x80 SHL PUSH1 0x0 NOT PUSH1 0x1 PUSH1 0x1 PUSH1 0x40 SHL SUB DUP1 DUP5 AND SWAP2 SWAP1 SWAP2 ADD DUP2 AND PUSH8 0xFFFFFFFFFFFFFFFF NOT DUP5 AND DUP2 OR DUP4 SWAP1 DIV DUP3 AND PUSH1 0x1 SWAP1 DUP2 ADD DUP4 AND SWAP1 SWAP4 MUL PUSH24 0xFFFFFFFFFFFFFFFF0000000000000000FFFFFFFFFFFFFFFF NOT SWAP1 SWAP5 AND OR SWAP3 SWAP1 SWAP3 OR DUP4 SSTORE DUP12 DUP7 MSTORE PUSH1 0x4 SWAP1 SWAP5 MSTORE DUP3 DUP6 KECCAK256 DUP1 SLOAD PUSH1 0xFF PUSH1 0xE0 SHL NOT TIMESTAMP SWAP1 SWAP4 AND PUSH1 0x1 PUSH1 0xA0 SHL MUL PUSH1 0x1 PUSH1 0x1 PUSH1 0xE0 SHL SUB NOT SWAP1 SWAP2 AND SWAP1 SWAP8 OR SWAP7 SWAP1 SWAP7 OR AND PUSH1 0x1 PUSH1 0xE0 SHL OR DUP6 SSTORE SWAP2 DUP10 ADD DUP1 DUP5 MSTORE SWAP3 KECCAK256 DUP1 SLOAD SWAP2 SWAP5 SWAP1 SWAP2 AND PUSH2 0x142E JUMPI PUSH1 0x0 SLOAD DUP3 EQ PUSH2 0x142E JUMPI DUP1 SLOAD PUSH1 0x20 DUP8 ADD MLOAD PUSH1 0x1 PUSH1 0x1 PUSH1 0x40 SHL SUB AND PUSH1 0x1 PUSH1 0xA0 SHL MUL PUSH1 0x1 PUSH1 0x1 PUSH1 0xE0 SHL SUB NOT SWAP1 SWAP2 AND PUSH1 0x1 PUSH1 0x1 PUSH1 0xA0 SHL SUB DUP8 AND OR OR DUP2 SSTORE JUMPDEST POP POP PUSH1 0x40 MLOAD DUP7 SWAP3 POP PUSH1 0x0 SWAP2 POP PUSH1 0x1 PUSH1 0x1 PUSH1 0xA0 SHL SUB DUP5 AND SWAP1 PUSH1 0x0 DUP1 MLOAD PUSH1 0x20 PUSH2 0x24F8 DUP4 CODECOPY DUP2 MLOAD SWAP2 MSTORE SWAP1 DUP4 SWAP1 LOG4 POP POP PUSH1 0x1 DUP1 SLOAD DUP2 ADD SWAP1 SSTORE POP POP JUMP JUMPDEST PUSH2 0x2710 DUP2 GT ISZERO PUSH2 0x14AA JUMPI PUSH1 0x40 MLOAD PUSH3 0x461BCD PUSH1 0xE5 SHL DUP2 MSTORE PUSH1 0x20 PUSH1 0x4 DUP3 ADD MSTORE PUSH1 0xF PUSH1 0x24 DUP3 ADD MSTORE PUSH15 0x45786365656473206D617820627073 PUSH1 0x88 SHL PUSH1 0x44 DUP3 ADD MSTORE PUSH1 0x64 ADD PUSH2 0x508 JUMP JUMPDEST PUSH1 0xA DUP1 SLOAD PUSH1 0x1 PUSH1 0x1 PUSH1 0xA0 SHL SUB DUP5 AND PUSH1 0x1 PUSH1 0x1 PUSH1 0xB0 SHL SUB NOT SWAP1 SWAP2 AND DUP2 OR PUSH1 0x1 PUSH1 0xA0 SHL PUSH2 0xFFFF DUP6 AND MUL OR SWAP1 SWAP2 SSTORE PUSH1 0x40 MLOAD DUP3 DUP2 MSTORE PUSH32 0x90D7EC04BCB8978719414F82E52E4CB651DB41D0E6F8CEA6118C2191E6183ADB SWAP1 PUSH1 0x20 ADD PUSH1 0x40 MLOAD DUP1 SWAP2 SUB SWAP1 LOG2 POP POP JUMP JUMPDEST PUSH1 0x40 DUP1 MLOAD PUSH1 0x60 DUP2 ADD DUP3 MSTORE PUSH1 0x0 DUP1 DUP3 MSTORE PUSH1 0x20 DUP3 ADD DUP2 SWAP1 MSTORE SWAP2 DUP2 ADD SWAP2 SWAP1 SWAP2 MSTORE DUP2 PUSH1 0x0 SLOAD DUP2 LT ISZERO PUSH2 0x160D JUMPI PUSH1 0x0 DUP2 DUP2 MSTORE PUSH1 0x4 PUSH1 0x20 SWAP1 DUP2 MSTORE PUSH1 0x40 SWAP2 DUP3 SWAP1 KECCAK256 DUP3 MLOAD PUSH1 0x60 DUP2 ADD DUP5 MSTORE SWAP1 SLOAD PUSH1 0x1 PUSH1 0x1 PUSH1 0xA0 SHL SUB DUP2 AND DUP3 MSTORE PUSH1 0x1 PUSH1 0xA0 SHL DUP2 DIV PUSH1 0x1 PUSH1 0x1 PUSH1 0x40 SHL SUB AND SWAP3 DUP3 ADD SWAP3 SWAP1 SWAP3 MSTORE PUSH1 0x1 PUSH1 0xE0 SHL SWAP1 SWAP2 DIV PUSH1 0xFF AND ISZERO ISZERO SWAP2 DUP2 ADD DUP3 SWAP1 MSTORE SWAP1 PUSH2 0x160B JUMPI DUP1 MLOAD PUSH1 0x1 PUSH1 0x1 PUSH1 0xA0 SHL SUB AND ISZERO PUSH2 0x15A2 JUMPI SWAP4 SWAP3 POP POP POP JUMP JUMPDEST POP PUSH1 0x0 NOT ADD PUSH1 0x0 DUP2 DUP2 MSTORE PUSH1 0x4 PUSH1 0x20 SWAP1 DUP2 MSTORE PUSH1 0x40 SWAP2 DUP3 SWAP1 KECCAK256 DUP3 MLOAD PUSH1 0x60 DUP2 ADD DUP5 MSTORE SWAP1 SLOAD PUSH1 0x1 PUSH1 0x1 PUSH1 0xA0 SHL SUB DUP2 AND DUP1 DUP4 MSTORE PUSH1 0x1 PUSH1 0xA0 SHL DUP3 DIV PUSH1 0x1 PUSH1 0x1 PUSH1 0x40 SHL SUB AND SWAP4 DUP4 ADD SWAP4 SWAP1 SWAP4 MSTORE PUSH1 0x1 PUSH1 0xE0 SHL SWAP1 DIV PUSH1 0xFF AND ISZERO ISZERO SWAP3 DUP2 ADD SWAP3 SWAP1 SWAP3 MSTORE ISZERO PUSH2 0x1606 JUMPI SWAP4 SWAP3 POP POP POP JUMP JUMPDEST PUSH2 0x15A2 JUMP JUMPDEST POP JUMPDEST PUSH1 0x40 MLOAD PUSH4 0x6F96CDA1 PUSH1 0xE1 SHL DUP2 MSTORE PUSH1 0x4 ADD PUSH1 0x40 MLOAD DUP1 SWAP2 SUB SWAP1 REVERT JUMPDEST PUSH1 0x0 DUP1 PUSH2 0x1633 DUP5 DUP7 PUSH2 0x23F3 JUMP JUMPDEST PUSH1 0xC DUP1 SLOAD PUSH1 0x1 DUP2 ADD SWAP1 SWAP2 SSTORE PUSH32 0xDF6966C971051C3D54EC59162606531493A51404A002842F56009D7E5CF4A8C7 ADD DUP2 SWAP1 SSTORE PUSH1 0x0 DUP2 DUP2 MSTORE PUSH1 0xD PUSH1 0x20 SWAP1 DUP2 MSTORE PUSH1 0x40 SWAP1 SWAP2 KECCAK256 DUP6 MLOAD SWAP3 SWAP5 POP DUP5 SWAP4 POP PUSH2 0x168A SWAP3 SWAP1 SWAP2 DUP7 ADD SWAP1 PUSH2 0x1D10 JUMP JUMPDEST POP SWAP4 POP SWAP4 SWAP2 POP POP JUMP JUMPDEST PUSH1 0x0 PUSH1 0x8 DUP1 SLOAD PUSH2 0x16A2 SWAP1 PUSH2 0x2284 JUMP JUMPDEST DUP1 PUSH1 0x1F ADD PUSH1 0x20 DUP1 SWAP2 DIV MUL PUSH1 0x20 ADD PUSH1 0x40 MLOAD SWAP1 DUP2 ADD PUSH1 0x40 MSTORE DUP1 SWAP3 SWAP2 SWAP1 DUP2 DUP2 MSTORE PUSH1 0x20 ADD DUP3 DUP1 SLOAD PUSH2 0x16CE SWAP1 PUSH2 0x2284 JUMP JUMPDEST DUP1 ISZERO PUSH2 0x171B JUMPI DUP1 PUSH1 0x1F LT PUSH2 0x16F0 JUMPI PUSH2 0x100 DUP1 DUP4 SLOAD DIV MUL DUP4 MSTORE SWAP2 PUSH1 0x20 ADD SWAP2 PUSH2 0x171B JUMP JUMPDEST DUP3 ADD SWAP2 SWAP1 PUSH1 0x0 MSTORE PUSH1 0x20 PUSH1 0x0 KECCAK256 SWAP1 JUMPDEST DUP2 SLOAD DUP2 MSTORE SWAP1 PUSH1 0x1 ADD SWAP1 PUSH1 0x20 ADD DUP1 DUP4 GT PUSH2 0x16FE JUMPI DUP3 SWAP1 SUB PUSH1 0x1F AND DUP3 ADD SWAP2 JUMPDEST POP POP DUP6 MLOAD SWAP4 SWAP5 POP PUSH2 0x1737 SWAP4 PUSH1 0x8 SWAP4 POP PUSH1 0x20 DUP8 ADD SWAP3 POP SWAP1 POP PUSH2 0x1D10 JUMP JUMPDEST POP PUSH32 0xC9C7C3FE08B88B4DF9D4D47EF47D2C43D55C025A0BA88CA442580ED9E7348A16 DUP2 DUP4 PUSH1 0x40 MLOAD PUSH2 0x1769 SWAP3 SWAP2 SWAP1 PUSH2 0x240B JUMP JUMPDEST PUSH1 0x40 MLOAD DUP1 SWAP2 SUB SWAP1 LOG1 POP POP JUMP JUMPDEST PUSH2 0x2710 DUP2 GT ISZERO PUSH2 0x17B9 JUMPI PUSH1 0x40 MLOAD PUSH3 0x461BCD PUSH1 0xE5 SHL DUP2 MSTORE PUSH1 0x20 PUSH1 0x4 DUP3 ADD MSTORE PUSH1 0xF PUSH1 0x24 DUP3 ADD MSTORE PUSH15 0x45786365656473206D617820627073 PUSH1 0x88 SHL PUSH1 0x44 DUP3 ADD MSTORE PUSH1 0x64 ADD PUSH2 0x508 JUMP JUMPDEST PUSH1 0x40 DUP1 MLOAD DUP1 DUP3 ADD DUP3 MSTORE PUSH1 0x1 PUSH1 0x1 PUSH1 0xA0 SHL SUB DUP5 DUP2 AND DUP1 DUP4 MSTORE PUSH1 0x20 DUP1 DUP5 ADD DUP7 DUP2 MSTORE PUSH1 0x0 DUP10 DUP2 MSTORE PUSH1 0xB DUP4 MSTORE DUP7 SWAP1 KECCAK256 SWAP5 MLOAD DUP6 SLOAD PUSH1 0x1 PUSH1 0x1 PUSH1 0xA0 SHL SUB NOT AND SWAP5 AND SWAP4 SWAP1 SWAP4 OR DUP5 SSTORE SWAP2 MLOAD PUSH1 0x1 SWAP1 SWAP4 ADD SWAP3 SWAP1 SWAP3 SSTORE SWAP2 MLOAD DUP4 DUP2 MSTORE SWAP1 SWAP2 DUP6 SWAP2 PUSH32 0x7365CF4122F072A3365C20D54EFF9B38D73C096C28E1892EC8F5B0E403A0F12D SWAP2 ADD PUSH1 0x40 MLOAD DUP1 SWAP2 SUB SWAP1 LOG3 POP POP POP JUMP JUMPDEST PUSH1 0x60 PUSH2 0x1863 DUP4 DUP4 PUSH1 0x40 MLOAD DUP1 PUSH1 0x60 ADD PUSH1 0x40 MSTORE DUP1 PUSH1 0x27 DUP2 MSTORE PUSH1 0x20 ADD PUSH2 0x24D1 PUSH1 0x27 SWAP2 CODECOPY PUSH2 0x1BFA JUMP JUMPDEST SWAP4 SWAP3 POP POP POP JUMP JUMPDEST PUSH1 0x40 MLOAD PUSH4 0xA85BD01 PUSH1 0xE1 SHL DUP2 MSTORE PUSH1 0x0 SWAP1 PUSH1 0x1 PUSH1 0x1 PUSH1 0xA0 SHL SUB DUP6 AND SWAP1 PUSH4 0x150B7A02 SWAP1 PUSH2 0x189F SWAP1 CALLER SWAP1 DUP10 SWAP1 DUP9 SWAP1 DUP9 SWAP1 PUSH1 0x4 ADD PUSH2 0x2439 JUMP JUMPDEST PUSH1 0x20 PUSH1 0x40 MLOAD DUP1 DUP4 SUB DUP2 PUSH1 0x0 DUP8 DUP1 EXTCODESIZE ISZERO DUP1 ISZERO PUSH2 0x18B9 JUMPI PUSH1 0x0 DUP1 REVERT JUMPDEST POP GAS CALL SWAP3 POP POP POP DUP1 ISZERO PUSH2 0x18E9 JUMPI POP PUSH1 0x40 DUP1 MLOAD PUSH1 0x1F RETURNDATASIZE SWAP1 DUP2 ADD PUSH1 0x1F NOT AND DUP3 ADD SWAP1 SWAP3 MSTORE PUSH2 0x18E6 SWAP2 DUP2 ADD SWAP1 PUSH2 0x246C JUMP JUMPDEST PUSH1 0x1 JUMPDEST PUSH2 0x1944 JUMPI RETURNDATASIZE DUP1 DUP1 ISZERO PUSH2 0x1917 JUMPI PUSH1 0x40 MLOAD SWAP2 POP PUSH1 0x1F NOT PUSH1 0x3F RETURNDATASIZE ADD AND DUP3 ADD PUSH1 0x40 MSTORE RETURNDATASIZE DUP3 MSTORE RETURNDATASIZE PUSH1 0x0 PUSH1 0x20 DUP5 ADD RETURNDATACOPY PUSH2 0x191C JUMP JUMPDEST PUSH1 0x60 SWAP2 POP JUMPDEST POP DUP1 MLOAD PUSH2 0x193C JUMPI PUSH1 0x40 MLOAD PUSH4 0x68D2BF6B PUSH1 0xE1 SHL DUP2 MSTORE PUSH1 0x4 ADD PUSH1 0x40 MLOAD DUP1 SWAP2 SUB SWAP1 REVERT JUMPDEST DUP1 MLOAD DUP2 PUSH1 0x20 ADD REVERT JUMPDEST PUSH1 0x1 PUSH1 0x1 PUSH1 0xE0 SHL SUB NOT AND PUSH4 0xA85BD01 PUSH1 0xE1 SHL EQ SWAP1 POP SWAP5 SWAP4 POP POP POP POP JUMP JUMPDEST PUSH1 0x60 PUSH1 0x0 PUSH2 0x196E PUSH1 0xC SLOAD SWAP1 JUMP JUMPDEST SWAP1 POP PUSH1 0x0 PUSH1 0xC DUP1 SLOAD DUP1 PUSH1 0x20 MUL PUSH1 0x20 ADD PUSH1 0x40 MLOAD SWAP1 DUP2 ADD PUSH1 0x40 MSTORE DUP1 SWAP3 SWAP2 SWAP1 DUP2 DUP2 MSTORE PUSH1 0x20 ADD DUP3 DUP1 SLOAD DUP1 ISZERO PUSH2 0x19BE JUMPI PUSH1 0x20 MUL DUP3 ADD SWAP2 SWAP1 PUSH1 0x0 MSTORE PUSH1 0x20 PUSH1 0x0 KECCAK256 SWAP1 JUMPDEST DUP2 SLOAD DUP2 MSTORE PUSH1 0x20 ADD SWAP1 PUSH1 0x1 ADD SWAP1 DUP1 DUP4 GT PUSH2 0x19AA JUMPI JUMPDEST POP POP POP POP POP SWAP1 POP PUSH1 0x0 JUMPDEST DUP3 DUP2 LT ISZERO PUSH2 0x1AC2 JUMPI DUP2 DUP2 DUP2 MLOAD DUP2 LT PUSH2 0x19E2 JUMPI PUSH2 0x19E2 PUSH2 0x22E7 JUMP JUMPDEST PUSH1 0x20 MUL PUSH1 0x20 ADD ADD MLOAD DUP6 LT ISZERO PUSH2 0x1AB0 JUMPI PUSH1 0xD PUSH1 0x0 DUP4 DUP4 DUP2 MLOAD DUP2 LT PUSH2 0x1A07 JUMPI PUSH2 0x1A07 PUSH2 0x22E7 JUMP JUMPDEST PUSH1 0x20 MUL PUSH1 0x20 ADD ADD MLOAD DUP2 MSTORE PUSH1 0x20 ADD SWAP1 DUP2 MSTORE PUSH1 0x20 ADD PUSH1 0x0 KECCAK256 DUP1 SLOAD PUSH2 0x1A28 SWAP1 PUSH2 0x2284 JUMP JUMPDEST DUP1 PUSH1 0x1F ADD PUSH1 0x20 DUP1 SWAP2 DIV MUL PUSH1 0x20 ADD PUSH1 0x40 MLOAD SWAP1 DUP2 ADD PUSH1 0x40 MSTORE DUP1 SWAP3 SWAP2 SWAP1 DUP2 DUP2 MSTORE PUSH1 0x20 ADD DUP3 DUP1 SLOAD PUSH2 0x1A54 SWAP1 PUSH2 0x2284 JUMP JUMPDEST DUP1 ISZERO PUSH2 0x1AA1 JUMPI DUP1 PUSH1 0x1F LT PUSH2 0x1A76 JUMPI PUSH2 0x100 DUP1 DUP4 SLOAD DIV MUL DUP4 MSTORE SWAP2 PUSH1 0x20 ADD SWAP2 PUSH2 0x1AA1 JUMP JUMPDEST DUP3 ADD SWAP2 SWAP1 PUSH1 0x0 MSTORE PUSH1 0x20 PUSH1 0x0 KECCAK256 SWAP1 JUMPDEST DUP2 SLOAD DUP2 MSTORE SWAP1 PUSH1 0x1 ADD SWAP1 PUSH1 0x20 ADD DUP1 DUP4 GT PUSH2 0x1A84 JUMPI DUP3 SWAP1 SUB PUSH1 0x1F AND DUP3 ADD SWAP2 JUMPDEST POP POP POP POP POP SWAP4 POP POP POP POP SWAP2 SWAP1 POP JUMP JUMPDEST PUSH2 0x1ABB PUSH1 0x1 DUP3 PUSH2 0x23F3 JUMP JUMPDEST SWAP1 POP PUSH2 0x19C8 JUMP JUMPDEST POP PUSH1 0x40 MLOAD PUSH3 0x461BCD PUSH1 0xE5 SHL DUP2 MSTORE PUSH1 0x20 PUSH1 0x4 DUP3 ADD MSTORE PUSH1 0xF PUSH1 0x24 DUP3 ADD MSTORE PUSH15 0x125B9D985B1A59081D1BDAD95B9259 PUSH1 0x8A SHL PUSH1 0x44 DUP3 ADD MSTORE PUSH1 0x64 ADD PUSH2 0x508 JUMP JUMPDEST PUSH1 0x60 DUP2 PUSH2 0x1B21 JUMPI POP POP PUSH1 0x40 DUP1 MLOAD DUP1 DUP3 ADD SWAP1 SWAP2 MSTORE PUSH1 0x1 DUP2 MSTORE PUSH1 0x3 PUSH1 0xFC SHL PUSH1 0x20 DUP3 ADD MSTORE SWAP1 JUMP JUMPDEST DUP2 PUSH1 0x0 JUMPDEST DUP2 ISZERO PUSH2 0x1B4B JUMPI DUP1 PUSH2 0x1B35 DUP2 PUSH2 0x23A9 JUMP JUMPDEST SWAP2 POP PUSH2 0x1B44 SWAP1 POP PUSH1 0xA DUP4 PUSH2 0x2348 JUMP JUMPDEST SWAP2 POP PUSH2 0x1B25 JUMP JUMPDEST PUSH1 0x0 DUP2 PUSH1 0x1 PUSH1 0x1 PUSH1 0x40 SHL SUB DUP2 GT ISZERO PUSH2 0x1B65 JUMPI PUSH2 0x1B65 PUSH2 0x1DC5 JUMP JUMPDEST PUSH1 0x40 MLOAD SWAP1 DUP1 DUP3 MSTORE DUP1 PUSH1 0x1F ADD PUSH1 0x1F NOT AND PUSH1 0x20 ADD DUP3 ADD PUSH1 0x40 MSTORE DUP1 ISZERO PUSH2 0x1B8F JUMPI PUSH1 0x20 DUP3 ADD DUP2 DUP1 CALLDATASIZE DUP4 CALLDATACOPY ADD SWAP1 POP JUMPDEST POP SWAP1 POP JUMPDEST DUP5 ISZERO PUSH2 0x88F JUMPI PUSH2 0x1BA4 PUSH1 0x1 DUP4 PUSH2 0x2489 JUMP JUMPDEST SWAP2 POP PUSH2 0x1BB1 PUSH1 0xA DUP7 PUSH2 0x24A0 JUMP JUMPDEST PUSH2 0x1BBC SWAP1 PUSH1 0x30 PUSH2 0x23F3 JUMP JUMPDEST PUSH1 0xF8 SHL DUP2 DUP4 DUP2 MLOAD DUP2 LT PUSH2 0x1BD1 JUMPI PUSH2 0x1BD1 PUSH2 0x22E7 JUMP JUMPDEST PUSH1 0x20 ADD ADD SWAP1 PUSH1 0x1 PUSH1 0x1 PUSH1 0xF8 SHL SUB NOT AND SWAP1 DUP2 PUSH1 0x0 BYTE SWAP1 MSTORE8 POP PUSH2 0x1BF3 PUSH1 0xA DUP7 PUSH2 0x2348 JUMP JUMPDEST SWAP5 POP PUSH2 0x1B93 JUMP JUMPDEST PUSH1 0x60 PUSH1 0x1 PUSH1 0x1 PUSH1 0xA0 SHL SUB DUP5 AND EXTCODESIZE PUSH2 0x1C62 JUMPI PUSH1 0x40 MLOAD PUSH3 0x461BCD PUSH1 0xE5 SHL DUP2 MSTORE PUSH1 0x20 PUSH1 0x4 DUP3 ADD MSTORE PUSH1 0x26 PUSH1 0x24 DUP3 ADD MSTORE PUSH32 0x416464726573733A2064656C65676174652063616C6C20746F206E6F6E2D636F PUSH1 0x44 DUP3 ADD MSTORE PUSH6 0x1B9D1C9858DD PUSH1 0xD2 SHL PUSH1 0x64 DUP3 ADD MSTORE PUSH1 0x84 ADD PUSH2 0x508 JUMP JUMPDEST PUSH1 0x0 DUP1 DUP6 PUSH1 0x1 PUSH1 0x1 PUSH1 0xA0 SHL SUB AND DUP6 PUSH1 0x40 MLOAD PUSH2 0x1C7D SWAP2 SWAP1 PUSH2 0x24B4 JUMP JUMPDEST PUSH1 0x0 PUSH1 0x40 MLOAD DUP1 DUP4 SUB DUP2 DUP6 GAS DELEGATECALL SWAP2 POP POP RETURNDATASIZE DUP1 PUSH1 0x0 DUP2 EQ PUSH2 0x1CB8 JUMPI PUSH1 0x40 MLOAD SWAP2 POP PUSH1 0x1F NOT PUSH1 0x3F RETURNDATASIZE ADD AND DUP3 ADD PUSH1 0x40 MSTORE RETURNDATASIZE DUP3 MSTORE RETURNDATASIZE PUSH1 0x0 PUSH1 0x20 DUP5 ADD RETURNDATACOPY PUSH2 0x1CBD JUMP JUMPDEST PUSH1 0x60 SWAP2 POP JUMPDEST POP SWAP2 POP SWAP2 POP PUSH2 0x1CCD DUP3 DUP3 DUP7 PUSH2 0x1CD7 JUMP JUMPDEST SWAP7 SWAP6 POP POP POP POP POP POP JUMP JUMPDEST PUSH1 0x60 DUP4 ISZERO PUSH2 0x1CE6 JUMPI POP DUP2 PUSH2 0x1863 JUMP JUMPDEST DUP3 MLOAD ISZERO PUSH2 0x1CF6 JUMPI DUP3 MLOAD DUP1 DUP5 PUSH1 0x20 ADD REVERT JUMPDEST DUP2 PUSH1 0x40 MLOAD PUSH3 0x461BCD PUSH1 0xE5 SHL DUP2 MSTORE PUSH1 0x4 ADD PUSH2 0x508 SWAP2 SWAP1 PUSH2 0x1F3F JUMP JUMPDEST DUP3 DUP1 SLOAD PUSH2 0x1D1C SWAP1 PUSH2 0x2284 JUMP JUMPDEST SWAP1 PUSH1 0x0 MSTORE PUSH1 0x20 PUSH1 0x0 KECCAK256 SWAP1 PUSH1 0x1F ADD PUSH1 0x20 SWAP1 DIV DUP2 ADD SWAP3 DUP3 PUSH2 0x1D3E JUMPI PUSH1 0x0 DUP6 SSTORE PUSH2 0x1D84 JUMP JUMPDEST DUP3 PUSH1 0x1F LT PUSH2 0x1D57 JUMPI DUP1 MLOAD PUSH1 0xFF NOT AND DUP4 DUP1 ADD OR DUP6 SSTORE PUSH2 0x1D84 JUMP JUMPDEST DUP3 DUP1 ADD PUSH1 0x1 ADD DUP6 SSTORE DUP3 ISZERO PUSH2 0x1D84 JUMPI SWAP2 DUP3 ADD JUMPDEST DUP3 DUP2 GT ISZERO PUSH2 0x1D84 JUMPI DUP3 MLOAD DUP3 SSTORE SWAP2 PUSH1 0x20 ADD SWAP2 SWAP1 PUSH1 0x1 ADD SWAP1 PUSH2 0x1D69 JUMP JUMPDEST POP PUSH2 0x1D90 SWAP3 SWAP2 POP PUSH2 0x1D94 JUMP JUMPDEST POP SWAP1 JUMP JUMPDEST JUMPDEST DUP1 DUP3 GT ISZERO PUSH2 0x1D90 JUMPI PUSH1 0x0 DUP2 SSTORE PUSH1 0x1 ADD PUSH2 0x1D95 JUMP JUMPDEST DUP1 CALLDATALOAD PUSH1 0x1 PUSH1 0x1 PUSH1 0xA0 SHL SUB DUP2 AND DUP2 EQ PUSH2 0x1DC0 JUMPI PUSH1 0x0 DUP1 REVERT JUMPDEST SWAP2 SWAP1 POP JUMP JUMPDEST PUSH4 0x4E487B71 PUSH1 0xE0 SHL PUSH1 0x0 MSTORE PUSH1 0x41 PUSH1 0x4 MSTORE PUSH1 0x24 PUSH1 0x0 REVERT JUMPDEST PUSH1 0x0 DUP3 PUSH1 0x1F DUP4 ADD SLT PUSH2 0x1DEC JUMPI PUSH1 0x0 DUP1 REVERT JUMPDEST DUP2 CALLDATALOAD PUSH1 0x1 PUSH1 0x1 PUSH1 0x40 SHL SUB DUP1 DUP3 GT ISZERO PUSH2 0x1E06 JUMPI PUSH2 0x1E06 PUSH2 0x1DC5 JUMP JUMPDEST PUSH1 0x40 MLOAD PUSH1 0x1F DUP4 ADD PUSH1 0x1F NOT SWAP1 DUP2 AND PUSH1 0x3F ADD AND DUP2 ADD SWAP1 DUP3 DUP3 GT DUP2 DUP4 LT OR ISZERO PUSH2 0x1E2E JUMPI PUSH2 0x1E2E PUSH2 0x1DC5 JUMP JUMPDEST DUP2 PUSH1 0x40 MSTORE DUP4 DUP2 MSTORE DUP7 PUSH1 0x20 DUP6 DUP9 ADD ADD GT ISZERO PUSH2 0x1E47 JUMPI PUSH1 0x0 DUP1 REVERT JUMPDEST DUP4 PUSH1 0x20 DUP8 ADD PUSH1 0x20 DUP4 ADD CALLDATACOPY PUSH1 0x0 PUSH1 0x20 DUP6 DUP4 ADD ADD MSTORE DUP1 SWAP5 POP POP POP POP POP SWAP3 SWAP2 POP POP JUMP JUMPDEST PUSH1 0x0 DUP1 PUSH1 0x40 DUP4 DUP6 SUB SLT ISZERO PUSH2 0x1E7A JUMPI PUSH1 0x0 DUP1 REVERT JUMPDEST PUSH2 0x1E83 DUP4 PUSH2 0x1DA9 JUMP JUMPDEST SWAP2 POP PUSH1 0x20 DUP4 ADD CALLDATALOAD PUSH1 0x1 PUSH1 0x1 PUSH1 0x40 SHL SUB DUP2 GT ISZERO PUSH2 0x1E9E JUMPI PUSH1 0x0 DUP1 REVERT JUMPDEST PUSH2 0x1EAA DUP6 DUP3 DUP7 ADD PUSH2 0x1DDB JUMP JUMPDEST SWAP2 POP POP SWAP3 POP SWAP3 SWAP1 POP JUMP JUMPDEST PUSH1 0x1 PUSH1 0x1 PUSH1 0xE0 SHL SUB NOT DUP2 AND DUP2 EQ PUSH2 0x739 JUMPI PUSH1 0x0 DUP1 REVERT JUMPDEST PUSH1 0x0 PUSH1 0x20 DUP3 DUP5 SUB SLT ISZERO PUSH2 0x1EDC JUMPI PUSH1 0x0 DUP1 REVERT JUMPDEST DUP2 CALLDATALOAD PUSH2 0x1863 DUP2 PUSH2 0x1EB4 JUMP JUMPDEST PUSH1 0x0 JUMPDEST DUP4 DUP2 LT ISZERO PUSH2 0x1F02 JUMPI DUP2 DUP2 ADD MLOAD DUP4 DUP3 ADD MSTORE PUSH1 0x20 ADD PUSH2 0x1EEA JUMP JUMPDEST DUP4 DUP2 GT ISZERO PUSH2 0x9FE JUMPI POP POP PUSH1 0x0 SWAP2 ADD MSTORE JUMP JUMPDEST PUSH1 0x0 DUP2 MLOAD DUP1 DUP5 MSTORE PUSH2 0x1F2B DUP2 PUSH1 0x20 DUP7 ADD PUSH1 0x20 DUP7 ADD PUSH2 0x1EE7 JUMP JUMPDEST PUSH1 0x1F ADD PUSH1 0x1F NOT AND SWAP3 SWAP1 SWAP3 ADD PUSH1 0x20 ADD SWAP3 SWAP2 POP POP JUMP JUMPDEST PUSH1 0x20 DUP2 MSTORE PUSH1 0x0 PUSH2 0x1863 PUSH1 0x20 DUP4 ADD DUP5 PUSH2 0x1F13 JUMP JUMPDEST PUSH1 0x0 PUSH1 0x20 DUP3 DUP5 SUB SLT ISZERO PUSH2 0x1F64 JUMPI PUSH1 0x0 DUP1 REVERT JUMPDEST POP CALLDATALOAD SWAP2 SWAP1 POP JUMP JUMPDEST PUSH1 0x0 DUP1 PUSH1 0x40 DUP4 DUP6 SUB SLT ISZERO PUSH2 0x1F7E JUMPI PUSH1 0x0 DUP1 REVERT JUMPDEST PUSH2 0x1F87 DUP4 PUSH2 0x1DA9 JUMP JUMPDEST SWAP5 PUSH1 0x20 SWAP4 SWAP1 SWAP4 ADD CALLDATALOAD SWAP4 POP POP POP JUMP JUMPDEST PUSH1 0x0 PUSH1 0x20 DUP3 DUP5 SUB SLT ISZERO PUSH2 0x1FA7 JUMPI PUSH1 0x0 DUP1 REVERT JUMPDEST PUSH2 0x1863 DUP3 PUSH2 0x1DA9 JUMP JUMPDEST PUSH1 0x0 DUP1 PUSH1 0x0 PUSH1 0x60 DUP5 DUP7 SUB SLT ISZERO PUSH2 0x1FC5 JUMPI PUSH1 0x0 DUP1 REVERT JUMPDEST PUSH2 0x1FCE DUP5 PUSH2 0x1DA9 JUMP JUMPDEST SWAP3 POP PUSH2 0x1FDC PUSH1 0x20 DUP6 ADD PUSH2 0x1DA9 JUMP JUMPDEST SWAP2 POP PUSH1 0x40 DUP5 ADD CALLDATALOAD SWAP1 POP SWAP3 POP SWAP3 POP SWAP3 JUMP JUMPDEST PUSH1 0x0 DUP1 PUSH1 0x40 DUP4 DUP6 SUB SLT ISZERO PUSH2 0x1FFF JUMPI PUSH1 0x0 DUP1 REVERT JUMPDEST POP POP DUP1 CALLDATALOAD SWAP3 PUSH1 0x20 SWAP1 SWAP2 ADD CALLDATALOAD SWAP2 POP JUMP JUMPDEST PUSH1 0x0 DUP1 PUSH1 0x0 DUP1 PUSH1 0x80 DUP6 DUP8 SUB SLT ISZERO PUSH2 0x2024 JUMPI PUSH1 0x0 DUP1 REVERT JUMPDEST PUSH2 0x202D DUP6 PUSH2 0x1DA9 JUMP JUMPDEST SWAP4 POP PUSH1 0x20 DUP6 ADD CALLDATALOAD SWAP3 POP PUSH1 0x40 DUP6 ADD CALLDATALOAD PUSH1 0x1 PUSH1 0x1 PUSH1 0x40 SHL SUB DUP1 DUP3 GT ISZERO PUSH2 0x2050 JUMPI PUSH1 0x0 DUP1 REVERT JUMPDEST PUSH2 0x205C DUP9 DUP4 DUP10 ADD PUSH2 0x1DDB JUMP JUMPDEST SWAP4 POP PUSH1 0x60 DUP8 ADD CALLDATALOAD SWAP2 POP DUP1 DUP3 GT ISZERO PUSH2 0x2072 JUMPI PUSH1 0x0 DUP1 REVERT JUMPDEST POP PUSH2 0x207F DUP8 DUP3 DUP9 ADD PUSH2 0x1DDB JUMP JUMPDEST SWAP2 POP POP SWAP3 SWAP6 SWAP2 SWAP5 POP SWAP3 POP JUMP JUMPDEST PUSH1 0x0 PUSH1 0x20 DUP3 DUP5 SUB SLT ISZERO PUSH2 0x209D JUMPI PUSH1 0x0 DUP1 REVERT JUMPDEST DUP2 CALLDATALOAD PUSH1 0x1 PUSH1 0x1 PUSH1 0x40 SHL SUB DUP2 GT ISZERO PUSH2 0x20B3 JUMPI PUSH1 0x0 DUP1 REVERT JUMPDEST PUSH2 0x88F DUP5 DUP3 DUP6 ADD PUSH2 0x1DDB JUMP JUMPDEST PUSH1 0x0 DUP1 PUSH1 0x0 PUSH1 0x60 DUP5 DUP7 SUB SLT ISZERO PUSH2 0x20D4 JUMPI PUSH1 0x0 DUP1 REVERT JUMPDEST DUP4 CALLDATALOAD SWAP3 POP PUSH2 0x1FDC PUSH1 0x20 DUP6 ADD PUSH2 0x1DA9 JUMP JUMPDEST PUSH1 0x0 DUP1 PUSH1 0x40 DUP4 DUP6 SUB SLT ISZERO PUSH2 0x20F7 JUMPI PUSH1 0x0 DUP1 REVERT JUMPDEST PUSH2 0x2100 DUP4 PUSH2 0x1DA9 JUMP JUMPDEST SWAP2 POP PUSH1 0x20 DUP4 ADD CALLDATALOAD DUP1 ISZERO ISZERO DUP2 EQ PUSH2 0x2115 JUMPI PUSH1 0x0 DUP1 REVERT JUMPDEST DUP1 SWAP2 POP POP SWAP3 POP SWAP3 SWAP1 POP JUMP JUMPDEST PUSH1 0x0 DUP1 PUSH1 0x20 DUP4 DUP6 SUB SLT ISZERO PUSH2 0x2133 JUMPI PUSH1 0x0 DUP1 REVERT JUMPDEST DUP3 CALLDATALOAD PUSH1 0x1 PUSH1 0x1 PUSH1 0x40 SHL SUB DUP1 DUP3 GT ISZERO PUSH2 0x214A JUMPI PUSH1 0x0 DUP1 REVERT JUMPDEST DUP2 DUP6 ADD SWAP2 POP DUP6 PUSH1 0x1F DUP4 ADD SLT PUSH2 0x215E JUMPI PUSH1 0x0 DUP1 REVERT JUMPDEST DUP2 CALLDATALOAD DUP2 DUP2 GT ISZERO PUSH2 0x216D JUMPI PUSH1 0x0 DUP1 REVERT JUMPDEST DUP7 PUSH1 0x20 DUP3 PUSH1 0x5 SHL DUP6 ADD ADD GT ISZERO PUSH2 0x2182 JUMPI PUSH1 0x0 DUP1 REVERT JUMPDEST PUSH1 0x20 SWAP3 SWAP1 SWAP3 ADD SWAP7 SWAP2 SWAP6 POP SWAP1 SWAP4 POP POP POP POP JUMP JUMPDEST PUSH1 0x0 PUSH1 0x20 DUP1 DUP4 ADD DUP2 DUP5 MSTORE DUP1 DUP6 MLOAD DUP1 DUP4 MSTORE PUSH1 0x40 DUP7 ADD SWAP2 POP PUSH1 0x40 DUP2 PUSH1 0x5 SHL DUP8 ADD ADD SWAP3 POP DUP4 DUP8 ADD PUSH1 0x0 JUMPDEST DUP3 DUP2 LT ISZERO PUSH2 0x21E9 JUMPI PUSH1 0x3F NOT DUP9 DUP7 SUB ADD DUP5 MSTORE PUSH2 0x21D7 DUP6 DUP4 MLOAD PUSH2 0x1F13 JUMP JUMPDEST SWAP5 POP SWAP3 DUP6 ADD SWAP3 SWAP1 DUP6 ADD SWAP1 PUSH1 0x1 ADD PUSH2 0x21BB JUMP JUMPDEST POP SWAP3 SWAP8 SWAP7 POP POP POP POP POP POP POP JUMP JUMPDEST PUSH1 0x0 DUP1 PUSH1 0x0 DUP1 PUSH1 0x80 DUP6 DUP8 SUB SLT ISZERO PUSH2 0x220C JUMPI PUSH1 0x0 DUP1 REVERT JUMPDEST PUSH2 0x2215 DUP6 PUSH2 0x1DA9 JUMP JUMPDEST SWAP4 POP PUSH2 0x2223 PUSH1 0x20 DUP7 ADD PUSH2 0x1DA9 JUMP JUMPDEST SWAP3 POP PUSH1 0x40 DUP6 ADD CALLDATALOAD SWAP2 POP PUSH1 0x60 DUP6 ADD CALLDATALOAD PUSH1 0x1 PUSH1 0x1 PUSH1 0x40 SHL SUB DUP2 GT ISZERO PUSH2 0x2245 JUMPI PUSH1 0x0 DUP1 REVERT JUMPDEST PUSH2 0x207F DUP8 DUP3 DUP9 ADD PUSH2 0x1DDB JUMP JUMPDEST PUSH1 0x0 DUP1 PUSH1 0x40 DUP4 DUP6 SUB SLT ISZERO PUSH2 0x2264 JUMPI PUSH1 0x0 DUP1 REVERT JUMPDEST PUSH2 0x226D DUP4 PUSH2 0x1DA9 JUMP JUMPDEST SWAP2 POP PUSH2 0x227B PUSH1 0x20 DUP5 ADD PUSH2 0x1DA9 JUMP JUMPDEST SWAP1 POP SWAP3 POP SWAP3 SWAP1 POP JUMP JUMPDEST PUSH1 0x1 DUP2 DUP2 SHR SWAP1 DUP3 AND DUP1 PUSH2 0x2298 JUMPI PUSH1 0x7F DUP3 AND SWAP2 POP JUMPDEST PUSH1 0x20 DUP3 LT DUP2 EQ ISZERO PUSH2 0x22B9 JUMPI PUSH4 0x4E487B71 PUSH1 0xE0 SHL PUSH1 0x0 MSTORE PUSH1 0x22 PUSH1 0x4 MSTORE PUSH1 0x24 PUSH1 0x0 REVERT JUMPDEST POP SWAP2 SWAP1 POP JUMP JUMPDEST PUSH1 0x20 DUP1 DUP3 MSTORE PUSH1 0xE SWAP1 DUP3 ADD MSTORE PUSH14 0x139BDD08185D5D1A1BDC9A5E9959 PUSH1 0x92 SHL PUSH1 0x40 DUP3 ADD MSTORE PUSH1 0x60 ADD SWAP1 JUMP JUMPDEST PUSH4 0x4E487B71 PUSH1 0xE0 SHL PUSH1 0x0 MSTORE PUSH1 0x32 PUSH1 0x4 MSTORE PUSH1 0x24 PUSH1 0x0 REVERT JUMPDEST PUSH4 0x4E487B71 PUSH1 0xE0 SHL PUSH1 0x0 MSTORE PUSH1 0x11 PUSH1 0x4 MSTORE PUSH1 0x24 PUSH1 0x0 REVERT JUMPDEST PUSH1 0x0 DUP2 PUSH1 0x0 NOT DIV DUP4 GT DUP3 ISZERO ISZERO AND ISZERO PUSH2 0x232D JUMPI PUSH2 0x232D PUSH2 0x22FD JUMP JUMPDEST POP MUL SWAP1 JUMP JUMPDEST PUSH4 0x4E487B71 PUSH1 0xE0 SHL PUSH1 0x0 MSTORE PUSH1 0x12 PUSH1 0x4 MSTORE PUSH1 0x24 PUSH1 0x0 REVERT JUMPDEST PUSH1 0x0 DUP3 PUSH2 0x2357 JUMPI PUSH2 0x2357 PUSH2 0x2332 JUMP JUMPDEST POP DIV SWAP1 JUMP JUMPDEST PUSH1 0x0 DUP1 DUP4 CALLDATALOAD PUSH1 0x1E NOT DUP5 CALLDATASIZE SUB ADD DUP2 SLT PUSH2 0x2373 JUMPI PUSH1 0x0 DUP1 REVERT JUMPDEST DUP4 ADD DUP1 CALLDATALOAD SWAP2 POP PUSH1 0x1 PUSH1 0x1 PUSH1 0x40 SHL SUB DUP3 GT ISZERO PUSH2 0x238D JUMPI PUSH1 0x0 DUP1 REVERT JUMPDEST PUSH1 0x20 ADD SWAP2 POP CALLDATASIZE DUP2 SWAP1 SUB DUP3 SGT ISZERO PUSH2 0x23A2 JUMPI PUSH1 0x0 DUP1 REVERT JUMPDEST SWAP3 POP SWAP3 SWAP1 POP JUMP JUMPDEST PUSH1 0x0 PUSH1 0x0 NOT DUP3 EQ ISZERO PUSH2 0x23BD JUMPI PUSH2 0x23BD PUSH2 0x22FD JUMP JUMPDEST POP PUSH1 0x1 ADD SWAP1 JUMP JUMPDEST PUSH1 0x0 DUP4 MLOAD PUSH2 0x23D6 DUP2 DUP5 PUSH1 0x20 DUP9 ADD PUSH2 0x1EE7 JUMP JUMPDEST DUP4 MLOAD SWAP1 DUP4 ADD SWAP1 PUSH2 0x23EA DUP2 DUP4 PUSH1 0x20 DUP9 ADD PUSH2 0x1EE7 JUMP JUMPDEST ADD SWAP5 SWAP4 POP POP POP POP JUMP JUMPDEST PUSH1 0x0 DUP3 NOT DUP3 GT ISZERO PUSH2 0x2406 JUMPI PUSH2 0x2406 PUSH2 0x22FD JUMP JUMPDEST POP ADD SWAP1 JUMP JUMPDEST PUSH1 0x40 DUP2 MSTORE PUSH1 0x0 PUSH2 0x241E PUSH1 0x40 DUP4 ADD DUP6 PUSH2 0x1F13 JUMP JUMPDEST DUP3 DUP2 SUB PUSH1 0x20 DUP5 ADD MSTORE PUSH2 0x2430 DUP2 DUP6 PUSH2 0x1F13 JUMP JUMPDEST SWAP6 SWAP5 POP POP POP POP POP JUMP JUMPDEST PUSH1 0x1 PUSH1 0x1 PUSH1 0xA0 SHL SUB DUP6 DUP2 AND DUP3 MSTORE DUP5 AND PUSH1 0x20 DUP3 ADD MSTORE PUSH1 0x40 DUP2 ADD DUP4 SWAP1 MSTORE PUSH1 0x80 PUSH1 0x60 DUP3 ADD DUP2 SWAP1 MSTORE PUSH1 0x0 SWAP1 PUSH2 0x1CCD SWAP1 DUP4 ADD DUP5 PUSH2 0x1F13 JUMP JUMPDEST PUSH1 0x0 PUSH1 0x20 DUP3 DUP5 SUB SLT ISZERO PUSH2 0x247E JUMPI PUSH1 0x0 DUP1 REVERT JUMPDEST DUP2 MLOAD PUSH2 0x1863 DUP2 PUSH2 0x1EB4 JUMP JUMPDEST PUSH1 0x0 DUP3 DUP3 LT ISZERO PUSH2 0x249B JUMPI PUSH2 0x249B PUSH2 0x22FD JUMP JUMPDEST POP SUB SWAP1 JUMP JUMPDEST PUSH1 0x0 DUP3 PUSH2 0x24AF JUMPI PUSH2 0x24AF PUSH2 0x2332 JUMP JUMPDEST POP MOD SWAP1 JUMP JUMPDEST PUSH1 0x0 DUP3 MLOAD PUSH2 0x24C6 DUP2 DUP5 PUSH1 0x20 DUP8 ADD PUSH2 0x1EE7 JUMP JUMPDEST SWAP2 SWAP1 SWAP2 ADD SWAP3 SWAP2 POP POP JUMP INVALID COINBASE PUSH5 0x6472657373 GASPRICE KECCAK256 PUSH13 0x6F772D6C6576656C2064656C65 PUSH8 0x6174652063616C6C KECCAK256 PUSH7 0x61696C6564DDF2 MSTORE 0xAD SHL 0xE2 0xC8 SWAP12 PUSH10 0xC2B068FC378DAA952BA7 CALL PUSH4 0xC4A11628 CREATE2 GAS 0x4D CREATE2 0x23 0xB3 0xEF LOG2 PUSH5 0x6970667358 0x22 SLT KECCAK256 0x1E RETURN SGT ADD 0xC4 SWAP14 SWAP2 DUP7 BLOCKHASH PUSH8 0x97AF329E670A8445 CALLVALUE 0xDA PUSH3 0xCFA79A PUSH19 0xF19F0B4069F17F64736F6C6343000809003300 "},"methodIdentifiers":{"approve(address,uint256)":"095ea7b3","balanceOf(address)":"70a08231","batchMintTo(address,uint256,string,bytes)":"754a81d9","burn(uint256)":"42966c68","contractURI()":"e8a3d485","getApproved(uint256)":"081812fc","getBaseURICount()":"63b45e2d","getBatchIdAtIndex(uint256)":"2419f51b","getDefaultRoyaltyInfo()":"b24f2d39","getRoyaltyInfoForToken(uint256)":"4cc157df","isApprovedForAll(address,address)":"e985e9c5","isApprovedOrOwner(address,uint256)":"430c2081","mintTo(address,string)":"0075a317","multicall(bytes[])":"ac9650d8","name()":"06fdde03","nextTokenIdToMint()":"3b1475a7","owner()":"8da5cb5b","ownerOf(uint256)":"6352211e","royaltyInfo(uint256,uint256)":"2a55205a","safeTransferFrom(address,address,uint256)":"42842e0e","safeTransferFrom(address,address,uint256,bytes)":"b88d4fde","setApprovalForAll(address,bool)":"a22cb465","setContractURI(string)":"938e3d7b","setDefaultRoyaltyInfo(address,uint256)":"600dd5ea","setOwner(address)":"13af4035","setRoyaltyInfoForToken(uint256,address,uint256)":"9bcf7a15","supportsInterface(bytes4)":"01ffc9a7","symbol()":"95d89b41","tokenURI(uint256)":"c87b56dd","totalSupply()":"18160ddd","transferFrom(address,address,uint256)":"23b872dd"}}}}}